{
    "_format": "hh-sol-artifact-1",
    "contractName": "MessageReceiver",
    "sourceName": "contracts/MessageReceiver.sol",
    "abi": [
        {
            "inputs": [
                {
                    "internalType": "address",
                    "name": "_gateway",
                    "type": "address"
                },
                {
                    "internalType": "address",
                    "name": "_gasReceiver",
                    "type": "address"
                }
            ],
            "stateMutability": "nonpayable",
            "type": "constructor"
        },
        {
            "inputs": [],
            "name": "InvalidAddress",
            "type": "error"
        },
        {
            "inputs": [],
            "name": "NotApprovedByGateway",
            "type": "error"
        },
        {
            "anonymous": false,
            "inputs": [],
            "name": "Executed",
            "type": "event"
        },
        {
            "anonymous": false,
            "inputs": [
                {
                    "indexed": false,
                    "internalType": "string",
                    "name": "reason",
                    "type": "string"
                }
            ],
            "name": "Failed",
            "type": "event"
        },
        {
            "anonymous": false,
            "inputs": [
                {
                    "indexed": true,
                    "internalType": "address",
                    "name": "from",
                    "type": "address"
                },
                {
                    "indexed": true,
                    "internalType": "address",
                    "name": "to",
                    "type": "address"
                },
                {
                    "indexed": false,
                    "internalType": "uint256",
                    "name": "value",
                    "type": "uint256"
                }
            ],
            "name": "Transfer",
            "type": "event"
        },
        {
            "inputs": [
                {
                    "internalType": "bytes32",
                    "name": "commandId",
                    "type": "bytes32"
                },
                {
                    "internalType": "string",
                    "name": "sourceChain",
                    "type": "string"
                },
                {
                    "internalType": "string",
                    "name": "sourceAddress",
                    "type": "string"
                },
                {
                    "internalType": "bytes",
                    "name": "payload",
                    "type": "bytes"
                }
            ],
            "name": "execute",
            "outputs": [],
            "stateMutability": "nonpayable",
            "type": "function"
        },
        {
            "inputs": [
                {
                    "internalType": "bytes32",
                    "name": "commandId",
                    "type": "bytes32"
                },
                {
                    "internalType": "string",
                    "name": "sourceChain",
                    "type": "string"
                },
                {
                    "internalType": "string",
                    "name": "sourceAddress",
                    "type": "string"
                },
                {
                    "internalType": "bytes",
                    "name": "payload",
                    "type": "bytes"
                },
                {
                    "internalType": "string",
                    "name": "tokenSymbol",
                    "type": "string"
                },
                {
                    "internalType": "uint256",
                    "name": "amount",
                    "type": "uint256"
                }
            ],
            "name": "executeWithToken",
            "outputs": [],
            "stateMutability": "nonpayable",
            "type": "function"
        },
        {
            "inputs": [],
            "name": "gateway",
            "outputs": [
                {
                    "internalType": "contract IAxelarGateway",
                    "name": "",
                    "type": "address"
                }
            ],
            "stateMutability": "view",
            "type": "function"
        },
        {
            "inputs": [],
            "name": "getMarketplace",
            "outputs": [
                {
                    "internalType": "address",
                    "name": "",
                    "type": "address"
                }
            ],
            "stateMutability": "view",
            "type": "function"
        },
        {
            "inputs": [
                {
                    "internalType": "address",
                    "name": "_nftMarket",
                    "type": "address"
                }
            ],
            "name": "setMarketplace",
            "outputs": [],
            "stateMutability": "nonpayable",
            "type": "function"
        },
        {
            "inputs": [],
            "name": "sourceChain",
            "outputs": [
                {
                    "internalType": "string",
                    "name": "",
                    "type": "string"
                }
            ],
            "stateMutability": "view",
            "type": "function"
        }
    ],
    "bytecode": "0x60c060405234801561001057600080fd5b5060405162001644380380620016448339810160408190526100319161009f565b816001600160a01b0381166100595760405163e6c4247b60e01b815260040160405180910390fd5b6001600160a01b039081166080521660a05250600080546001600160a01b031916331790556100d2565b80516001600160a01b038116811461009a57600080fd5b919050565b600080604083850312156100b257600080fd5b6100bb83610083565b91506100c960208401610083565b90509250929050565b60805160a05161153b62000109600039600050506000818160a6015281816101620152818161030c015261049b015261153b6000f3fe608060405234801561001057600080fd5b50600436106100725760003560e01c80631c6ffa46116100505780631c6ffa46146100dd57806349160658146100f257806373ad6c2d1461010557600080fd5b80630d21bcd514610077578063116191b6146100a15780631a98b2e0146100c8575b600080fd5b6001546001600160a01b03165b6040516001600160a01b0390911681526020015b60405180910390f35b6100847f000000000000000000000000000000000000000000000000000000000000000081565b6100db6100d6366004610ea2565b610118565b005b6100e5610234565b6040516100989190610fc9565b6100db610100366004610fe3565b6102c2565b6100db61011336600461109f565b6103d2565b6000858560405161012a9291906110bc565b6040519081900381207f1876eed900000000000000000000000000000000000000000000000000000000825291506001600160a01b037f00000000000000000000000000000000000000000000000000000000000000001690631876eed9906101a7908e908e908e908e908e9089908d908d908d906004016110f5565b602060405180830381600087803b1580156101c157600080fd5b505af11580156101d5573d6000803e3d6000fd5b505050506040513d601f19601f820116820180604052508101906101f99190611169565b61021657604051631403112d60e21b815260040160405180910390fd5b6102278a8a8a8a8a8a8a8a8a610484565b5050505050505050505050565b6002805461024190611184565b80601f016020809104026020016040519081016040528092919081815260200182805461026d90611184565b80156102ba5780601f1061028f576101008083540402835291602001916102ba565b820191906000526020600020905b81548152906001019060200180831161029d57829003601f168201915b505050505081565b600082826040516102d49291906110bc565b6040519081900381207f5f6970c300000000000000000000000000000000000000000000000000000000825291506001600160a01b037f00000000000000000000000000000000000000000000000000000000000000001690635f6970c39061034b908b908b908b908b908b9089906004016111bf565b602060405180830381600087803b15801561036557600080fd5b505af1158015610379573d6000803e3d6000fd5b505050506040513d601f19601f8201168201806040525081019061039d9190611169565b6103ba57604051631403112d60e21b815260040160405180910390fd5b6103c8878787878787610bf4565b5050505050505050565b6000546001600160a01b0316331461044a576040517f08c379a000000000000000000000000000000000000000000000000000000000815260206004820152601e60248201527f4f6e6c79206f776e65722063616e20736574206d61726b6574706c6163650000604482015260640160405180910390fd5b600180547fffffffffffffffffffffffff0000000000000000000000000000000000000000166001600160a01b0392909216919091179055565b60008061049386880188611200565b9150915060007f00000000000000000000000000000000000000000000000000000000000000006001600160a01b031663935b13f687876040518363ffffffff1660e01b81526004016104e792919061122c565b60206040518083038186803b1580156104ff57600080fd5b505afa158015610513573d6000803e3d6000fd5b505050506040513d601f19601f820116820180604052508101906105379190611248565b6001546040517f8e264590000000000000000000000000000000000000000000000000000000008152600481018590529192506000916001600160a01b0390911690638e2645909060240160e06040518083038186803b15801561059a57600080fd5b505afa1580156105ae573d6000803e3d6000fd5b505050506040513d601f19601f820116820180604052508101906105d2919061127b565b6060810151909150829086146106d15760405163a9059cbb60e01b81526001600160a01b0386811660048301526024820188905282169063a9059cbb90604401602060405180830381600087803b15801561062c57600080fd5b505af1158015610640573d6000803e3d6000fd5b505050506040513d601f19601f820116820180604052508101906106649190611169565b507fc65844e8ee2558ed559edaad0fdb8d4149b19d5bb4d863bc498bed24f6b2df516040516106c4906020808252601f908201527f4e667420707269636520616e64207061796d656e74206e6f742074616c6c7900604082015260600190565b60405180910390a1610bbb565b608082015115156001146107c15760405163a9059cbb60e01b81526001600160a01b0386811660048301526024820188905282169063a9059cbb90604401602060405180830381600087803b15801561072957600080fd5b505af115801561073d573d6000803e3d6000fd5b505050506040513d601f19601f820116820180604052508101906107619190611169565b507fc65844e8ee2558ed559edaad0fdb8d4149b19d5bb4d863bc498bed24f6b2df516040516106c49060208082526012908201527f4e6674206973206e6f74206f6e2073616c650000000000000000000000000000604082015260600190565b428260a001511080156107e957508160c001516001600160a01b0316856001600160a01b0316145b156108f65760405163a9059cbb60e01b81526001600160a01b0386811660048301526024820188905282169063a9059cbb90604401602060405180830381600087803b15801561083857600080fd5b505af115801561084c573d6000803e3d6000fd5b505050506040513d601f19601f820116820180604052508101906108709190611169565b507fc65844e8ee2558ed559edaad0fdb8d4149b19d5bb4d863bc498bed24f6b2df516040516106c49060208082526029908201527f4e46542069732063757272656e746c7920726573657276656420627920736f6d60408201527f656f6e6520656c73650000000000000000000000000000000000000000000000606082015260800190565b600154604080517f68f1945f00000000000000000000000000000000000000000000000000000000815290516000926001600160a01b0316916368f1945f916004808301926020929190829003018186803b15801561095457600080fd5b505afa158015610968573d6000803e3d6000fd5b505050506040513d601f19601f8201168201806040525081019061098c919061131c565b90506000600160009054906101000a90046001600160a01b03166001600160a01b031663893d20e86040518163ffffffff1660e01b815260040160206040518083038186803b1580156109de57600080fd5b505afa1580156109f2573d6000803e3d6000fd5b505050506040513d601f19601f82011682018060405250810190610a169190611248565b90506000828560600151610a2a9190611335565b604086810151905163a9059cbb60e01b81526001600160a01b0391821660048201526024810183905291925085169063a9059cbb90604401602060405180830381600087803b158015610a7c57600080fd5b505af1158015610a90573d6000803e3d6000fd5b505050506040513d601f19601f82011682018060405250810190610ab49190611169565b5060405163a9059cbb60e01b81526001600160a01b0383811660048301526024820185905285169063a9059cbb90604401602060405180830381600087803b158015610aff57600080fd5b505af1158015610b13573d6000803e3d6000fd5b505050506040513d601f19601f82011682018060405250810190610b379190611169565b506001546040517f8e9c072c0000000000000000000000000000000000000000000000000000000081526001600160a01b038a81166004830152602482018a905290911690638e9c072c90604401600060405180830381600087803b158015610b9f57600080fd5b505af1158015610bb3573d6000803e3d6000fd5b505050505050505b6040517f68f46c45a243a0e9065a97649faf9a5afe1692f2679e650c2f853b9cd734cc0e90600090a15050505050505050505050505050565b610c0060028787610dc0565b506000808080808080610c15888a018a6113f0565b96509650965096509650965096508560021415610cae576001546040517fd5b2d7120000000000000000000000000000000000000000000000000000000081526001600160a01b039091169063d5b2d71290610c77908a9089906004016114a4565b600060405180830381600087803b158015610c9157600080fd5b505af1158015610ca5573d6000803e3d6000fd5b50505050610d88565b8560011415610d08576001546040517f0e03aad00000000000000000000000000000000000000000000000000000000081526001600160a01b0390911690630e03aad090610c77908a9088908890889088906004016114c6565b6001546040517f2efcc8f10000000000000000000000000000000000000000000000000000000081526001600160a01b0389811660048301526024820187905290911690632efcc8f190604401600060405180830381600087803b158015610d6f57600080fd5b505af1158015610d83573d6000803e3d6000fd5b505050505b6040517f68f46c45a243a0e9065a97649faf9a5afe1692f2679e650c2f853b9cd734cc0e90600090a150505050505050505050505050565b828054610dcc90611184565b90600052602060002090601f016020900481019282610dee5760008555610e34565b82601f10610e075782800160ff19823516178555610e34565b82800160010185558215610e34579182015b82811115610e34578235825591602001919060010190610e19565b50610e40929150610e44565b5090565b5b80821115610e405760008155600101610e45565b60008083601f840112610e6b57600080fd5b50813567ffffffffffffffff811115610e8357600080fd5b602083019150836020828501011115610e9b57600080fd5b9250929050565b60008060008060008060008060008060c08b8d031215610ec157600080fd5b8a35995060208b013567ffffffffffffffff80821115610ee057600080fd5b610eec8e838f01610e59565b909b50995060408d0135915080821115610f0557600080fd5b610f118e838f01610e59565b909950975060608d0135915080821115610f2a57600080fd5b610f368e838f01610e59565b909750955060808d0135915080821115610f4f57600080fd5b50610f5c8d828e01610e59565b9150809450508092505060a08b013590509295989b9194979a5092959850565b6000815180845260005b81811015610fa257602081850181015186830182015201610f86565b81811115610fb4576000602083870101525b50601f01601f19169290920160200192915050565b602081526000610fdc6020830184610f7c565b9392505050565b60008060008060008060006080888a031215610ffe57600080fd5b87359650602088013567ffffffffffffffff8082111561101d57600080fd5b6110298b838c01610e59565b909850965060408a013591508082111561104257600080fd5b61104e8b838c01610e59565b909650945060608a013591508082111561106757600080fd5b506110748a828b01610e59565b989b979a50959850939692959293505050565b6001600160a01b038116811461109c57600080fd5b50565b6000602082840312156110b157600080fd5b8135610fdc81611087565b8183823760009101908152919050565b81835281816020850137506000828201602090810191909152601f909101601f19169091010190565b89815260c06020820152600061110f60c083018a8c6110cc565b828103604084015261112281898b6110cc565b9050866060840152828103608084015261113d8186886110cc565b9150508260a08301529a9950505050505050505050565b8051801515811461116457600080fd5b919050565b60006020828403121561117b57600080fd5b610fdc82611154565b600181811c9082168061119857607f821691505b602082108114156111b957634e487b7160e01b600052602260045260246000fd5b50919050565b8681526080602082015260006111d96080830187896110cc565b82810360408401526111ec8186886110cc565b915050826060830152979650505050505050565b6000806040838503121561121357600080fd5b823561121e81611087565b946020939093013593505050565b6020815260006112406020830184866110cc565b949350505050565b60006020828403121561125a57600080fd5b8151610fdc81611087565b634e487b7160e01b600052604160045260246000fd5b600060e0828403121561128d57600080fd5b60405160e0810181811067ffffffffffffffff821117156112b0576112b0611265565b6040528251815260208301516112c581611087565b602082015260408301516112d881611087565b6040820152606083810151908201526112f360808401611154565b608082015260a083015160a082015260c083015161131081611087565b60c08201529392505050565b60006020828403121561132e57600080fd5b5051919050565b60008282101561135557634e487b7160e01b600052601160045260246000fd5b500390565b600067ffffffffffffffff8084111561137557611375611265565b604051601f8501601f19908116603f0116810190828211818310171561139d5761139d611265565b816040528093508581528686860111156113b657600080fd5b858560208301376000602087830101525050509392505050565b600082601f8301126113e157600080fd5b610fdc8383356020850161135a565b600080600080600080600060e0888a03121561140b57600080fd5b873561141681611087565b965060208801359550604088013567ffffffffffffffff8082111561143a57600080fd5b818a0191508a601f83011261144e57600080fd5b61145d8b83356020850161135a565b965060608a0135955060808a0135945060a08a0135935060c08a013591508082111561148857600080fd5b506114958a828b016113d0565b91505092959891949750929550565b6001600160a01b03831681526040602082015260006112406040830184610f7c565b6001600160a01b038616815284602082015283604082015282606082015260a0608082015260006114fa60a0830184610f7c565b97965050505050505056fea2646970667358221220da4230f2fb7aab6903446cd64894169597c044e64ce177f8a615fbced5e7d08f64736f6c63430008090033",
    "linkReferences": {},
    "deployedLinkReferences": {}
}