{
    "_format": "hh-sol-artifact-1",
    "contractName": "MessageReceiver",
    "sourceName": "contracts/MessageReceiver.sol",
    "abi": [
        {
            "inputs": [
                {
                    "internalType": "address",
                    "name": "_gateway",
                    "type": "address"
                },
                {
                    "internalType": "address",
                    "name": "_gasReceiver",
                    "type": "address"
                }
            ],
            "stateMutability": "nonpayable",
            "type": "constructor"
        },
        {
            "inputs": [],
            "name": "InvalidAddress",
            "type": "error"
        },
        {
            "inputs": [],
            "name": "NotApprovedByGateway",
            "type": "error"
        },
        {
            "anonymous": false,
            "inputs": [],
            "name": "Executed",
            "type": "event"
        },
        {
            "anonymous": false,
            "inputs": [
                {
                    "indexed": false,
                    "internalType": "string",
                    "name": "reason",
                    "type": "string"
                }
            ],
            "name": "Failed",
            "type": "event"
        },
        {
            "anonymous": false,
            "inputs": [
                {
                    "indexed": true,
                    "internalType": "address",
                    "name": "from",
                    "type": "address"
                },
                {
                    "indexed": true,
                    "internalType": "address",
                    "name": "to",
                    "type": "address"
                },
                {
                    "indexed": false,
                    "internalType": "uint256",
                    "name": "value",
                    "type": "uint256"
                }
            ],
            "name": "Transfer",
            "type": "event"
        },
        {
            "inputs": [
                {
                    "internalType": "bytes32",
                    "name": "commandId",
                    "type": "bytes32"
                },
                {
                    "internalType": "string",
                    "name": "sourceChain",
                    "type": "string"
                },
                {
                    "internalType": "string",
                    "name": "sourceAddress",
                    "type": "string"
                },
                {
                    "internalType": "bytes",
                    "name": "payload",
                    "type": "bytes"
                }
            ],
            "name": "execute",
            "outputs": [],
            "stateMutability": "nonpayable",
            "type": "function"
        },
        {
            "inputs": [
                {
                    "internalType": "bytes32",
                    "name": "commandId",
                    "type": "bytes32"
                },
                {
                    "internalType": "string",
                    "name": "sourceChain",
                    "type": "string"
                },
                {
                    "internalType": "string",
                    "name": "sourceAddress",
                    "type": "string"
                },
                {
                    "internalType": "bytes",
                    "name": "payload",
                    "type": "bytes"
                },
                {
                    "internalType": "string",
                    "name": "tokenSymbol",
                    "type": "string"
                },
                {
                    "internalType": "uint256",
                    "name": "amount",
                    "type": "uint256"
                }
            ],
            "name": "executeWithToken",
            "outputs": [],
            "stateMutability": "nonpayable",
            "type": "function"
        },
        {
            "inputs": [],
            "name": "gateway",
            "outputs": [
                {
                    "internalType": "contract IAxelarGateway",
                    "name": "",
                    "type": "address"
                }
            ],
            "stateMutability": "view",
            "type": "function"
        },
        {
            "inputs": [],
            "name": "getMarketplace",
            "outputs": [
                {
                    "internalType": "address",
                    "name": "",
                    "type": "address"
                }
            ],
            "stateMutability": "view",
            "type": "function"
        },
        {
            "inputs": [
                {
                    "internalType": "address",
                    "name": "_nftMarket",
                    "type": "address"
                }
            ],
            "name": "setMarketplace",
            "outputs": [],
            "stateMutability": "nonpayable",
            "type": "function"
        },
        {
            "inputs": [],
            "name": "sourceChain",
            "outputs": [
                {
                    "internalType": "string",
                    "name": "",
                    "type": "string"
                }
            ],
            "stateMutability": "view",
            "type": "function"
        }
    ],
    "bytecode": "0x60c06040523480156200001157600080fd5b506040516200172c3803806200172c8339810160408190526200003491620000a5565b816001600160a01b0381166200005d5760405163e6c4247b60e01b815260040160405180910390fd5b6001600160a01b039081166080521660a05250600080546001600160a01b03191633179055620000dd565b80516001600160a01b0381168114620000a057600080fd5b919050565b60008060408385031215620000b957600080fd5b620000c48362000088565b9150620000d46020840162000088565b90509250929050565b60805160a05161161862000114600039600050506000818160a6015281816101620152818161030c015261049b01526116186000f3fe608060405234801561001057600080fd5b50600436106100725760003560e01c80631c6ffa46116100505780631c6ffa46146100dd57806349160658146100f257806373ad6c2d1461010557600080fd5b80630d21bcd514610077578063116191b6146100a15780631a98b2e0146100c8575b600080fd5b6001546001600160a01b03165b6040516001600160a01b0390911681526020015b60405180910390f35b6100847f000000000000000000000000000000000000000000000000000000000000000081565b6100db6100d6366004610ea6565b610118565b005b6100e5610234565b6040516100989190610fdc565b6100db610100366004610ff6565b6102c2565b6100db6101133660046110b2565b6103d2565b6000858560405161012a9291906110cf565b6040519081900381207f1876eed900000000000000000000000000000000000000000000000000000000825291506001600160a01b037f00000000000000000000000000000000000000000000000000000000000000001690631876eed9906101a7908e908e908e908e908e9089908d908d908d90600401611108565b602060405180830381600087803b1580156101c157600080fd5b505af11580156101d5573d6000803e3d6000fd5b505050506040513d601f19601f820116820180604052508101906101f9919061117c565b61021657604051631403112d60e21b815260040160405180910390fd5b6102278a8a8a8a8a8a8a8a8a610484565b5050505050505050505050565b6002805461024190611197565b80601f016020809104026020016040519081016040528092919081815260200182805461026d90611197565b80156102ba5780601f1061028f576101008083540402835291602001916102ba565b820191906000526020600020905b81548152906001019060200180831161029d57829003601f168201915b505050505081565b600082826040516102d49291906110cf565b6040519081900381207f5f6970c300000000000000000000000000000000000000000000000000000000825291506001600160a01b037f00000000000000000000000000000000000000000000000000000000000000001690635f6970c39061034b908b908b908b908b908b9089906004016111d2565b602060405180830381600087803b15801561036557600080fd5b505af1158015610379573d6000803e3d6000fd5b505050506040513d601f19601f8201168201806040525081019061039d919061117c565b6103ba57604051631403112d60e21b815260040160405180910390fd5b6103c8878787878787610bf8565b5050505050505050565b6000546001600160a01b0316331461044a576040517f08c379a000000000000000000000000000000000000000000000000000000000815260206004820152601e60248201527f4f6e6c79206f776e65722063616e20736574206d61726b6574706c6163650000604482015260640160405180910390fd5b600180547fffffffffffffffffffffffff0000000000000000000000000000000000000000166001600160a01b0392909216919091179055565b60008061049386880188611213565b9150915060007f00000000000000000000000000000000000000000000000000000000000000006001600160a01b031663935b13f687876040518363ffffffff1660e01b81526004016104e792919061123f565b60206040518083038186803b1580156104ff57600080fd5b505afa158015610513573d6000803e3d6000fd5b505050506040513d601f19601f820116820180604052508101906105379190611266565b6001546040517f8e264590000000000000000000000000000000000000000000000000000000008152600481018590529192506000916001600160a01b0390911690638e2645909060240160006040518083038186803b15801561059a57600080fd5b505afa1580156105ae573d6000803e3d6000fd5b505050506040513d6000823e601f3d908101601f191682016040526105d69190810190611366565b6060810151909150829086146106d55760405163a9059cbb60e01b81526001600160a01b0386811660048301526024820188905282169063a9059cbb90604401602060405180830381600087803b15801561063057600080fd5b505af1158015610644573d6000803e3d6000fd5b505050506040513d601f19601f82011682018060405250810190610668919061117c565b507fc65844e8ee2558ed559edaad0fdb8d4149b19d5bb4d863bc498bed24f6b2df516040516106c8906020808252601f908201527f4e667420707269636520616e64207061796d656e74206e6f742074616c6c7900604082015260600190565b60405180910390a1610bbf565b608082015115156001146107c55760405163a9059cbb60e01b81526001600160a01b0386811660048301526024820188905282169063a9059cbb90604401602060405180830381600087803b15801561072d57600080fd5b505af1158015610741573d6000803e3d6000fd5b505050506040513d601f19601f82011682018060405250810190610765919061117c565b507fc65844e8ee2558ed559edaad0fdb8d4149b19d5bb4d863bc498bed24f6b2df516040516106c89060208082526012908201527f4e6674206973206e6f74206f6e2073616c650000000000000000000000000000604082015260600190565b428260c001511080156107ed57508160e001516001600160a01b0316856001600160a01b0316145b156108fa5760405163a9059cbb60e01b81526001600160a01b0386811660048301526024820188905282169063a9059cbb90604401602060405180830381600087803b15801561083c57600080fd5b505af1158015610850573d6000803e3d6000fd5b505050506040513d601f19601f82011682018060405250810190610874919061117c565b507fc65844e8ee2558ed559edaad0fdb8d4149b19d5bb4d863bc498bed24f6b2df516040516106c89060208082526029908201527f4e46542069732063757272656e746c7920726573657276656420627920736f6d60408201527f656f6e6520656c73650000000000000000000000000000000000000000000000606082015260800190565b600154604080517f68f1945f00000000000000000000000000000000000000000000000000000000815290516000926001600160a01b0316916368f1945f916004808301926020929190829003018186803b15801561095857600080fd5b505afa15801561096c573d6000803e3d6000fd5b505050506040513d601f19601f820116820180604052508101906109909190611436565b90506000600160009054906101000a90046001600160a01b03166001600160a01b031663893d20e86040518163ffffffff1660e01b815260040160206040518083038186803b1580156109e257600080fd5b505afa1580156109f6573d6000803e3d6000fd5b505050506040513d601f19601f82011682018060405250810190610a1a9190611266565b90506000828560600151610a2e919061144f565b604086810151905163a9059cbb60e01b81526001600160a01b0391821660048201526024810183905291925085169063a9059cbb90604401602060405180830381600087803b158015610a8057600080fd5b505af1158015610a94573d6000803e3d6000fd5b505050506040513d601f19601f82011682018060405250810190610ab8919061117c565b5060405163a9059cbb60e01b81526001600160a01b0383811660048301526024820185905285169063a9059cbb90604401602060405180830381600087803b158015610b0357600080fd5b505af1158015610b17573d6000803e3d6000fd5b505050506040513d601f19601f82011682018060405250810190610b3b919061117c565b506001546040517f8e9c072c0000000000000000000000000000000000000000000000000000000081526001600160a01b038a81166004830152602482018a905290911690638e9c072c90604401600060405180830381600087803b158015610ba357600080fd5b505af1158015610bb7573d6000803e3d6000fd5b505050505050505b6040517f68f46c45a243a0e9065a97649faf9a5afe1692f2679e650c2f853b9cd734cc0e90600090a15050505050505050505050505050565b610c0460028787610dc4565b506000808080808080610c19888a018a6114cd565b96509650965096509650965096508560021415610cb2576001546040517fd5b2d7120000000000000000000000000000000000000000000000000000000081526001600160a01b039091169063d5b2d71290610c7b908a908990600401611581565b600060405180830381600087803b158015610c9557600080fd5b505af1158015610ca9573d6000803e3d6000fd5b50505050610d8c565b8560011415610d0c576001546040517f0e03aad00000000000000000000000000000000000000000000000000000000081526001600160a01b0390911690630e03aad090610c7b908a9088908890889088906004016115a3565b6001546040517f2efcc8f10000000000000000000000000000000000000000000000000000000081526001600160a01b0389811660048301526024820187905290911690632efcc8f190604401600060405180830381600087803b158015610d7357600080fd5b505af1158015610d87573d6000803e3d6000fd5b505050505b6040517f68f46c45a243a0e9065a97649faf9a5afe1692f2679e650c2f853b9cd734cc0e90600090a150505050505050505050505050565b828054610dd090611197565b90600052602060002090601f016020900481019282610df25760008555610e38565b82601f10610e0b5782800160ff19823516178555610e38565b82800160010185558215610e38579182015b82811115610e38578235825591602001919060010190610e1d565b50610e44929150610e48565b5090565b5b80821115610e445760008155600101610e49565b60008083601f840112610e6f57600080fd5b50813567ffffffffffffffff811115610e8757600080fd5b602083019150836020828501011115610e9f57600080fd5b9250929050565b60008060008060008060008060008060c08b8d031215610ec557600080fd5b8a35995060208b013567ffffffffffffffff80821115610ee457600080fd5b610ef08e838f01610e5d565b909b50995060408d0135915080821115610f0957600080fd5b610f158e838f01610e5d565b909950975060608d0135915080821115610f2e57600080fd5b610f3a8e838f01610e5d565b909750955060808d0135915080821115610f5357600080fd5b50610f608d828e01610e5d565b9150809450508092505060a08b013590509295989b9194979a5092959850565b60005b83811015610f9b578181015183820152602001610f83565b83811115610faa576000848401525b50505050565b60008151808452610fc8816020860160208601610f80565b601f01601f19169290920160200192915050565b602081526000610fef6020830184610fb0565b9392505050565b60008060008060008060006080888a03121561101157600080fd5b87359650602088013567ffffffffffffffff8082111561103057600080fd5b61103c8b838c01610e5d565b909850965060408a013591508082111561105557600080fd5b6110618b838c01610e5d565b909650945060608a013591508082111561107a57600080fd5b506110878a828b01610e5d565b989b979a50959850939692959293505050565b6001600160a01b03811681146110af57600080fd5b50565b6000602082840312156110c457600080fd5b8135610fef8161109a565b8183823760009101908152919050565b81835281816020850137506000828201602090810191909152601f909101601f19169091010190565b89815260c06020820152600061112260c083018a8c6110df565b828103604084015261113581898b6110df565b905086606084015282810360808401526111508186886110df565b9150508260a08301529a9950505050505050505050565b8051801515811461117757600080fd5b919050565b60006020828403121561118e57600080fd5b610fef82611167565b600181811c908216806111ab57607f821691505b602082108114156111cc57634e487b7160e01b600052602260045260246000fd5b50919050565b8681526080602082015260006111ec6080830187896110df565b82810360408401526111ff8186886110df565b915050826060830152979650505050505050565b6000806040838503121561122657600080fd5b82356112318161109a565b946020939093013593505050565b6020815260006112536020830184866110df565b949350505050565b80516111778161109a565b60006020828403121561127857600080fd5b8151610fef8161109a565b634e487b7160e01b600052604160045260246000fd5b604051610100810167ffffffffffffffff811182821017156112bd576112bd611283565b60405290565b604051601f8201601f1916810167ffffffffffffffff811182821017156112ec576112ec611283565b604052919050565b600067ffffffffffffffff82111561130e5761130e611283565b50601f01601f191660200190565b600082601f83011261132d57600080fd5b815161134061133b826112f4565b6112c3565b81815284602083860101111561135557600080fd5b611253826020830160208701610f80565b60006020828403121561137857600080fd5b815167ffffffffffffffff8082111561139057600080fd5b9083019061010082860312156113a557600080fd5b6113ad611299565b825181526113bd6020840161125b565b60208201526113ce6040840161125b565b6040820152606083015160608201526113e960808401611167565b608082015260a08301518281111561140057600080fd5b61140c8782860161131c565b60a08301525060c083015160c082015261142860e0840161125b565b60e082015295945050505050565b60006020828403121561144857600080fd5b5051919050565b60008282101561146f57634e487b7160e01b600052601160045260246000fd5b500390565b600061148261133b846112f4565b905082815283838301111561149657600080fd5b828260208301376000602084830101529392505050565b600082601f8301126114be57600080fd5b610fef83833560208501611474565b600080600080600080600060e0888a0312156114e857600080fd5b87356114f38161109a565b965060208801359550604088013567ffffffffffffffff8082111561151757600080fd5b818a0191508a601f83011261152b57600080fd5b61153a8b833560208501611474565b965060608a0135955060808a0135945060a08a0135935060c08a013591508082111561156557600080fd5b506115728a828b016114ad565b91505092959891949750929550565b6001600160a01b03831681526040602082015260006112536040830184610fb0565b6001600160a01b038616815284602082015283604082015282606082015260a0608082015260006115d760a0830184610fb0565b97965050505050505056fea2646970667358221220fcefb198466d640337d89b261d8da03095bc0d9661be0c54e8a85799a41108bf64736f6c63430008090033",
    "linkReferences": {},
    "deployedLinkReferences": {}
}