{
    "_format": "hh-sol-artifact-1",
    "contractName": "NFTMarketplace",
    "sourceName": "contracts/NFTMarketplace.sol",
    "abi": [
        {
            "inputs": [
                {
                    "internalType": "address",
                    "name": "_operator",
                    "type": "address"
                },
                {
                    "internalType": "address",
                    "name": "_receivingToken",
                    "type": "address"
                }
            ],
            "stateMutability": "nonpayable",
            "type": "constructor"
        },
        {
            "anonymous": false,
            "inputs": [
                {
                    "indexed": true,
                    "internalType": "address",
                    "name": "owner",
                    "type": "address"
                },
                {
                    "indexed": true,
                    "internalType": "address",
                    "name": "approved",
                    "type": "address"
                },
                {
                    "indexed": true,
                    "internalType": "uint256",
                    "name": "tokenId",
                    "type": "uint256"
                }
            ],
            "name": "Approval",
            "type": "event"
        },
        {
            "anonymous": false,
            "inputs": [
                {
                    "indexed": true,
                    "internalType": "address",
                    "name": "owner",
                    "type": "address"
                },
                {
                    "indexed": true,
                    "internalType": "address",
                    "name": "operator",
                    "type": "address"
                },
                {
                    "indexed": false,
                    "internalType": "bool",
                    "name": "approved",
                    "type": "bool"
                }
            ],
            "name": "ApprovalForAll",
            "type": "event"
        },
        {
            "anonymous": false,
            "inputs": [
                {
                    "indexed": true,
                    "internalType": "uint256",
                    "name": "tokenId",
                    "type": "uint256"
                },
                {
                    "indexed": false,
                    "internalType": "address",
                    "name": "owner",
                    "type": "address"
                },
                {
                    "indexed": false,
                    "internalType": "address",
                    "name": "seller",
                    "type": "address"
                },
                {
                    "indexed": false,
                    "internalType": "uint256",
                    "name": "price",
                    "type": "uint256"
                },
                {
                    "indexed": false,
                    "internalType": "bool",
                    "name": "currentlyListed",
                    "type": "bool"
                },
                {
                    "indexed": false,
                    "internalType": "uint256",
                    "name": "reservedUntil",
                    "type": "uint256"
                },
                {
                    "indexed": false,
                    "internalType": "address",
                    "name": "lastReservedBy",
                    "type": "address"
                }
            ],
            "name": "TokenListedSuccess",
            "type": "event"
        },
        {
            "anonymous": false,
            "inputs": [
                {
                    "indexed": true,
                    "internalType": "address",
                    "name": "from",
                    "type": "address"
                },
                {
                    "indexed": true,
                    "internalType": "address",
                    "name": "to",
                    "type": "address"
                },
                {
                    "indexed": true,
                    "internalType": "uint256",
                    "name": "tokenId",
                    "type": "uint256"
                }
            ],
            "name": "Transfer",
            "type": "event"
        },
        {
            "inputs": [],
            "name": "DOMAIN_SEPARATOR",
            "outputs": [
                {
                    "internalType": "bytes32",
                    "name": "",
                    "type": "bytes32"
                }
            ],
            "stateMutability": "view",
            "type": "function"
        },
        {
            "inputs": [
                {
                    "internalType": "address",
                    "name": "to",
                    "type": "address"
                },
                {
                    "internalType": "uint256",
                    "name": "tokenId",
                    "type": "uint256"
                }
            ],
            "name": "approve",
            "outputs": [],
            "stateMutability": "nonpayable",
            "type": "function"
        },
        {
            "inputs": [
                {
                    "internalType": "address",
                    "name": "owner",
                    "type": "address"
                }
            ],
            "name": "balanceOf",
            "outputs": [
                {
                    "internalType": "uint256",
                    "name": "",
                    "type": "uint256"
                }
            ],
            "stateMutability": "view",
            "type": "function"
        },
        {
            "inputs": [
                {
                    "internalType": "string",
                    "name": "tokenURI",
                    "type": "string"
                }
            ],
            "name": "createToken",
            "outputs": [
                {
                    "internalType": "uint256",
                    "name": "",
                    "type": "uint256"
                }
            ],
            "stateMutability": "payable",
            "type": "function"
        },
        {
            "inputs": [
                {
                    "internalType": "address",
                    "name": "recipient",
                    "type": "address"
                },
                {
                    "internalType": "string",
                    "name": "tokenURI",
                    "type": "string"
                }
            ],
            "name": "crossCreateToken",
            "outputs": [],
            "stateMutability": "payable",
            "type": "function"
        },
        {
            "inputs": [
                {
                    "internalType": "address",
                    "name": "recipient",
                    "type": "address"
                },
                {
                    "internalType": "uint256",
                    "name": "tokenId",
                    "type": "uint256"
                }
            ],
            "name": "crossDelistToken",
            "outputs": [],
            "stateMutability": "nonpayable",
            "type": "function"
        },
        {
            "inputs": [
                {
                    "internalType": "address",
                    "name": "recipient",
                    "type": "address"
                },
                {
                    "internalType": "uint256",
                    "name": "tokenId",
                    "type": "uint256"
                }
            ],
            "name": "crossExecuteSale",
            "outputs": [],
            "stateMutability": "nonpayable",
            "type": "function"
        },
        {
            "inputs": [
                {
                    "internalType": "address",
                    "name": "recipient",
                    "type": "address"
                },
                {
                    "internalType": "uint256",
                    "name": "tokenId",
                    "type": "uint256"
                },
                {
                    "internalType": "uint256",
                    "name": "price",
                    "type": "uint256"
                },
                {
                    "internalType": "uint256",
                    "name": "deadline",
                    "type": "uint256"
                },
                {
                    "internalType": "bytes",
                    "name": "signature",
                    "type": "bytes"
                }
            ],
            "name": "crossSetListToken",
            "outputs": [],
            "stateMutability": "nonpayable",
            "type": "function"
        },
        {
            "inputs": [
                {
                    "internalType": "uint256",
                    "name": "tokenId",
                    "type": "uint256"
                }
            ],
            "name": "delistToken",
            "outputs": [],
            "stateMutability": "nonpayable",
            "type": "function"
        },
        {
            "inputs": [
                {
                    "internalType": "uint256",
                    "name": "tokenId",
                    "type": "uint256"
                }
            ],
            "name": "executeSale",
            "outputs": [],
            "stateMutability": "payable",
            "type": "function"
        },
        {
            "inputs": [
                {
                    "internalType": "bool",
                    "name": "listedOnly",
                    "type": "bool"
                }
            ],
            "name": "getAllNFTs",
            "outputs": [
                {
                    "components": [
                        {
                            "internalType": "uint256",
                            "name": "tokenId",
                            "type": "uint256"
                        },
                        {
                            "internalType": "address payable",
                            "name": "owner",
                            "type": "address"
                        },
                        {
                            "internalType": "address payable",
                            "name": "seller",
                            "type": "address"
                        },
                        {
                            "internalType": "uint256",
                            "name": "price",
                            "type": "uint256"
                        },
                        {
                            "internalType": "bool",
                            "name": "currentlyListed",
                            "type": "bool"
                        },
                        {
                            "internalType": "uint256",
                            "name": "reservedUntil",
                            "type": "uint256"
                        },
                        {
                            "internalType": "address",
                            "name": "lastReservedBy",
                            "type": "address"
                        }
                    ],
                    "internalType": "struct NFTMarketplace.ListedToken[]",
                    "name": "",
                    "type": "tuple[]"
                }
            ],
            "stateMutability": "view",
            "type": "function"
        },
        {
            "inputs": [
                {
                    "internalType": "uint256",
                    "name": "tokenId",
                    "type": "uint256"
                }
            ],
            "name": "getApproved",
            "outputs": [
                {
                    "internalType": "address",
                    "name": "",
                    "type": "address"
                }
            ],
            "stateMutability": "view",
            "type": "function"
        },
        {
            "inputs": [],
            "name": "getCurrentToken",
            "outputs": [
                {
                    "internalType": "uint256",
                    "name": "",
                    "type": "uint256"
                }
            ],
            "stateMutability": "view",
            "type": "function"
        },
        {
            "inputs": [],
            "name": "getFloorPrice",
            "outputs": [
                {
                    "internalType": "uint256",
                    "name": "",
                    "type": "uint256"
                }
            ],
            "stateMutability": "view",
            "type": "function"
        },
        {
            "inputs": [
                {
                    "internalType": "address",
                    "name": "holder",
                    "type": "address"
                },
                {
                    "internalType": "bool",
                    "name": "listedOnly",
                    "type": "bool"
                }
            ],
            "name": "getHolderNFTs",
            "outputs": [
                {
                    "components": [
                        {
                            "internalType": "uint256",
                            "name": "tokenId",
                            "type": "uint256"
                        },
                        {
                            "internalType": "address payable",
                            "name": "owner",
                            "type": "address"
                        },
                        {
                            "internalType": "address payable",
                            "name": "seller",
                            "type": "address"
                        },
                        {
                            "internalType": "uint256",
                            "name": "price",
                            "type": "uint256"
                        },
                        {
                            "internalType": "bool",
                            "name": "currentlyListed",
                            "type": "bool"
                        },
                        {
                            "internalType": "uint256",
                            "name": "reservedUntil",
                            "type": "uint256"
                        },
                        {
                            "internalType": "address",
                            "name": "lastReservedBy",
                            "type": "address"
                        }
                    ],
                    "internalType": "struct NFTMarketplace.ListedToken[]",
                    "name": "",
                    "type": "tuple[]"
                }
            ],
            "stateMutability": "view",
            "type": "function"
        },
        {
            "inputs": [],
            "name": "getLatestIdToListedToken",
            "outputs": [
                {
                    "components": [
                        {
                            "internalType": "uint256",
                            "name": "tokenId",
                            "type": "uint256"
                        },
                        {
                            "internalType": "address payable",
                            "name": "owner",
                            "type": "address"
                        },
                        {
                            "internalType": "address payable",
                            "name": "seller",
                            "type": "address"
                        },
                        {
                            "internalType": "uint256",
                            "name": "price",
                            "type": "uint256"
                        },
                        {
                            "internalType": "bool",
                            "name": "currentlyListed",
                            "type": "bool"
                        },
                        {
                            "internalType": "uint256",
                            "name": "reservedUntil",
                            "type": "uint256"
                        },
                        {
                            "internalType": "address",
                            "name": "lastReservedBy",
                            "type": "address"
                        }
                    ],
                    "internalType": "struct NFTMarketplace.ListedToken",
                    "name": "",
                    "type": "tuple"
                }
            ],
            "stateMutability": "view",
            "type": "function"
        },
        {
            "inputs": [],
            "name": "getListPrice",
            "outputs": [
                {
                    "internalType": "uint256",
                    "name": "",
                    "type": "uint256"
                }
            ],
            "stateMutability": "view",
            "type": "function"
        },
        {
            "inputs": [
                {
                    "internalType": "uint256",
                    "name": "tokenId",
                    "type": "uint256"
                }
            ],
            "name": "getListedTokenForId",
            "outputs": [
                {
                    "components": [
                        {
                            "internalType": "uint256",
                            "name": "tokenId",
                            "type": "uint256"
                        },
                        {
                            "internalType": "address payable",
                            "name": "owner",
                            "type": "address"
                        },
                        {
                            "internalType": "address payable",
                            "name": "seller",
                            "type": "address"
                        },
                        {
                            "internalType": "uint256",
                            "name": "price",
                            "type": "uint256"
                        },
                        {
                            "internalType": "bool",
                            "name": "currentlyListed",
                            "type": "bool"
                        },
                        {
                            "internalType": "uint256",
                            "name": "reservedUntil",
                            "type": "uint256"
                        },
                        {
                            "internalType": "address",
                            "name": "lastReservedBy",
                            "type": "address"
                        }
                    ],
                    "internalType": "struct NFTMarketplace.ListedToken",
                    "name": "",
                    "type": "tuple"
                }
            ],
            "stateMutability": "view",
            "type": "function"
        },
        {
            "inputs": [],
            "name": "getMyNFTs",
            "outputs": [
                {
                    "components": [
                        {
                            "internalType": "uint256",
                            "name": "tokenId",
                            "type": "uint256"
                        },
                        {
                            "internalType": "address payable",
                            "name": "owner",
                            "type": "address"
                        },
                        {
                            "internalType": "address payable",
                            "name": "seller",
                            "type": "address"
                        },
                        {
                            "internalType": "uint256",
                            "name": "price",
                            "type": "uint256"
                        },
                        {
                            "internalType": "bool",
                            "name": "currentlyListed",
                            "type": "bool"
                        },
                        {
                            "internalType": "uint256",
                            "name": "reservedUntil",
                            "type": "uint256"
                        },
                        {
                            "internalType": "address",
                            "name": "lastReservedBy",
                            "type": "address"
                        }
                    ],
                    "internalType": "struct NFTMarketplace.ListedToken[]",
                    "name": "",
                    "type": "tuple[]"
                }
            ],
            "stateMutability": "view",
            "type": "function"
        },
        {
            "inputs": [],
            "name": "getOperator",
            "outputs": [
                {
                    "internalType": "address",
                    "name": "",
                    "type": "address"
                }
            ],
            "stateMutability": "view",
            "type": "function"
        },
        {
            "inputs": [],
            "name": "getOwner",
            "outputs": [
                {
                    "internalType": "address",
                    "name": "",
                    "type": "address"
                }
            ],
            "stateMutability": "view",
            "type": "function"
        },
        {
            "inputs": [],
            "name": "getReceivingToken",
            "outputs": [
                {
                    "internalType": "address",
                    "name": "",
                    "type": "address"
                }
            ],
            "stateMutability": "view",
            "type": "function"
        },
        {
            "inputs": [
                {
                    "internalType": "address",
                    "name": "owner",
                    "type": "address"
                },
                {
                    "internalType": "address",
                    "name": "operator",
                    "type": "address"
                }
            ],
            "name": "isApprovedForAll",
            "outputs": [
                {
                    "internalType": "bool",
                    "name": "",
                    "type": "bool"
                }
            ],
            "stateMutability": "view",
            "type": "function"
        },
        {
            "inputs": [],
            "name": "name",
            "outputs": [
                {
                    "internalType": "string",
                    "name": "",
                    "type": "string"
                }
            ],
            "stateMutability": "view",
            "type": "function"
        },
        {
            "inputs": [
                {
                    "internalType": "uint256",
                    "name": "tokenId",
                    "type": "uint256"
                }
            ],
            "name": "nonces",
            "outputs": [
                {
                    "internalType": "uint256",
                    "name": "",
                    "type": "uint256"
                }
            ],
            "stateMutability": "view",
            "type": "function"
        },
        {
            "inputs": [
                {
                    "internalType": "uint256",
                    "name": "tokenId",
                    "type": "uint256"
                }
            ],
            "name": "ownerOf",
            "outputs": [
                {
                    "internalType": "address",
                    "name": "",
                    "type": "address"
                }
            ],
            "stateMutability": "view",
            "type": "function"
        },
        {
            "inputs": [
                {
                    "internalType": "address",
                    "name": "spender",
                    "type": "address"
                },
                {
                    "internalType": "uint256",
                    "name": "tokenId",
                    "type": "uint256"
                },
                {
                    "internalType": "uint256",
                    "name": "deadline",
                    "type": "uint256"
                },
                {
                    "internalType": "bytes",
                    "name": "signature",
                    "type": "bytes"
                }
            ],
            "name": "permit",
            "outputs": [],
            "stateMutability": "nonpayable",
            "type": "function"
        },
        {
            "inputs": [
                {
                    "internalType": "address",
                    "name": "from",
                    "type": "address"
                },
                {
                    "internalType": "address",
                    "name": "to",
                    "type": "address"
                },
                {
                    "internalType": "uint256",
                    "name": "tokenId",
                    "type": "uint256"
                }
            ],
            "name": "safeTransferFrom",
            "outputs": [],
            "stateMutability": "nonpayable",
            "type": "function"
        },
        {
            "inputs": [
                {
                    "internalType": "address",
                    "name": "from",
                    "type": "address"
                },
                {
                    "internalType": "address",
                    "name": "to",
                    "type": "address"
                },
                {
                    "internalType": "uint256",
                    "name": "tokenId",
                    "type": "uint256"
                },
                {
                    "internalType": "bytes",
                    "name": "data",
                    "type": "bytes"
                }
            ],
            "name": "safeTransferFrom",
            "outputs": [],
            "stateMutability": "nonpayable",
            "type": "function"
        },
        {
            "inputs": [
                {
                    "internalType": "address",
                    "name": "operator",
                    "type": "address"
                },
                {
                    "internalType": "bool",
                    "name": "approved",
                    "type": "bool"
                }
            ],
            "name": "setApprovalForAll",
            "outputs": [],
            "stateMutability": "nonpayable",
            "type": "function"
        },
        {
            "inputs": [
                {
                    "internalType": "uint256",
                    "name": "tokenId",
                    "type": "uint256"
                },
                {
                    "internalType": "uint256",
                    "name": "price",
                    "type": "uint256"
                }
            ],
            "name": "setListToken",
            "outputs": [],
            "stateMutability": "nonpayable",
            "type": "function"
        },
        {
            "inputs": [
                {
                    "internalType": "bytes4",
                    "name": "interfaceId",
                    "type": "bytes4"
                }
            ],
            "name": "supportsInterface",
            "outputs": [
                {
                    "internalType": "bool",
                    "name": "",
                    "type": "bool"
                }
            ],
            "stateMutability": "view",
            "type": "function"
        },
        {
            "inputs": [],
            "name": "symbol",
            "outputs": [
                {
                    "internalType": "string",
                    "name": "",
                    "type": "string"
                }
            ],
            "stateMutability": "view",
            "type": "function"
        },
        {
            "inputs": [
                {
                    "internalType": "uint256",
                    "name": "tokenId",
                    "type": "uint256"
                }
            ],
            "name": "tokenURI",
            "outputs": [
                {
                    "internalType": "string",
                    "name": "",
                    "type": "string"
                }
            ],
            "stateMutability": "view",
            "type": "function"
        },
        {
            "inputs": [
                {
                    "internalType": "address",
                    "name": "from",
                    "type": "address"
                },
                {
                    "internalType": "address",
                    "name": "to",
                    "type": "address"
                },
                {
                    "internalType": "uint256",
                    "name": "tokenId",
                    "type": "uint256"
                }
            ],
            "name": "transferFrom",
            "outputs": [],
            "stateMutability": "nonpayable",
            "type": "function"
        },
        {
            "inputs": [
                {
                    "internalType": "uint256",
                    "name": "_floorPrice",
                    "type": "uint256"
                }
            ],
            "name": "updateFloorPrice",
            "outputs": [],
            "stateMutability": "nonpayable",
            "type": "function"
        },
        {
            "inputs": [
                {
                    "internalType": "uint256",
                    "name": "_listPrice",
                    "type": "uint256"
                }
            ],
            "name": "updateListPrice",
            "outputs": [],
            "stateMutability": "nonpayable",
            "type": "function"
        },
        {
            "inputs": [
                {
                    "internalType": "address",
                    "name": "_operator",
                    "type": "address"
                }
            ],
            "name": "updateOperator",
            "outputs": [],
            "stateMutability": "nonpayable",
            "type": "function"
        },
        {
            "inputs": [
                {
                    "internalType": "address",
                    "name": "_receivingToken",
                    "type": "address"
                }
            ],
            "name": "updateReceivingToken",
            "outputs": [],
            "stateMutability": "nonpayable",
            "type": "function"
        }
    ],
    "bytecode": "0x6101606040527f49ecf333e5b8c95c40fdafc95c1ad136e8914a8fb55e9dc8bb01eaa83a2df9ad6101405261c350600d55620186a0600e553480156200004457600080fd5b50604051620041a3380380620041a3833981016040819052620000679162000296565b6040518060400160405280600e81526020016d4e46544d61726b6574706c61636560901b815250604051806040016040528060048152602001634e46544d60e01b81525081604051806040016040528060018152602001603160f81b815250838360016000819055508160019080519060200190620000e8929190620001d3565b508051620000fe906002906020840190620001d3565b5050825160209384012082519284019290922060e08390526101008190524660a0818152604080517f8b73c3c69bb8fe3d512ecc4cf759cc79239f7b179b0ffacaa9a75d522b39400f818901819052818301979097526060810194909452608080850193909352308483018190528151808603909301835260c094850190915281519190960120905292909252610120525050600c8054336001600160a01b031991821617909155600f805482166001600160a01b03958616179055601180549091169290931691909117909155506200030b565b828054620001e190620002ce565b90600052602060002090601f01602090048101928262000205576000855562000250565b82601f106200022057805160ff191683800117855562000250565b8280016001018555821562000250579182015b828111156200025057825182559160200191906001019062000233565b506200025e92915062000262565b5090565b5b808211156200025e576000815560010162000263565b80516001600160a01b03811681146200029157600080fd5b919050565b60008060408385031215620002aa57600080fd5b620002b58362000279565b9150620002c56020840162000279565b90509250929050565b600181811c90821680620002e357607f821691505b602082108114156200030557634e487b7160e01b600052602260045260246000fd5b50919050565b60805160a05160c05160e051610100516101205161014051613e3d620003666000396000612a8a015260006128c401526000612913015260006128ee01526000612847015260006128710152600061289b0152613e3d6000f3fe6080604052600436106102a05760003560e01c806370a082311161016e578063b88d4fde116100cb578063d5b2d7121161007f578063e985e9c511610064578063e985e9c5146107b7578063eb42dad914610800578063ef2d17461461082057600080fd5b8063d5b2d71214610786578063e7f43c681461079957600080fd5b8063c322579c116100b0578063c322579c14610731578063c87b56dd14610751578063d1a88ae51461077157600080fd5b8063b88d4fde146106f1578063bed659bc1461071157600080fd5b806395d89b4111610122578063a22cb46511610107578063a22cb46514610691578063a83835c7146106b1578063ac7475ed146106d157600080fd5b806395d89b41146106695780639b1225c41461067e57600080fd5b8063893d20e811610153578063893d20e8146105565780638e264590146105745780638e9c072c1461064957600080fd5b806370a0823114610516578063745a41bc1461053657600080fd5b80632d04fa8b1161021c57806345576f94116101d05780636352211e116101b55780636352211e146104c157806368f1945f146104e15780636eb7f72e146104f657600080fd5b806345576f9414610499578063629cb2e4146104ac57600080fd5b80633644e515116102015780633644e51514610437578063375ea4b71461044c57806342842e0e1461047957600080fd5b80632d04fa8b146103f95780632efcc8f11461041757600080fd5b80630e03aad0116102735780631a1f1115116102585780631a1f1115146103a457806323b872dd146103c45780632a33d6b2146103e457600080fd5b80630e03aad014610356578063141a468c1461037657600080fd5b806301ffc9a7146102a557806306fdde03146102da578063081812fc146102fc578063095ea7b314610334575b600080fd5b3480156102b157600080fd5b506102c56102c03660046136f8565b610835565b60405190151581526020015b60405180910390f35b3480156102e657600080fd5b506102ef610879565b6040516102d1919061376d565b34801561030857600080fd5b5061031c610317366004613780565b61090b565b6040516001600160a01b0390911681526020016102d1565b34801561034057600080fd5b5061035461034f3660046137b5565b610932565b005b34801561036257600080fd5b50610354610371366004613882565b610a69565b34801561038257600080fd5b50610396610391366004613780565b610c9c565b6040519081526020016102d1565b3480156103b057600080fd5b506103546103bf3660046138ed565b610cb0565b3480156103d057600080fd5b506103546103df36600461390f565b610e7f565b3480156103f057600080fd5b50600e54610396565b34801561040557600080fd5b506011546001600160a01b031661031c565b34801561042357600080fd5b506103546104323660046137b5565b610f06565b34801561044357600080fd5b5061039661100d565b34801561045857600080fd5b5061046c610467366004613959565b61101c565b6040516102d19190613990565b34801561048557600080fd5b5061035461049436600461390f565b611313565b6103966104a7366004613a30565b61132e565b3480156104b857600080fd5b5061046c611420565b3480156104cd57600080fd5b5061031c6104dc366004613780565b61168c565b3480156104ed57600080fd5b50600d54610396565b34801561050257600080fd5b50610354610511366004613780565b6116f1565b34801561052257600080fd5b50610396610531366004613a65565b611776565b34801561054257600080fd5b50610354610551366004613a80565b611810565b34801561056257600080fd5b50600c546001600160a01b031661031c565b34801561058057600080fd5b5061063c61058f366004613780565b6040805160e081018252600080825260208201819052918101829052606081018290526080810182905260a0810182905260c081019190915250600090815260106020908152604091829020825160e0810184528154815260018201546001600160a01b0390811693820193909352600282015483169381019390935260038101546060840152600481015460ff1615156080840152600581015460a0840152600601541660c082015290565b6040516102d19190613ae1565b34801561065557600080fd5b506103546106643660046137b5565b611822565b34801561067557600080fd5b506102ef6118fd565b61035461068c366004613780565b61190c565b34801561069d57600080fd5b506103546106ac366004613959565b611d97565b3480156106bd57600080fd5b5061046c6106cc366004613b41565b611da6565b3480156106dd57600080fd5b506103546106ec366004613a65565b611fb1565b3480156106fd57600080fd5b5061035461070c366004613b5e565b61202d565b34801561071d57600080fd5b5061035461072c366004613780565b6120b5565b34801561073d57600080fd5b5061035461074c366004613780565b61214f565b34801561075d57600080fd5b506102ef61076c366004613780565b6121d4565b34801561077d57600080fd5b5061063c6122e5565b610354610794366004613bae565b61239f565b3480156107a557600080fd5b50600f546001600160a01b031661031c565b3480156107c357600080fd5b506102c56107d2366004613bfc565b6001600160a01b03918216600090815260066020908152604080832093909416825291909152205460ff1690565b34801561080c57600080fd5b5061035461081b366004613a65565b6124f8565b34801561082c57600080fd5b5061039661259a565b60006001600160e01b031982167f5604e2250000000000000000000000000000000000000000000000000000000014806108735750610873826125a5565b92915050565b60606001805461088890613c2f565b80601f01602080910402602001604051908101604052809291908181526020018280546108b490613c2f565b80156109015780601f106108d657610100808354040283529160200191610901565b820191906000526020600020905b8154815290600101906020018083116108e457829003601f168201915b5050505050905090565b600061091682612640565b506000908152600560205260409020546001600160a01b031690565b600061093d8261168c565b9050806001600160a01b0316836001600160a01b031614156109cc5760405162461bcd60e51b815260206004820152602160248201527f4552433732313a20617070726f76616c20746f2063757272656e74206f776e6560448201527f720000000000000000000000000000000000000000000000000000000000000060648201526084015b60405180910390fd5b336001600160a01b03821614806109e857506109e881336107d2565b610a5a5760405162461bcd60e51b815260206004820152603e60248201527f4552433732313a20617070726f76652063616c6c6572206973206e6f7420746f60448201527f6b656e206f776e6572206e6f7220617070726f76656420666f7220616c6c000060648201526084016109c3565b610a6483836126a7565b505050565b600f546001600160a01b03163314610ad25760405162461bcd60e51b815260206004820152602660248201527f4f6e6c79206f70657261746f722063616e2061636365737320746869732066756044820152653731ba34b7b760d11b60648201526084016109c3565b60008311610b2d5760405162461bcd60e51b815260206004820152602260248201527f4d616b652073757265207468652070726963652069736e2774206e6567617469604482015261766560f01b60648201526084016109c3565b600d54831015610b8f5760405162461bcd60e51b815260206004820152602760248201527f596f75206e65656420746f20696e636c756465206c697374696e6720707269636044820152660ca40d2dc40e8f60cb1b60648201526084016109c3565b6000848152601060205260409020600201546001600160a01b03868116911614610c065760405162461bcd60e51b815260206004820152602260248201527f4f6e6c79206e667420686f6c6465722063616e20746f67676c65206c697374696044820152616e6760f01b60648201526084016109c3565b610c138530868585612715565b604080513081526001600160a01b038716602082015290810184905260016060820152426080820152600060a082015284907f378784ddcaa3147ea35876077abf6706d3c0ee198a49af621c36d249859384109060c00160405180910390a250506000918252601060205260409091206003810191909155600401805460ff1916600117905550565b600081815260076020526040812054610873565b60008111610d0b5760405162461bcd60e51b815260206004820152602260248201527f4d616b652073757265207468652070726963652069736e2774206e6567617469604482015261766560f01b60648201526084016109c3565b600d54811015610d6d5760405162461bcd60e51b815260206004820152602760248201527f596f75206e65656420746f20696e636c756465206c697374696e6720707269636044820152660ca40d2dc40e8f60cb1b60648201526084016109c3565b60008281526010602052604090206002015433906001600160a01b03168114610de35760405162461bcd60e51b815260206004820152602260248201527f4f6e6c79206e667420686f6c6465722063616e20746f67676c65206c697374696044820152616e6760f01b60648201526084016109c3565b610ded3084610932565b610df881308561279c565b604080513081526001600160a01b038316602082015290810183905260016060820152426080820152600060a082015283907f378784ddcaa3147ea35876077abf6706d3c0ee198a49af621c36d249859384109060c00160405180910390a2506000918252601060205260409091206003810191909155600401805460ff19166001179055565b610e8933826127bc565b610efb5760405162461bcd60e51b815260206004820152602e60248201527f4552433732313a2063616c6c6572206973206e6f7420746f6b656e206f776e6560448201527f72206e6f7220617070726f76656400000000000000000000000000000000000060648201526084016109c3565b610a6483838361279c565b600f546001600160a01b03163314610f6f5760405162461bcd60e51b815260206004820152602660248201527f4f6e6c79206f70657261746f722063616e2061636365737320746869732066756044820152653731ba34b7b760d11b60648201526084016109c3565b6000818152601060205260409020600201546001600160a01b03838116911614610fe65760405162461bcd60e51b815260206004820152602260248201527f4f6e6c79206e667420686f6c6465722063616e20746f67676c65206c697374696044820152616e6760f01b60648201526084016109c3565b610ff130838361279c565b6000908152601060205260409020600401805460ff1916905550565b600061101761283a565b905090565b600c546060906001600160a01b0316331461109f5760405162461bcd60e51b815260206004820152602360248201527f4f6e6c79206f776e65722063616e20726574726965766520686f6c646572206460448201527f617461000000000000000000000000000000000000000000000000000000000060648201526084016109c3565b60006110aa600a5490565b905060008167ffffffffffffffff8111156110c7576110c76137df565b60405190808252806020026020018201604052801561112e57816020015b6040805160e08101825260008082526020808301829052928201819052606082018190526080820181905260a0820181905260c082015282526000199092019101816110e55790505b5090506000805b8381101561130857600061114a826001613c80565b600081815260106020526040902090915087801561116c5750600481015460ff165b80156111a0575060018101546001600160a01b038a8116911614806111a0575060028101546001600160a01b038a81169116145b1561122a576040805160e0810182528254815260018301546001600160a01b039081166020830152600284015481169282019290925260038301546060820152600483015460ff1615156080820152600583015460a0820152600683015490911660c0820152855186908690811061121a5761121a613c98565b60200260200101819052506112e6565b87158015611260575060018101546001600160a01b038a811691161480611260575060028101546001600160a01b038a81169116145b156112e6576040805160e0810182528254815260018301546001600160a01b039081166020830152600284015481169282019290925260038301546060820152600483015460ff1615156080820152600583015460a0820152600683015490911660c082015285518690869081106112da576112da613c98565b60200260200101819052505b6112f1600185613c80565b93505050808061130090613cae565b915050611135565b509095945050505050565b610a648383836040518060200160405280600081525061202d565b600061133e600a80546001019055565b6000611349600a5490565b90506113553382612961565b61135f818461297b565b600e546040805160e08101825283815230602080830191825233838501908152606084019586526000608085018181524260a0870190815260c087018381528a84526010909552969091209451855592516001850180546001600160a01b03199081166001600160a01b03938416179091559151600286018054841691831691909117905595516003850155915160048401805460ff1916911515919091179055925160058301559151600690910180549092169216919091179055610873565b6060600061142d600a5490565b905060008060005b838110156114c557336010600061144d846001613c80565b81526020810191909152604001600020600101546001600160a01b031614806114a057503360106000611481846001613c80565b81526020810191909152604001600020600201546001600160a01b0316145b156114b3576114b0600184613c80565b92505b806114bd81613cae565b915050611435565b5060008267ffffffffffffffff8111156114e1576114e16137df565b60405190808252806020026020018201604052801561154857816020015b6040805160e08101825260008082526020808301829052928201819052606082018190526080820181905260a0820181905260c082015282526000199092019101816114ff5790505b50905060005b84811015611683573360106000611566846001613c80565b81526020810191909152604001600020600101546001600160a01b031614806115b95750336010600061159a846001613c80565b81526020810191909152604001600020600201546001600160a01b0316145b156116715760006115cb826001613c80565b600081815260106020908152604091829020825160e0810184528154815260018201546001600160a01b0390811693820193909352600282015483169381019390935260038101546060840152600481015460ff1615156080840152600581015460a0840152600681015490911660c083015285519293509185908790811061165657611656613c98565b602090810291909101015261166c600186613c80565b945050505b8061167b81613cae565b91505061154e565b50949350505050565b6000818152600360205260408120546001600160a01b0316806108735760405162461bcd60e51b815260206004820152601860248201527f4552433732313a20696e76616c696420746f6b656e204944000000000000000060448201526064016109c3565b600c546001600160a01b031633146117715760405162461bcd60e51b815260206004820152602160248201527f4f6e6c79206f776e65722063616e2075706461746520666c6f6f72207072696360448201527f650000000000000000000000000000000000000000000000000000000000000060648201526084016109c3565b600e55565b60006001600160a01b0382166117f45760405162461bcd60e51b815260206004820152602960248201527f4552433732313a2061646472657373207a65726f206973206e6f74206120766160448201527f6c6964206f776e6572000000000000000000000000000000000000000000000060648201526084016109c3565b506001600160a01b031660009081526004602052604090205490565b61181c84848484612a24565b50505050565b600f546001600160a01b0316331461188b5760405162461bcd60e51b815260206004820152602660248201527f4f6e6c79206f70657261746f722063616e2061636365737320746869732066756044820152653731ba34b7b760d11b60648201526084016109c3565b600081815260106020526040902060048101805460ff1916905560020180546001600160a01b0319166001600160a01b038416179055600b805460010190556118d530838361279c565b600090815260106020526040902042600582015560060180546001600160a01b031916905550565b60606002805461088890613c2f565b60008181526010602052604090206003810154600282015460049092015490916001600160a01b03169060ff16151560011461198a5760405162461bcd60e51b815260206004820152601260248201527f4e4654206973206e6f74206f6e2073616c65000000000000000000000000000060448201526064016109c3565b6011546040517fdd62ed3e0000000000000000000000000000000000000000000000000000000081523360048201819052306024830152916001600160a01b031690600090829063dd62ed3e9060440160206040518083038186803b1580156119f257600080fd5b505afa158015611a06573d6000803e3d6000fd5b505050506040513d601f19601f82011682018060405250810190611a2a9190613cc9565b905060008111611a7c5760405162461bcd60e51b815260206004820152601660248201527f496e73756666696369656e7420616c6c6f77616e63650000000000000000000060448201526064016109c3565b6040517f70a0823100000000000000000000000000000000000000000000000000000000815233600482015285906001600160a01b038416906370a082319060240160206040518083038186803b158015611ad657600080fd5b505afa158015611aea573d6000803e3d6000fd5b505050506040513d601f19601f82011682018060405250810190611b0e9190613cc9565b1015611b5c5760405162461bcd60e51b815260206004820152601460248201527f496e73756666696369656e74207061796d656e7400000000000000000000000060448201526064016109c3565b600086815260106020526040902060050154421115611c07576000868152601060205260409020600601546001600160a01b03848116911614611c075760405162461bcd60e51b815260206004820152602660248201527f4e46542063757272656e746c7920726573657276656420627920736f6d656f6e60448201527f6520656c7365000000000000000000000000000000000000000000000000000060648201526084016109c3565b600086815260106020526040902060048101805460ff1916905560020180546001600160a01b0319166001600160a01b038516179055600b805460010190556040516323b872dd60e01b81523360048201526001600160a01b038581166024830152604482018790528316906323b872dd90606401602060405180830381600087803b158015611c9657600080fd5b505af1158015611caa573d6000803e3d6000fd5b505050506040513d601f19601f82011682018060405250810190611cce9190613ce2565b50600c54600d546040516323b872dd60e01b81523360048201526001600160a01b0392831660248201526044810191909152908316906323b872dd90606401602060405180830381600087803b158015611d2757600080fd5b505af1158015611d3b573d6000803e3d6000fd5b505050506040513d601f19601f82011682018060405250810190611d5f9190613ce2565b50611d6b30848861279c565b5050506000928352505060106020526040902042600582015560060180546001600160a01b0319169055565b611da2338383612bb1565b5050565b60606000611db3600a5490565b905060008167ffffffffffffffff811115611dd057611dd06137df565b604051908082528060200260200182016040528015611e3757816020015b6040805160e08101825260008082526020808301829052928201819052606082018190526080820181905260a0820181905260c08201528252600019909201910181611dee5790505b5090506000805b83811015611fa7576000611e53826001613c80565b6000818152601060205260409020909150878015611e755750600481015460ff165b15611eff576040805160e0810182528254815260018301546001600160a01b039081166020830152600284015481169282019290925260038301546060820152600483015460ff1615156080820152600583015460a0820152600683015490911660c08201528551869086908110611eef57611eef613c98565b6020026020010181905250611f85565b87611f85576040805160e0810182528254815260018301546001600160a01b039081166020830152600284015481169282019290925260038301546060820152600483015460ff1615156080820152600583015460a0820152600683015490911660c08201528551869086908110611f7957611f79613c98565b60200260200101819052505b611f90600185613c80565b935050508080611f9f90613cae565b915050611e3e565b5090949350505050565b600c546001600160a01b0316331461200b5760405162461bcd60e51b815260206004820152601e60248201527f4f6e6c79206f776e65722063616e20757064617465206f70657261746f72000060448201526064016109c3565b600f80546001600160a01b0319166001600160a01b0392909216919091179055565b61203733836127bc565b6120a95760405162461bcd60e51b815260206004820152602e60248201527f4552433732313a2063616c6c6572206973206e6f7420746f6b656e206f776e6560448201527f72206e6f7220617070726f76656400000000000000000000000000000000000060648201526084016109c3565b61181c84848484612c80565b6000818152601060205260409020600201546001600160a01b031633146121295760405162461bcd60e51b815260206004820152602260248201527f4f6e6c79206e667420686f6c6465722063616e20746f67676c65206c697374696044820152616e6760f01b60648201526084016109c3565b61213430338361279c565b6000908152601060205260409020600401805460ff19169055565b600c546001600160a01b031633146121cf5760405162461bcd60e51b815260206004820152602360248201527f4f6e6c79206f776e65722063616e20757064617465206c697374696e6720707260448201527f696365000000000000000000000000000000000000000000000000000000000060648201526084016109c3565b600d55565b60606121df82612640565b600082815260086020526040812080546121f890613c2f565b80601f016020809104026020016040519081016040528092919081815260200182805461222490613c2f565b80156122715780601f1061224657610100808354040283529160200191612271565b820191906000526020600020905b81548152906001019060200180831161225457829003601f168201915b50505050509050600061228f60408051602081019091526000815290565b90508051600014156122a2575092915050565b8151156122d45780826040516020016122bc929190613cff565b60405160208183030381529060405292505050919050565b6122dd84612cfe565b949350505050565b6040805160e081018252600080825260208201819052918101829052606081018290526080810182905260a0810182905260c08101919091526000612329600a5490565b600090815260106020908152604091829020825160e0810184528154815260018201546001600160a01b0390811693820193909352600282015483169381019390935260038101546060840152600481015460ff1615156080840152600581015460a0840152600601541660c082015292915050565b600f546001600160a01b031633146124085760405162461bcd60e51b815260206004820152602660248201527f4f6e6c79206f70657261746f722063616e2061636365737320746869732066756044820152653731ba34b7b760d11b60648201526084016109c3565b612416600a80546001019055565b6000612421600a5490565b905061242d8382612961565b612437818361297b565b600e546040805160e0810182528381523060208083019182526001600160a01b03978816838501908152606084019586526000608085018181524260a0870190815260c087018381529983526010909452959020935184559151600184018054918a166001600160a01b03199283161790559151600284018054918a1691841691909117905593516003830155915160048201805491151560ff19909216919091179055915160058301559151600690910180549190941691161790915550565b600c546001600160a01b031633146125785760405162461bcd60e51b815260206004820152602560248201527f4f6e6c79206f776e65722063616e2075706461746520726563656976696e672060448201527f746f6b656e00000000000000000000000000000000000000000000000000000060648201526084016109c3565b601180546001600160a01b0319166001600160a01b0392909216919091179055565b6000611017600a5490565b60006001600160e01b031982167f80ac58cd00000000000000000000000000000000000000000000000000000000148061260857506001600160e01b031982167f5b5e139f00000000000000000000000000000000000000000000000000000000145b8061087357507f01ffc9a7000000000000000000000000000000000000000000000000000000006001600160e01b0319831614610873565b6000818152600360205260409020546001600160a01b03166126a45760405162461bcd60e51b815260206004820152601860248201527f4552433732313a20696e76616c696420746f6b656e204944000000000000000060448201526064016109c3565b50565b600081815260056020526040902080546001600160a01b0319166001600160a01b03841690811790915581906126dc8261168c565b6001600160a01b03167f8c5be1e5ebec7d5bd14f71427d1e84f3dd0314c0f7b2291e5b200ac8c7c3b92560405160405180910390a45050565b600f546001600160a01b0316331461277e5760405162461bcd60e51b815260206004820152602660248201527f4f6e6c79206f70657261746f722063616e2061636365737320746869732066756044820152653731ba34b7b760d11b60648201526084016109c3565b61278a33848484612a24565b61279585858561279c565b5050505050565b600081815260076020526040902080546001019055610a64838383612d72565b6000806127c88361168c565b9050806001600160a01b0316846001600160a01b0316148061280f57506001600160a01b0380821660009081526006602090815260408083209388168352929052205460ff165b806122dd5750836001600160a01b03166128288461090b565b6001600160a01b031614949350505050565b6000306001600160a01b037f00000000000000000000000000000000000000000000000000000000000000001614801561289357507f000000000000000000000000000000000000000000000000000000000000000046145b156128bd57507f000000000000000000000000000000000000000000000000000000000000000090565b50604080517f00000000000000000000000000000000000000000000000000000000000000006020808301919091527f0000000000000000000000000000000000000000000000000000000000000000828401527f000000000000000000000000000000000000000000000000000000000000000060608301524660808301523060a0808401919091528351808403909101815260c0909201909252805191012090565b611da2828260405180602001604052806000815250612f3f565b6000828152600360205260409020546001600160a01b0316612a055760405162461bcd60e51b815260206004820152602e60248201527f45524337323155524953746f726167653a2055524920736574206f66206e6f6e60448201527f6578697374656e7420746f6b656e00000000000000000000000000000000000060648201526084016109c3565b60008281526008602090815260409091208251610a6492840190613649565b81421115612a745760405162461bcd60e51b815260206004820152601e60248201527f4552433732315065726d69743a206578706972656420646561646c696e65000060448201526064016109c3565b60008381526007602090815260408083205481517f0000000000000000000000000000000000000000000000000000000000000000818501526001600160a01b0389168184015260608101889052608081019190915260a08082018790528251808303909101815260c0909101909152805191012090612af382612fbd565b90506000612b018285613026565b50905060006001600160a01b03821615801590612b235750612b2382886127bc565b90508080612b3f5750612b3f612b388861168c565b848761306c565b80612b515750612b51612b388861090b565b612b9d5760405162461bcd60e51b815260206004820152601f60248201527f4552433732315065726d69743a20696e76616c6964207369676e61747572650060448201526064016109c3565b612ba788886126a7565b5050505050505050565b816001600160a01b0316836001600160a01b03161415612c135760405162461bcd60e51b815260206004820152601960248201527f4552433732313a20617070726f766520746f2063616c6c65720000000000000060448201526064016109c3565b6001600160a01b03838116600081815260066020908152604080832094871680845294825291829020805460ff191686151590811790915591519182527f17307eab39ab6107e8899845ad3d59bd9653f200f220920489ca2b5937696c31910160405180910390a3505050565b612c8b84848461279c565b612c9784848484613190565b61181c5760405162461bcd60e51b815260206004820152603260248201527f4552433732313a207472616e7366657220746f206e6f6e20455243373231526560448201527131b2b4bb32b91034b6b83632b6b2b73a32b960711b60648201526084016109c3565b6060612d0982612640565b6000612d2060408051602081019091526000815290565b90506000815111612d405760405180602001604052806000815250612d6b565b80612d4a846132e8565b604051602001612d5b929190613cff565b6040516020818303038152906040525b9392505050565b826001600160a01b0316612d858261168c565b6001600160a01b031614612e015760405162461bcd60e51b815260206004820152602560248201527f4552433732313a207472616e736665722066726f6d20696e636f72726563742060448201527f6f776e657200000000000000000000000000000000000000000000000000000060648201526084016109c3565b6001600160a01b038216612e7c5760405162461bcd60e51b8152602060048201526024808201527f4552433732313a207472616e7366657220746f20746865207a65726f2061646460448201527f726573730000000000000000000000000000000000000000000000000000000060648201526084016109c3565b612e876000826126a7565b6001600160a01b0383166000908152600460205260408120805460019290612eb0908490613d2e565b90915550506001600160a01b0382166000908152600460205260408120805460019290612ede908490613c80565b909155505060008181526003602052604080822080546001600160a01b0319166001600160a01b0386811691821790925591518493918716917fddf252ad1be2c89b69c2b068fc378daa952ba7f163c4a11628f55a4df523b3ef91a4505050565b612f49838361341a565b612f566000848484613190565b610a645760405162461bcd60e51b815260206004820152603260248201527f4552433732313a207472616e7366657220746f206e6f6e20455243373231526560448201527131b2b4bb32b91034b6b83632b6b2b73a32b960711b60648201526084016109c3565b6000610873612fca61283a565b836040517f19010000000000000000000000000000000000000000000000000000000000006020820152602281018390526042810182905260009060620160405160208183030381529060405280519060200120905092915050565b60008082516041141561305d5760208301516040840151606085015160001a6130518782858561355c565b94509450505050613065565b506000905060025b9250929050565b6000806000856001600160a01b0316631626ba7e60e01b8686604051602401613096929190613d45565b60408051601f198184030181529181526020820180517bffffffffffffffffffffffffffffffffffffffffffffffffffffffff166001600160e01b03199094169390931790925290516130e99190613d5e565b600060405180830381855afa9150503d8060008114613124576040519150601f19603f3d011682016040523d82523d6000602084013e613129565b606091505b509150915081801561313c575080516020145b8015613186575080517f1626ba7e000000000000000000000000000000000000000000000000000000009061317a9083016020908101908401613d7a565b6001600160e01b031916145b9695505050505050565b60006001600160a01b0384163b156132dd57604051630a85bd0160e11b81526001600160a01b0385169063150b7a02906131d4903390899088908890600401613d97565b602060405180830381600087803b1580156131ee57600080fd5b505af192505050801561321e575060408051601f3d908101601f1916820190925261321b91810190613d7a565b60015b6132c3573d80801561324c576040519150601f19603f3d011682016040523d82523d6000602084013e613251565b606091505b5080516132bb5760405162461bcd60e51b815260206004820152603260248201527f4552433732313a207472616e7366657220746f206e6f6e20455243373231526560448201527131b2b4bb32b91034b6b83632b6b2b73a32b960711b60648201526084016109c3565b805181602001fd5b6001600160e01b031916630a85bd0160e11b1490506122dd565b506001949350505050565b60608161332857505060408051808201909152600181527f3000000000000000000000000000000000000000000000000000000000000000602082015290565b8160005b8115613352578061333c81613cae565b915061334b9050600a83613ddf565b915061332c565b60008167ffffffffffffffff81111561336d5761336d6137df565b6040519080825280601f01601f191660200182016040528015613397576020820181803683370190505b5090505b84156122dd576133ac600183613d2e565b91506133b9600a86613df3565b6133c4906030613c80565b60f81b8183815181106133d9576133d9613c98565b60200101907effffffffffffffffffffffffffffffffffffffffffffffffffffffffffffff1916908160001a905350613413600a86613ddf565b945061339b565b6001600160a01b0382166134705760405162461bcd60e51b815260206004820181905260248201527f4552433732313a206d696e7420746f20746865207a65726f206164647265737360448201526064016109c3565b6000818152600360205260409020546001600160a01b0316156134d55760405162461bcd60e51b815260206004820152601c60248201527f4552433732313a20746f6b656e20616c7265616479206d696e7465640000000060448201526064016109c3565b6001600160a01b03821660009081526004602052604081208054600192906134fe908490613c80565b909155505060008181526003602052604080822080546001600160a01b0319166001600160a01b03861690811790915590518392907fddf252ad1be2c89b69c2b068fc378daa952ba7f163c4a11628f55a4df523b3ef908290a45050565b6000807f7fffffffffffffffffffffffffffffff5d576e7357a4501ddfe92f46681b20a08311156135935750600090506003613640565b8460ff16601b141580156135ab57508460ff16601c14155b156135bc5750600090506004613640565b6040805160008082526020820180845289905260ff881692820192909252606081018690526080810185905260019060a0016020604051602081039080840390855afa158015613610573d6000803e3d6000fd5b5050604051601f1901519150506001600160a01b03811661363957600060019250925050613640565b9150600090505b94509492505050565b82805461365590613c2f565b90600052602060002090601f01602090048101928261367757600085556136bd565b82601f1061369057805160ff19168380011785556136bd565b828001600101855582156136bd579182015b828111156136bd5782518255916020019190600101906136a2565b506136c99291506136cd565b5090565b5b808211156136c957600081556001016136ce565b6001600160e01b0319811681146126a457600080fd5b60006020828403121561370a57600080fd5b8135612d6b816136e2565b60005b83811015613730578181015183820152602001613718565b8381111561181c5750506000910152565b60008151808452613759816020860160208601613715565b601f01601f19169290920160200192915050565b602081526000612d6b6020830184613741565b60006020828403121561379257600080fd5b5035919050565b80356001600160a01b03811681146137b057600080fd5b919050565b600080604083850312156137c857600080fd5b6137d183613799565b946020939093013593505050565b634e487b7160e01b600052604160045260246000fd5b600082601f83011261380657600080fd5b813567ffffffffffffffff80821115613821576138216137df565b604051601f8301601f19908116603f01168101908282118183101715613849576138496137df565b8160405283815286602085880101111561386257600080fd5b836020870160208301376000602085830101528094505050505092915050565b600080600080600060a0868803121561389a57600080fd5b6138a386613799565b9450602086013593506040860135925060608601359150608086013567ffffffffffffffff8111156138d457600080fd5b6138e0888289016137f5565b9150509295509295909350565b6000806040838503121561390057600080fd5b50508035926020909101359150565b60008060006060848603121561392457600080fd5b61392d84613799565b925061393b60208501613799565b9150604084013590509250925092565b80151581146126a457600080fd5b6000806040838503121561396c57600080fd5b61397583613799565b915060208301356139858161394b565b809150509250929050565b6020808252825182820181905260009190848201906040850190845b81811015613a2457613a118385518051825260208101516001600160a01b0380821660208501528060408401511660408501526060830151606085015260808301511515608085015260a083015160a08501528060c08401511660c085015250505050565b9284019260e092909201916001016139ac565b50909695505050505050565b600060208284031215613a4257600080fd5b813567ffffffffffffffff811115613a5957600080fd5b6122dd848285016137f5565b600060208284031215613a7757600080fd5b612d6b82613799565b60008060008060808587031215613a9657600080fd5b613a9f85613799565b93506020850135925060408501359150606085013567ffffffffffffffff811115613ac957600080fd5b613ad5878288016137f5565b91505092959194509250565b60e0810161087382848051825260208101516001600160a01b0380821660208501528060408401511660408501526060830151606085015260808301511515608085015260a083015160a08501528060c08401511660c085015250505050565b600060208284031215613b5357600080fd5b8135612d6b8161394b565b60008060008060808587031215613b7457600080fd5b613b7d85613799565b9350613b8b60208601613799565b925060408501359150606085013567ffffffffffffffff811115613ac957600080fd5b60008060408385031215613bc157600080fd5b613bca83613799565b9150602083013567ffffffffffffffff811115613be657600080fd5b613bf2858286016137f5565b9150509250929050565b60008060408385031215613c0f57600080fd5b613c1883613799565b9150613c2660208401613799565b90509250929050565b600181811c90821680613c4357607f821691505b60208210811415613c6457634e487b7160e01b600052602260045260246000fd5b50919050565b634e487b7160e01b600052601160045260246000fd5b60008219821115613c9357613c93613c6a565b500190565b634e487b7160e01b600052603260045260246000fd5b6000600019821415613cc257613cc2613c6a565b5060010190565b600060208284031215613cdb57600080fd5b5051919050565b600060208284031215613cf457600080fd5b8151612d6b8161394b565b60008351613d11818460208801613715565b835190830190613d25818360208801613715565b01949350505050565b600082821015613d4057613d40613c6a565b500390565b8281526040602082015260006122dd6040830184613741565b60008251613d70818460208701613715565b9190910192915050565b600060208284031215613d8c57600080fd5b8151612d6b816136e2565b60006001600160a01b038087168352808616602084015250836040830152608060608301526131866080830184613741565b634e487b7160e01b600052601260045260246000fd5b600082613dee57613dee613dc9565b500490565b600082613e0257613e02613dc9565b50069056fea264697066735822122036d1a6043a34a9dcfe5a35b503e0f312514346a55f8d48cc8e57e0cf526ea97b64736f6c63430008090033",
    "linkReferences": {},
    "deployedLinkReferences": {}
}