{
    "_format": "hh-sol-artifact-1",
    "contractName": "NFTMarketplace",
    "sourceName": "contracts/NFTMarketplace.sol",
    "abi": [
        {
            "inputs": [
                {
                    "internalType": "address",
                    "name": "_operator",
                    "type": "address"
                },
                {
                    "internalType": "address",
                    "name": "_receivingToken",
                    "type": "address"
                }
            ],
            "stateMutability": "nonpayable",
            "type": "constructor"
        },
        {
            "anonymous": false,
            "inputs": [
                {
                    "indexed": true,
                    "internalType": "address",
                    "name": "owner",
                    "type": "address"
                },
                {
                    "indexed": true,
                    "internalType": "address",
                    "name": "approved",
                    "type": "address"
                },
                {
                    "indexed": true,
                    "internalType": "uint256",
                    "name": "tokenId",
                    "type": "uint256"
                }
            ],
            "name": "Approval",
            "type": "event"
        },
        {
            "anonymous": false,
            "inputs": [
                {
                    "indexed": true,
                    "internalType": "address",
                    "name": "owner",
                    "type": "address"
                },
                {
                    "indexed": true,
                    "internalType": "address",
                    "name": "operator",
                    "type": "address"
                },
                {
                    "indexed": false,
                    "internalType": "bool",
                    "name": "approved",
                    "type": "bool"
                }
            ],
            "name": "ApprovalForAll",
            "type": "event"
        },
        {
            "anonymous": false,
            "inputs": [
                {
                    "indexed": true,
                    "internalType": "uint256",
                    "name": "tokenId",
                    "type": "uint256"
                },
                {
                    "indexed": false,
                    "internalType": "address",
                    "name": "owner",
                    "type": "address"
                },
                {
                    "indexed": false,
                    "internalType": "address",
                    "name": "seller",
                    "type": "address"
                },
                {
                    "indexed": false,
                    "internalType": "uint256",
                    "name": "price",
                    "type": "uint256"
                },
                {
                    "indexed": false,
                    "internalType": "bool",
                    "name": "currentlyListed",
                    "type": "bool"
                },
                {
                    "indexed": false,
                    "internalType": "string",
                    "name": "tokenURI",
                    "type": "string"
                },
                {
                    "indexed": false,
                    "internalType": "uint256",
                    "name": "reservedUntil",
                    "type": "uint256"
                },
                {
                    "indexed": false,
                    "internalType": "address",
                    "name": "lastReservedBy",
                    "type": "address"
                }
            ],
            "name": "TokenListedSuccess",
            "type": "event"
        },
        {
            "anonymous": false,
            "inputs": [
                {
                    "indexed": true,
                    "internalType": "address",
                    "name": "from",
                    "type": "address"
                },
                {
                    "indexed": true,
                    "internalType": "address",
                    "name": "to",
                    "type": "address"
                },
                {
                    "indexed": true,
                    "internalType": "uint256",
                    "name": "tokenId",
                    "type": "uint256"
                }
            ],
            "name": "Transfer",
            "type": "event"
        },
        {
            "inputs": [],
            "name": "DOMAIN_SEPARATOR",
            "outputs": [
                {
                    "internalType": "bytes32",
                    "name": "",
                    "type": "bytes32"
                }
            ],
            "stateMutability": "view",
            "type": "function"
        },
        {
            "inputs": [
                {
                    "internalType": "address",
                    "name": "to",
                    "type": "address"
                },
                {
                    "internalType": "uint256",
                    "name": "tokenId",
                    "type": "uint256"
                }
            ],
            "name": "approve",
            "outputs": [],
            "stateMutability": "nonpayable",
            "type": "function"
        },
        {
            "inputs": [
                {
                    "internalType": "address",
                    "name": "owner",
                    "type": "address"
                }
            ],
            "name": "balanceOf",
            "outputs": [
                {
                    "internalType": "uint256",
                    "name": "",
                    "type": "uint256"
                }
            ],
            "stateMutability": "view",
            "type": "function"
        },
        {
            "inputs": [
                {
                    "internalType": "string",
                    "name": "tokenURI",
                    "type": "string"
                }
            ],
            "name": "createToken",
            "outputs": [
                {
                    "internalType": "uint256",
                    "name": "",
                    "type": "uint256"
                }
            ],
            "stateMutability": "payable",
            "type": "function"
        },
        {
            "inputs": [
                {
                    "internalType": "address",
                    "name": "recipient",
                    "type": "address"
                },
                {
                    "internalType": "string",
                    "name": "tokenURI",
                    "type": "string"
                }
            ],
            "name": "crossCreateToken",
            "outputs": [],
            "stateMutability": "payable",
            "type": "function"
        },
        {
            "inputs": [
                {
                    "internalType": "address",
                    "name": "recipient",
                    "type": "address"
                },
                {
                    "internalType": "uint256",
                    "name": "tokenId",
                    "type": "uint256"
                }
            ],
            "name": "crossDelistToken",
            "outputs": [],
            "stateMutability": "nonpayable",
            "type": "function"
        },
        {
            "inputs": [
                {
                    "internalType": "address",
                    "name": "recipient",
                    "type": "address"
                },
                {
                    "internalType": "uint256",
                    "name": "tokenId",
                    "type": "uint256"
                }
            ],
            "name": "crossExecuteSale",
            "outputs": [],
            "stateMutability": "nonpayable",
            "type": "function"
        },
        {
            "inputs": [
                {
                    "internalType": "address",
                    "name": "recipient",
                    "type": "address"
                },
                {
                    "internalType": "uint256",
                    "name": "tokenId",
                    "type": "uint256"
                },
                {
                    "internalType": "uint256",
                    "name": "price",
                    "type": "uint256"
                },
                {
                    "internalType": "uint256",
                    "name": "deadline",
                    "type": "uint256"
                },
                {
                    "internalType": "bytes",
                    "name": "signature",
                    "type": "bytes"
                }
            ],
            "name": "crossSetListToken",
            "outputs": [],
            "stateMutability": "nonpayable",
            "type": "function"
        },
        {
            "inputs": [
                {
                    "internalType": "uint256",
                    "name": "tokenId",
                    "type": "uint256"
                }
            ],
            "name": "delistToken",
            "outputs": [],
            "stateMutability": "nonpayable",
            "type": "function"
        },
        {
            "inputs": [
                {
                    "internalType": "uint256",
                    "name": "tokenId",
                    "type": "uint256"
                }
            ],
            "name": "executeSale",
            "outputs": [],
            "stateMutability": "payable",
            "type": "function"
        },
        {
            "inputs": [
                {
                    "internalType": "bool",
                    "name": "listedOnly",
                    "type": "bool"
                }
            ],
            "name": "getAllNFTs",
            "outputs": [
                {
                    "components": [
                        {
                            "internalType": "uint256",
                            "name": "tokenId",
                            "type": "uint256"
                        },
                        {
                            "internalType": "address payable",
                            "name": "owner",
                            "type": "address"
                        },
                        {
                            "internalType": "address payable",
                            "name": "seller",
                            "type": "address"
                        },
                        {
                            "internalType": "uint256",
                            "name": "price",
                            "type": "uint256"
                        },
                        {
                            "internalType": "bool",
                            "name": "currentlyListed",
                            "type": "bool"
                        },
                        {
                            "internalType": "string",
                            "name": "tokenURI",
                            "type": "string"
                        },
                        {
                            "internalType": "uint256",
                            "name": "reservedUntil",
                            "type": "uint256"
                        },
                        {
                            "internalType": "address",
                            "name": "lastReservedBy",
                            "type": "address"
                        }
                    ],
                    "internalType": "struct NFTMarketplace.ListedToken[]",
                    "name": "",
                    "type": "tuple[]"
                }
            ],
            "stateMutability": "view",
            "type": "function"
        },
        {
            "inputs": [
                {
                    "internalType": "uint256",
                    "name": "tokenId",
                    "type": "uint256"
                }
            ],
            "name": "getApproved",
            "outputs": [
                {
                    "internalType": "address",
                    "name": "",
                    "type": "address"
                }
            ],
            "stateMutability": "view",
            "type": "function"
        },
        {
            "inputs": [],
            "name": "getCurrentToken",
            "outputs": [
                {
                    "internalType": "uint256",
                    "name": "",
                    "type": "uint256"
                }
            ],
            "stateMutability": "view",
            "type": "function"
        },
        {
            "inputs": [],
            "name": "getFloorPrice",
            "outputs": [
                {
                    "internalType": "uint256",
                    "name": "",
                    "type": "uint256"
                }
            ],
            "stateMutability": "view",
            "type": "function"
        },
        {
            "inputs": [
                {
                    "internalType": "address",
                    "name": "holder",
                    "type": "address"
                },
                {
                    "internalType": "bool",
                    "name": "listedOnly",
                    "type": "bool"
                }
            ],
            "name": "getHolderNFTs",
            "outputs": [
                {
                    "components": [
                        {
                            "internalType": "uint256",
                            "name": "tokenId",
                            "type": "uint256"
                        },
                        {
                            "internalType": "address payable",
                            "name": "owner",
                            "type": "address"
                        },
                        {
                            "internalType": "address payable",
                            "name": "seller",
                            "type": "address"
                        },
                        {
                            "internalType": "uint256",
                            "name": "price",
                            "type": "uint256"
                        },
                        {
                            "internalType": "bool",
                            "name": "currentlyListed",
                            "type": "bool"
                        },
                        {
                            "internalType": "string",
                            "name": "tokenURI",
                            "type": "string"
                        },
                        {
                            "internalType": "uint256",
                            "name": "reservedUntil",
                            "type": "uint256"
                        },
                        {
                            "internalType": "address",
                            "name": "lastReservedBy",
                            "type": "address"
                        }
                    ],
                    "internalType": "struct NFTMarketplace.ListedToken[]",
                    "name": "",
                    "type": "tuple[]"
                }
            ],
            "stateMutability": "view",
            "type": "function"
        },
        {
            "inputs": [],
            "name": "getLatestIdToListedToken",
            "outputs": [
                {
                    "components": [
                        {
                            "internalType": "uint256",
                            "name": "tokenId",
                            "type": "uint256"
                        },
                        {
                            "internalType": "address payable",
                            "name": "owner",
                            "type": "address"
                        },
                        {
                            "internalType": "address payable",
                            "name": "seller",
                            "type": "address"
                        },
                        {
                            "internalType": "uint256",
                            "name": "price",
                            "type": "uint256"
                        },
                        {
                            "internalType": "bool",
                            "name": "currentlyListed",
                            "type": "bool"
                        },
                        {
                            "internalType": "string",
                            "name": "tokenURI",
                            "type": "string"
                        },
                        {
                            "internalType": "uint256",
                            "name": "reservedUntil",
                            "type": "uint256"
                        },
                        {
                            "internalType": "address",
                            "name": "lastReservedBy",
                            "type": "address"
                        }
                    ],
                    "internalType": "struct NFTMarketplace.ListedToken",
                    "name": "",
                    "type": "tuple"
                }
            ],
            "stateMutability": "view",
            "type": "function"
        },
        {
            "inputs": [],
            "name": "getListPrice",
            "outputs": [
                {
                    "internalType": "uint256",
                    "name": "",
                    "type": "uint256"
                }
            ],
            "stateMutability": "view",
            "type": "function"
        },
        {
            "inputs": [
                {
                    "internalType": "uint256",
                    "name": "tokenId",
                    "type": "uint256"
                }
            ],
            "name": "getListedTokenForId",
            "outputs": [
                {
                    "components": [
                        {
                            "internalType": "uint256",
                            "name": "tokenId",
                            "type": "uint256"
                        },
                        {
                            "internalType": "address payable",
                            "name": "owner",
                            "type": "address"
                        },
                        {
                            "internalType": "address payable",
                            "name": "seller",
                            "type": "address"
                        },
                        {
                            "internalType": "uint256",
                            "name": "price",
                            "type": "uint256"
                        },
                        {
                            "internalType": "bool",
                            "name": "currentlyListed",
                            "type": "bool"
                        },
                        {
                            "internalType": "string",
                            "name": "tokenURI",
                            "type": "string"
                        },
                        {
                            "internalType": "uint256",
                            "name": "reservedUntil",
                            "type": "uint256"
                        },
                        {
                            "internalType": "address",
                            "name": "lastReservedBy",
                            "type": "address"
                        }
                    ],
                    "internalType": "struct NFTMarketplace.ListedToken",
                    "name": "",
                    "type": "tuple"
                }
            ],
            "stateMutability": "view",
            "type": "function"
        },
        {
            "inputs": [],
            "name": "getMyNFTs",
            "outputs": [
                {
                    "components": [
                        {
                            "internalType": "uint256",
                            "name": "tokenId",
                            "type": "uint256"
                        },
                        {
                            "internalType": "address payable",
                            "name": "owner",
                            "type": "address"
                        },
                        {
                            "internalType": "address payable",
                            "name": "seller",
                            "type": "address"
                        },
                        {
                            "internalType": "uint256",
                            "name": "price",
                            "type": "uint256"
                        },
                        {
                            "internalType": "bool",
                            "name": "currentlyListed",
                            "type": "bool"
                        },
                        {
                            "internalType": "string",
                            "name": "tokenURI",
                            "type": "string"
                        },
                        {
                            "internalType": "uint256",
                            "name": "reservedUntil",
                            "type": "uint256"
                        },
                        {
                            "internalType": "address",
                            "name": "lastReservedBy",
                            "type": "address"
                        }
                    ],
                    "internalType": "struct NFTMarketplace.ListedToken[]",
                    "name": "",
                    "type": "tuple[]"
                }
            ],
            "stateMutability": "view",
            "type": "function"
        },
        {
            "inputs": [],
            "name": "getOperator",
            "outputs": [
                {
                    "internalType": "address",
                    "name": "",
                    "type": "address"
                }
            ],
            "stateMutability": "view",
            "type": "function"
        },
        {
            "inputs": [],
            "name": "getOwner",
            "outputs": [
                {
                    "internalType": "address",
                    "name": "",
                    "type": "address"
                }
            ],
            "stateMutability": "view",
            "type": "function"
        },
        {
            "inputs": [],
            "name": "getReceivingToken",
            "outputs": [
                {
                    "internalType": "address",
                    "name": "",
                    "type": "address"
                }
            ],
            "stateMutability": "view",
            "type": "function"
        },
        {
            "inputs": [
                {
                    "internalType": "address",
                    "name": "owner",
                    "type": "address"
                },
                {
                    "internalType": "address",
                    "name": "operator",
                    "type": "address"
                }
            ],
            "name": "isApprovedForAll",
            "outputs": [
                {
                    "internalType": "bool",
                    "name": "",
                    "type": "bool"
                }
            ],
            "stateMutability": "view",
            "type": "function"
        },
        {
            "inputs": [],
            "name": "name",
            "outputs": [
                {
                    "internalType": "string",
                    "name": "",
                    "type": "string"
                }
            ],
            "stateMutability": "view",
            "type": "function"
        },
        {
            "inputs": [
                {
                    "internalType": "uint256",
                    "name": "tokenId",
                    "type": "uint256"
                }
            ],
            "name": "nonces",
            "outputs": [
                {
                    "internalType": "uint256",
                    "name": "",
                    "type": "uint256"
                }
            ],
            "stateMutability": "view",
            "type": "function"
        },
        {
            "inputs": [
                {
                    "internalType": "uint256",
                    "name": "tokenId",
                    "type": "uint256"
                }
            ],
            "name": "ownerOf",
            "outputs": [
                {
                    "internalType": "address",
                    "name": "",
                    "type": "address"
                }
            ],
            "stateMutability": "view",
            "type": "function"
        },
        {
            "inputs": [
                {
                    "internalType": "address",
                    "name": "spender",
                    "type": "address"
                },
                {
                    "internalType": "uint256",
                    "name": "tokenId",
                    "type": "uint256"
                },
                {
                    "internalType": "uint256",
                    "name": "deadline",
                    "type": "uint256"
                },
                {
                    "internalType": "bytes",
                    "name": "signature",
                    "type": "bytes"
                }
            ],
            "name": "permit",
            "outputs": [],
            "stateMutability": "nonpayable",
            "type": "function"
        },
        {
            "inputs": [
                {
                    "internalType": "address",
                    "name": "from",
                    "type": "address"
                },
                {
                    "internalType": "address",
                    "name": "to",
                    "type": "address"
                },
                {
                    "internalType": "uint256",
                    "name": "tokenId",
                    "type": "uint256"
                }
            ],
            "name": "safeTransferFrom",
            "outputs": [],
            "stateMutability": "nonpayable",
            "type": "function"
        },
        {
            "inputs": [
                {
                    "internalType": "address",
                    "name": "from",
                    "type": "address"
                },
                {
                    "internalType": "address",
                    "name": "to",
                    "type": "address"
                },
                {
                    "internalType": "uint256",
                    "name": "tokenId",
                    "type": "uint256"
                },
                {
                    "internalType": "bytes",
                    "name": "data",
                    "type": "bytes"
                }
            ],
            "name": "safeTransferFrom",
            "outputs": [],
            "stateMutability": "nonpayable",
            "type": "function"
        },
        {
            "inputs": [
                {
                    "internalType": "address",
                    "name": "operator",
                    "type": "address"
                },
                {
                    "internalType": "bool",
                    "name": "approved",
                    "type": "bool"
                }
            ],
            "name": "setApprovalForAll",
            "outputs": [],
            "stateMutability": "nonpayable",
            "type": "function"
        },
        {
            "inputs": [
                {
                    "internalType": "uint256",
                    "name": "tokenId",
                    "type": "uint256"
                },
                {
                    "internalType": "uint256",
                    "name": "price",
                    "type": "uint256"
                }
            ],
            "name": "setListToken",
            "outputs": [],
            "stateMutability": "nonpayable",
            "type": "function"
        },
        {
            "inputs": [
                {
                    "internalType": "uint256",
                    "name": "tokenId",
                    "type": "uint256"
                },
                {
                    "internalType": "uint256",
                    "name": "price",
                    "type": "uint256"
                },
                {
                    "internalType": "uint256",
                    "name": "deadline",
                    "type": "uint256"
                },
                {
                    "internalType": "bytes",
                    "name": "signature",
                    "type": "bytes"
                }
            ],
            "name": "setListTokenGasless",
            "outputs": [],
            "stateMutability": "nonpayable",
            "type": "function"
        },
        {
            "inputs": [
                {
                    "internalType": "bytes4",
                    "name": "interfaceId",
                    "type": "bytes4"
                }
            ],
            "name": "supportsInterface",
            "outputs": [
                {
                    "internalType": "bool",
                    "name": "",
                    "type": "bool"
                }
            ],
            "stateMutability": "view",
            "type": "function"
        },
        {
            "inputs": [],
            "name": "symbol",
            "outputs": [
                {
                    "internalType": "string",
                    "name": "",
                    "type": "string"
                }
            ],
            "stateMutability": "view",
            "type": "function"
        },
        {
            "inputs": [
                {
                    "internalType": "uint256",
                    "name": "tokenId",
                    "type": "uint256"
                }
            ],
            "name": "tokenURI",
            "outputs": [
                {
                    "internalType": "string",
                    "name": "",
                    "type": "string"
                }
            ],
            "stateMutability": "view",
            "type": "function"
        },
        {
            "inputs": [
                {
                    "internalType": "address",
                    "name": "from",
                    "type": "address"
                },
                {
                    "internalType": "address",
                    "name": "to",
                    "type": "address"
                },
                {
                    "internalType": "uint256",
                    "name": "tokenId",
                    "type": "uint256"
                }
            ],
            "name": "transferFrom",
            "outputs": [],
            "stateMutability": "nonpayable",
            "type": "function"
        },
        {
            "inputs": [
                {
                    "internalType": "uint256",
                    "name": "_floorPrice",
                    "type": "uint256"
                }
            ],
            "name": "updateFloorPrice",
            "outputs": [],
            "stateMutability": "nonpayable",
            "type": "function"
        },
        {
            "inputs": [
                {
                    "internalType": "uint256",
                    "name": "_listPrice",
                    "type": "uint256"
                }
            ],
            "name": "updateListPrice",
            "outputs": [],
            "stateMutability": "nonpayable",
            "type": "function"
        },
        {
            "inputs": [
                {
                    "internalType": "address",
                    "name": "_operator",
                    "type": "address"
                }
            ],
            "name": "updateOperator",
            "outputs": [],
            "stateMutability": "nonpayable",
            "type": "function"
        },
        {
            "inputs": [
                {
                    "internalType": "address",
                    "name": "_receivingToken",
                    "type": "address"
                }
            ],
            "name": "updateReceivingToken",
            "outputs": [],
            "stateMutability": "nonpayable",
            "type": "function"
        }
    ],
    "bytecode": "0x6101606040527f49ecf333e5b8c95c40fdafc95c1ad136e8914a8fb55e9dc8bb01eaa83a2df9ad6101405261c350600d55620186a0600e553480156200004457600080fd5b506040516200479d3803806200479d833981016040819052620000679162000296565b6040518060400160405280600e81526020016d4e46544d61726b6574706c61636560901b815250604051806040016040528060048152602001634e46544d60e01b81525081604051806040016040528060018152602001603160f81b815250838360016000819055508160019080519060200190620000e8929190620001d3565b508051620000fe906002906020840190620001d3565b5050825160209384012082519284019290922060e08390526101008190524660a0818152604080517f8b73c3c69bb8fe3d512ecc4cf759cc79239f7b179b0ffacaa9a75d522b39400f818901819052818301979097526060810194909452608080850193909352308483018190528151808603909301835260c094850190915281519190960120905292909252610120525050600c8054336001600160a01b031991821617909155600f805482166001600160a01b03958616179055601180549091169290931691909117909155506200030b565b828054620001e190620002ce565b90600052602060002090601f01602090048101928262000205576000855562000250565b82601f106200022057805160ff191683800117855562000250565b8280016001018555821562000250579182015b828111156200025057825182559160200191906001019062000233565b506200025e92915062000262565b5090565b5b808211156200025e576000815560010162000263565b80516001600160a01b03811681146200029157600080fd5b919050565b60008060408385031215620002aa57600080fd5b620002b58362000279565b9150620002c56020840162000279565b90509250929050565b600181811c90821680620002e357607f821691505b602082108114156200030557634e487b7160e01b600052602260045260246000fd5b50919050565b60805160a05160c05160e051610100516101205161014051614437620003666000396000612c7c01526000612ecb01526000612f1a01526000612ef501526000612e4e01526000612e7801526000612ea201526144376000f3fe6080604052600436106102bb5760003560e01c806370a082311161016e578063b88d4fde116100cb578063d5b2d7121161007f578063e985e9c511610064578063e985e9c51461074a578063eb42dad914610793578063ef2d1746146107b357600080fd5b8063d5b2d71214610719578063e7f43c681461072c57600080fd5b8063c322579c116100b0578063c322579c146106c4578063c87b56dd146106e4578063d1a88ae51461070457600080fd5b8063b88d4fde14610684578063bed659bc146106a457600080fd5b806395d89b4111610122578063a22cb46511610107578063a22cb46514610624578063a83835c714610644578063ac7475ed1461066457600080fd5b806395d89b41146105fc5780639b1225c41461061157600080fd5b8063893d20e811610153578063893d20e8146105915780638e264590146105af5780638e9c072c146105dc57600080fd5b806370a0823114610551578063745a41bc1461057157600080fd5b80632d04fa8b1161021c57806345576f94116101d05780636352211e116101b55780636352211e146104fc57806368f1945f1461051c5780636eb7f72e1461053157600080fd5b806345576f94146104d4578063629cb2e4146104e757600080fd5b80633644e515116102015780633644e51514610472578063375ea4b71461048757806342842e0e146104b457600080fd5b80632d04fa8b146104345780632efcc8f11461045257600080fd5b8063141a468c116102735780631a1f1115116102585780631a1f1115146103df57806323b872dd146103ff5780632a33d6b21461041f57600080fd5b8063141a468c1461039157806317f500db146103bf57600080fd5b8063081812fc116102a4578063081812fc14610317578063095ea7b31461034f5780630e03aad01461037157600080fd5b806301ffc9a7146102c057806306fdde03146102f5575b600080fd5b3480156102cc57600080fd5b506102e06102db366004613c69565b6107c8565b60405190151581526020015b60405180910390f35b34801561030157600080fd5b5061030a61080c565b6040516102ec9190613cde565b34801561032357600080fd5b50610337610332366004613cf1565b61089e565b6040516001600160a01b0390911681526020016102ec565b34801561035b57600080fd5b5061036f61036a366004613d26565b6108c5565b005b34801561037d57600080fd5b5061036f61038c366004613df3565b6109fc565b34801561039d57600080fd5b506103b16103ac366004613cf1565b610c24565b6040519081526020016102ec565b3480156103cb57600080fd5b5061036f6103da366004613e5e565b610c38565b3480156103eb57600080fd5b5061036f6103fa366004613eb8565b610e00565b34801561040b57600080fd5b5061036f61041a366004613eda565b610fc4565b34801561042b57600080fd5b50600e546103b1565b34801561044057600080fd5b506011546001600160a01b0316610337565b34801561045e57600080fd5b5061036f61046d366004613d26565b61104b565b34801561047e57600080fd5b506103b1611152565b34801561049357600080fd5b506104a76104a2366004613f24565b611161565b6040516102ec9190613fd8565b3480156104c057600080fd5b5061036f6104cf366004613eda565b61159d565b6103b16104e236600461403a565b6115b8565b3480156104f357600080fd5b506104a76115f7565b34801561050857600080fd5b50610337610517366004613cf1565b61190f565b34801561052857600080fd5b50600d546103b1565b34801561053d57600080fd5b5061036f61054c366004613cf1565b611974565b34801561055d57600080fd5b506103b161056c36600461406f565b6119f9565b34801561057d57600080fd5b5061036f61058c36600461408a565b611a93565b34801561059d57600080fd5b50600c546001600160a01b0316610337565b3480156105bb57600080fd5b506105cf6105ca366004613cf1565b611aa5565b6040516102ec91906140d3565b3480156105e857600080fd5b5061036f6105f7366004613d26565b611c01565b34801561060857600080fd5b5061030a611cdc565b61036f61061f366004613cf1565b611ceb565b34801561063057600080fd5b5061036f61063f366004613f24565b612176565b34801561065057600080fd5b506104a761065f3660046140e6565b612185565b34801561067057600080fd5b5061036f61067f36600461406f565b6124d5565b34801561069057600080fd5b5061036f61069f366004614103565b612551565b3480156106b057600080fd5b5061036f6106bf366004613cf1565b6125d9565b3480156106d057600080fd5b5061036f6106df366004613cf1565b612673565b3480156106f057600080fd5b5061030a6106ff366004613cf1565b6126f8565b34801561071057600080fd5b506105cf612809565b61036f610727366004614153565b6128cc565b34801561073857600080fd5b50600f546001600160a01b0316610337565b34801561075657600080fd5b506102e06107653660046141a1565b6001600160a01b03918216600090815260066020908152604080832093909416825291909152205460ff1690565b34801561079f57600080fd5b5061036f6107ae36600461406f565b612972565b3480156107bf57600080fd5b506103b1612a14565b60006001600160e01b031982167f5604e225000000000000000000000000000000000000000000000000000000001480610806575061080682612a1f565b92915050565b60606001805461081b906141d4565b80601f0160208091040260200160405190810160405280929190818152602001828054610847906141d4565b80156108945780601f1061086957610100808354040283529160200191610894565b820191906000526020600020905b81548152906001019060200180831161087757829003601f168201915b5050505050905090565b60006108a982612aba565b506000908152600560205260409020546001600160a01b031690565b60006108d08261190f565b9050806001600160a01b0316836001600160a01b0316141561095f5760405162461bcd60e51b815260206004820152602160248201527f4552433732313a20617070726f76616c20746f2063757272656e74206f776e6560448201527f720000000000000000000000000000000000000000000000000000000000000060648201526084015b60405180910390fd5b336001600160a01b038216148061097b575061097b8133610765565b6109ed5760405162461bcd60e51b815260206004820152603e60248201527f4552433732313a20617070726f76652063616c6c6572206973206e6f7420746f60448201527f6b656e206f776e6572206e6f7220617070726f76656420666f7220616c6c00006064820152608401610956565b6109f78383612b21565b505050565b600f546001600160a01b03163314610a655760405162461bcd60e51b815260206004820152602660248201527f4f6e6c79206f70657261746f722063616e2061636365737320746869732066756044820152653731ba34b7b760d11b6064820152608401610956565b60008311610ac05760405162461bcd60e51b815260206004820152602260248201527f4d616b652073757265207468652070726963652069736e2774206e6567617469604482015261766560f01b6064820152608401610956565b600d54831015610b225760405162461bcd60e51b815260206004820152602760248201527f596f75206e65656420746f20696e636c756465206c697374696e6720707269636044820152660ca40d2dc40e8f60cb1b6064820152608401610956565b6000848152601060205260409020600201546001600160a01b03868116911614610b995760405162461bcd60e51b815260206004820152602260248201527f4f6e6c79206e667420686f6c6465722063616e20746f67676c65206c697374696044820152616e6760f01b6064820152608401610956565b610ba68530868585612b8f565b6000610bb1856126f8565b9050847ff9b6347d225a41fcd6b66bf31037b1e809a28c2eb145e406ba89cc2d835ec8d4308887600186426000604051610bf1979695949392919061420f565b60405180910390a25050506000918252601060205260409091206003810191909155600401805460ff1916600117905550565b600081815260076020526040812054610806565b60008311610c935760405162461bcd60e51b815260206004820152602260248201527f4d616b652073757265207468652070726963652069736e2774206e6567617469604482015261766560f01b6064820152608401610956565b600d54831015610cf55760405162461bcd60e51b815260206004820152602760248201527f596f75206e65656420746f20696e636c756465206c697374696e6720707269636044820152660ca40d2dc40e8f60cb1b6064820152608401610956565b60008481526010602052604090206002015433906001600160a01b03168114610d6b5760405162461bcd60e51b815260206004820152602260248201527f4f6e6c79206e667420686f6c6465722063616e20746f67676c65206c697374696044820152616e6760f01b6064820152608401610956565b610d7733868585612c16565b610d82813087612da3565b6000610d8d866126f8565b9050857ff9b6347d225a41fcd6b66bf31037b1e809a28c2eb145e406ba89cc2d835ec8d4308488600186426000604051610dcd979695949392919061420f565b60405180910390a2505050600092835250601060205260409091206003810191909155600401805460ff19166001179055565b60008111610e5b5760405162461bcd60e51b815260206004820152602260248201527f4d616b652073757265207468652070726963652069736e2774206e6567617469604482015261766560f01b6064820152608401610956565b600d54811015610ebd5760405162461bcd60e51b815260206004820152602760248201527f596f75206e65656420746f20696e636c756465206c697374696e6720707269636044820152660ca40d2dc40e8f60cb1b6064820152608401610956565b60008281526010602052604090206002015433906001600160a01b03168114610f335760405162461bcd60e51b815260206004820152602260248201527f4f6e6c79206e667420686f6c6465722063616e20746f67676c65206c697374696044820152616e6760f01b6064820152608401610956565b610f3d30846108c5565b610f48813085612da3565b6000610f53846126f8565b9050837ff9b6347d225a41fcd6b66bf31037b1e809a28c2eb145e406ba89cc2d835ec8d4308486600186426000604051610f93979695949392919061420f565b60405180910390a250506000918252601060205260409091206003810191909155600401805460ff19166001179055565b610fce3382612dc3565b6110405760405162461bcd60e51b815260206004820152602e60248201527f4552433732313a2063616c6c6572206973206e6f7420746f6b656e206f776e6560448201527f72206e6f7220617070726f7665640000000000000000000000000000000000006064820152608401610956565b6109f7838383612da3565b600f546001600160a01b031633146110b45760405162461bcd60e51b815260206004820152602660248201527f4f6e6c79206f70657261746f722063616e2061636365737320746869732066756044820152653731ba34b7b760d11b6064820152608401610956565b6000818152601060205260409020600201546001600160a01b0383811691161461112b5760405162461bcd60e51b815260206004820152602260248201527f4f6e6c79206e667420686f6c6465722063616e20746f67676c65206c697374696044820152616e6760f01b6064820152608401610956565b611136308383612da3565b6000908152601060205260409020600401805460ff1916905550565b600061115c612e41565b905090565b600c546060906001600160a01b031633146111e45760405162461bcd60e51b815260206004820152602360248201527f4f6e6c79206f776e65722063616e20726574726965766520686f6c646572206460448201527f61746100000000000000000000000000000000000000000000000000000000006064820152608401610956565b60006111ef600a5490565b905060008167ffffffffffffffff81111561120c5761120c613d50565b60405190808252806020026020018201604052801561127a57816020015b60408051610100810182526000808252602080830182905292820181905260608083018290526080830182905260a083015260c0820181905260e0820152825260001990920191018161122a5790505b5090506000805b8381101561159257600061129682600161427a565b60008181526010602052604090209091508780156112b85750600481015460ff165b80156112ec575060018101546001600160a01b038a8116911614806112ec575060028101546001600160a01b038a81169116145b156114155760408051610100810182528254815260018301546001600160a01b0390811660208301526002840154169181019190915260038201546060820152600482015460ff1615156080820152600582018054839160a0840191611351906141d4565b80601f016020809104026020016040519081016040528092919081815260200182805461137d906141d4565b80156113ca5780601f1061139f576101008083540402835291602001916113ca565b820191906000526020600020905b8154815290600101906020018083116113ad57829003601f168201915b5050509183525050600682015460208201526007909101546001600160a01b0316604090910152855186908690811061140557611405614292565b6020026020010181905250611570565b8715801561144b575060018101546001600160a01b038a81169116148061144b575060028101546001600160a01b038a81169116145b156115705760408051610100810182528254815260018301546001600160a01b0390811660208301526002840154169181019190915260038201546060820152600482015460ff1615156080820152600582018054839160a08401916114b0906141d4565b80601f01602080910402602001604051908101604052809291908181526020018280546114dc906141d4565b80156115295780601f106114fe57610100808354040283529160200191611529565b820191906000526020600020905b81548152906001019060200180831161150c57829003601f168201915b5050509183525050600682015460208201526007909101546001600160a01b0316604090910152855186908690811061156457611564614292565b60200260200101819052505b61157b60018561427a565b93505050808061158a906142a8565b915050611281565b509095945050505050565b6109f783838360405180602001604052806000815250612551565b60006115c8600a80546001019055565b60006115d3600a5490565b90506115df3382612f68565b6115e98184612f82565b61080681600e54338661302b565b60606000611604600a5490565b905060008060005b8381101561169c57336010600061162484600161427a565b81526020810191909152604001600020600101546001600160a01b031614806116775750336010600061165884600161427a565b81526020810191909152604001600020600201546001600160a01b0316145b1561168a5761168760018461427a565b92505b80611694816142a8565b91505061160c565b5060008267ffffffffffffffff8111156116b8576116b8613d50565b60405190808252806020026020018201604052801561172657816020015b60408051610100810182526000808252602080830182905292820181905260608083018290526080830182905260a083015260c0820181905260e082015282526000199092019101816116d65790505b50905060005b8481101561190657336010600061174484600161427a565b81526020810191909152604001600020600101546001600160a01b031614806117975750336010600061177884600161427a565b81526020810191909152604001600020600201546001600160a01b0316145b156118f45760006117a982600161427a565b6000818152601060209081526040918290208251610100810184528154815260018201546001600160a01b039081169382019390935260028201549092169282019290925260038201546060820152600482015460ff161515608082015260058201805493945091929091839160a084019190611825906141d4565b80601f0160208091040260200160405190810160405280929190818152602001828054611851906141d4565b801561189e5780601f106118735761010080835404028352916020019161189e565b820191906000526020600020905b81548152906001019060200180831161188157829003601f168201915b5050509183525050600682015460208201526007909101546001600160a01b031660409091015284518590879081106118d9576118d9614292565b60209081029190910101526118ef60018661427a565b945050505b806118fe816142a8565b91505061172c565b50949350505050565b6000818152600360205260408120546001600160a01b0316806108065760405162461bcd60e51b815260206004820152601860248201527f4552433732313a20696e76616c696420746f6b656e20494400000000000000006044820152606401610956565b600c546001600160a01b031633146119f45760405162461bcd60e51b815260206004820152602160248201527f4f6e6c79206f776e65722063616e2075706461746520666c6f6f72207072696360448201527f65000000000000000000000000000000000000000000000000000000000000006064820152608401610956565b600e55565b60006001600160a01b038216611a775760405162461bcd60e51b815260206004820152602960248201527f4552433732313a2061646472657373207a65726f206973206e6f74206120766160448201527f6c6964206f776e657200000000000000000000000000000000000000000000006064820152608401610956565b506001600160a01b031660009081526004602052604090205490565b611a9f84848484612c16565b50505050565b604080516101008101825260008082526020820181905291810182905260608082018390526080820183905260a082015260c0810182905260e08101919091526000828152601060209081526040918290208251610100810184528154815260018201546001600160a01b039081169382019390935260028201549092169282019290925260038201546060820152600482015460ff161515608082015260058201805491929160a084019190611b5b906141d4565b80601f0160208091040260200160405190810160405280929190818152602001828054611b87906141d4565b8015611bd45780601f10611ba957610100808354040283529160200191611bd4565b820191906000526020600020905b815481529060010190602001808311611bb757829003601f168201915b5050509183525050600682015460208201526007909101546001600160a01b031660409091015292915050565b600f546001600160a01b03163314611c6a5760405162461bcd60e51b815260206004820152602660248201527f4f6e6c79206f70657261746f722063616e2061636365737320746869732066756044820152653731ba34b7b760d11b6064820152608401610956565b600081815260106020526040902060048101805460ff1916905560020180546001600160a01b0319166001600160a01b038416179055600b80546001019055611cb4308383612da3565b600090815260106020526040902042600682015560070180546001600160a01b031916905550565b60606002805461081b906141d4565b60008181526010602052604090206003810154600282015460049092015490916001600160a01b03169060ff161515600114611d695760405162461bcd60e51b815260206004820152601260248201527f4e4654206973206e6f74206f6e2073616c6500000000000000000000000000006044820152606401610956565b6011546040517fdd62ed3e0000000000000000000000000000000000000000000000000000000081523360048201819052306024830152916001600160a01b031690600090829063dd62ed3e9060440160206040518083038186803b158015611dd157600080fd5b505afa158015611de5573d6000803e3d6000fd5b505050506040513d601f19601f82011682018060405250810190611e0991906142c3565b905060008111611e5b5760405162461bcd60e51b815260206004820152601660248201527f496e73756666696369656e7420616c6c6f77616e6365000000000000000000006044820152606401610956565b6040517f70a0823100000000000000000000000000000000000000000000000000000000815233600482015285906001600160a01b038416906370a082319060240160206040518083038186803b158015611eb557600080fd5b505afa158015611ec9573d6000803e3d6000fd5b505050506040513d601f19601f82011682018060405250810190611eed91906142c3565b1015611f3b5760405162461bcd60e51b815260206004820152601460248201527f496e73756666696369656e74207061796d656e740000000000000000000000006044820152606401610956565b600086815260106020526040902060060154421115611fe6576000868152601060205260409020600701546001600160a01b03848116911614611fe65760405162461bcd60e51b815260206004820152602660248201527f4e46542063757272656e746c7920726573657276656420627920736f6d656f6e60448201527f6520656c736500000000000000000000000000000000000000000000000000006064820152608401610956565b600086815260106020526040902060048101805460ff1916905560020180546001600160a01b0319166001600160a01b038516179055600b805460010190556040516323b872dd60e01b81523360048201526001600160a01b038581166024830152604482018790528316906323b872dd90606401602060405180830381600087803b15801561207557600080fd5b505af1158015612089573d6000803e3d6000fd5b505050506040513d601f19601f820116820180604052508101906120ad91906142dc565b50600c54600d546040516323b872dd60e01b81523360048201526001600160a01b0392831660248201526044810191909152908316906323b872dd90606401602060405180830381600087803b15801561210657600080fd5b505af115801561211a573d6000803e3d6000fd5b505050506040513d601f19601f8201168201806040525081019061213e91906142dc565b5061214a308488612da3565b5050506000928352505060106020526040902042600682015560070180546001600160a01b0319169055565b612181338383613122565b5050565b60606000612192600a5490565b905060008167ffffffffffffffff8111156121af576121af613d50565b60405190808252806020026020018201604052801561221d57816020015b60408051610100810182526000808252602080830182905292820181905260608083018290526080830182905260a083015260c0820181905260e082015282526000199092019101816121cd5790505b5090506000805b838110156124cb57600061223982600161427a565b600081815260106020526040902090915087801561225b5750600481015460ff165b156123845760408051610100810182528254815260018301546001600160a01b0390811660208301526002840154169181019190915260038201546060820152600482015460ff1615156080820152600582018054839160a08401916122c0906141d4565b80601f01602080910402602001604051908101604052809291908181526020018280546122ec906141d4565b80156123395780601f1061230e57610100808354040283529160200191612339565b820191906000526020600020905b81548152906001019060200180831161231c57829003601f168201915b5050509183525050600682015460208201526007909101546001600160a01b0316604090910152855186908690811061237457612374614292565b60200260200101819052506124a9565b876124a95760408051610100810182528254815260018301546001600160a01b0390811660208301526002840154169181019190915260038201546060820152600482015460ff1615156080820152600582018054839160a08401916123e9906141d4565b80601f0160208091040260200160405190810160405280929190818152602001828054612415906141d4565b80156124625780601f1061243757610100808354040283529160200191612462565b820191906000526020600020905b81548152906001019060200180831161244557829003601f168201915b5050509183525050600682015460208201526007909101546001600160a01b0316604090910152855186908690811061249d5761249d614292565b60200260200101819052505b6124b460018561427a565b9350505080806124c3906142a8565b915050612224565b5090949350505050565b600c546001600160a01b0316331461252f5760405162461bcd60e51b815260206004820152601e60248201527f4f6e6c79206f776e65722063616e20757064617465206f70657261746f7200006044820152606401610956565b600f80546001600160a01b0319166001600160a01b0392909216919091179055565b61255b3383612dc3565b6125cd5760405162461bcd60e51b815260206004820152602e60248201527f4552433732313a2063616c6c6572206973206e6f7420746f6b656e206f776e6560448201527f72206e6f7220617070726f7665640000000000000000000000000000000000006064820152608401610956565b611a9f848484846131f1565b6000818152601060205260409020600201546001600160a01b0316331461264d5760405162461bcd60e51b815260206004820152602260248201527f4f6e6c79206e667420686f6c6465722063616e20746f67676c65206c697374696044820152616e6760f01b6064820152608401610956565b612658303383612da3565b6000908152601060205260409020600401805460ff19169055565b600c546001600160a01b031633146126f35760405162461bcd60e51b815260206004820152602360248201527f4f6e6c79206f776e65722063616e20757064617465206c697374696e6720707260448201527f69636500000000000000000000000000000000000000000000000000000000006064820152608401610956565b600d55565b606061270382612aba565b6000828152600860205260408120805461271c906141d4565b80601f0160208091040260200160405190810160405280929190818152602001828054612748906141d4565b80156127955780601f1061276a57610100808354040283529160200191612795565b820191906000526020600020905b81548152906001019060200180831161277857829003601f168201915b5050505050905060006127b360408051602081019091526000815290565b90508051600014156127c6575092915050565b8151156127f85780826040516020016127e09291906142f9565b60405160208183030381529060405292505050919050565b6128018461326f565b949350505050565b604080516101008101825260008082526020820181905291810182905260608082018390526080820183905260a082015260c0810182905260e08101919091526000612854600a5490565b6000818152601060209081526040918290208251610100810184528154815260018201546001600160a01b039081169382019390935260028201549092169282019290925260038201546060820152600482015460ff1615156080820152600582018054939450909260a084019190611b5b906141d4565b600f546001600160a01b031633146129355760405162461bcd60e51b815260206004820152602660248201527f4f6e6c79206f70657261746f722063616e2061636365737320746869732066756044820152653731ba34b7b760d11b6064820152608401610956565b612943600a80546001019055565b600061294e600a5490565b905061295a8382612f68565b6129648183612f82565b6109f781600e54858561302b565b600c546001600160a01b031633146129f25760405162461bcd60e51b815260206004820152602560248201527f4f6e6c79206f776e65722063616e2075706461746520726563656976696e672060448201527f746f6b656e0000000000000000000000000000000000000000000000000000006064820152608401610956565b601180546001600160a01b0319166001600160a01b0392909216919091179055565b600061115c600a5490565b60006001600160e01b031982167f80ac58cd000000000000000000000000000000000000000000000000000000001480612a8257506001600160e01b031982167f5b5e139f00000000000000000000000000000000000000000000000000000000145b8061080657507f01ffc9a7000000000000000000000000000000000000000000000000000000006001600160e01b0319831614610806565b6000818152600360205260409020546001600160a01b0316612b1e5760405162461bcd60e51b815260206004820152601860248201527f4552433732313a20696e76616c696420746f6b656e20494400000000000000006044820152606401610956565b50565b600081815260056020526040902080546001600160a01b0319166001600160a01b0384169081179091558190612b568261190f565b6001600160a01b03167f8c5be1e5ebec7d5bd14f71427d1e84f3dd0314c0f7b2291e5b200ac8c7c3b92560405160405180910390a45050565b600f546001600160a01b03163314612bf85760405162461bcd60e51b815260206004820152602660248201527f4f6e6c79206f70657261746f722063616e2061636365737320746869732066756044820152653731ba34b7b760d11b6064820152608401610956565b612c0433848484612c16565b612c0f858585612da3565b5050505050565b81421115612c665760405162461bcd60e51b815260206004820152601e60248201527f4552433732315065726d69743a206578706972656420646561646c696e6500006044820152606401610956565b60008381526007602090815260408083205481517f0000000000000000000000000000000000000000000000000000000000000000818501526001600160a01b0389168184015260608101889052608081019190915260a08082018790528251808303909101815260c0909101909152805191012090612ce5826132e3565b90506000612cf3828561334c565b50905060006001600160a01b03821615801590612d155750612d158288612dc3565b90508080612d315750612d31612d2a8861190f565b8487613392565b80612d435750612d43612d2a8861089e565b612d8f5760405162461bcd60e51b815260206004820152601f60248201527f4552433732315065726d69743a20696e76616c6964207369676e6174757265006044820152606401610956565b612d998888612b21565b5050505050505050565b6000818152600760205260409020805460010190556109f78383836134b6565b600080612dcf8361190f565b9050806001600160a01b0316846001600160a01b03161480612e1657506001600160a01b0380821660009081526006602090815260408083209388168352929052205460ff165b806128015750836001600160a01b0316612e2f8461089e565b6001600160a01b031614949350505050565b6000306001600160a01b037f000000000000000000000000000000000000000000000000000000000000000016148015612e9a57507f000000000000000000000000000000000000000000000000000000000000000046145b15612ec457507f000000000000000000000000000000000000000000000000000000000000000090565b50604080517f00000000000000000000000000000000000000000000000000000000000000006020808301919091527f0000000000000000000000000000000000000000000000000000000000000000828401527f000000000000000000000000000000000000000000000000000000000000000060608301524660808301523060a0808401919091528351808403909101815260c0909201909252805191012090565b612181828260405180602001604052806000815250613683565b6000828152600360205260409020546001600160a01b031661300c5760405162461bcd60e51b815260206004820152602e60248201527f45524337323155524953746f726167653a2055524920736574206f66206e6f6e60448201527f6578697374656e7420746f6b656e0000000000000000000000000000000000006064820152608401610956565b600082815260086020908152604090912082516109f792840190613bba565b60408051610100810182528581523060208083019182526001600160a01b038681168486019081526060850189815260006080870181815260a088018a81524260c08a015260e089018390528d835260108752989091208751815595516001870180546001600160a01b031990811692871692909217905592516002870180549094169416939093179091555160038401555160048301805460ff191691151591909117905592518051929391926130e99260058501920190613bba565b5060c0820151600682015560e090910151600790910180546001600160a01b0319166001600160a01b0390921691909117905550505050565b816001600160a01b0316836001600160a01b031614156131845760405162461bcd60e51b815260206004820152601960248201527f4552433732313a20617070726f766520746f2063616c6c6572000000000000006044820152606401610956565b6001600160a01b03838116600081815260066020908152604080832094871680845294825291829020805460ff191686151590811790915591519182527f17307eab39ab6107e8899845ad3d59bd9653f200f220920489ca2b5937696c31910160405180910390a3505050565b6131fc848484612da3565b61320884848484613701565b611a9f5760405162461bcd60e51b815260206004820152603260248201527f4552433732313a207472616e7366657220746f206e6f6e20455243373231526560448201527131b2b4bb32b91034b6b83632b6b2b73a32b960711b6064820152608401610956565b606061327a82612aba565b600061329160408051602081019091526000815290565b905060008151116132b157604051806020016040528060008152506132dc565b806132bb84613859565b6040516020016132cc9291906142f9565b6040516020818303038152906040525b9392505050565b60006108066132f0612e41565b836040517f19010000000000000000000000000000000000000000000000000000000000006020820152602281018390526042810182905260009060620160405160208183030381529060405280519060200120905092915050565b6000808251604114156133835760208301516040840151606085015160001a6133778782858561398b565b9450945050505061338b565b506000905060025b9250929050565b6000806000856001600160a01b0316631626ba7e60e01b86866040516024016133bc929190614328565b60408051601f198184030181529181526020820180517bffffffffffffffffffffffffffffffffffffffffffffffffffffffff166001600160e01b031990941693909317909252905161340f9190614341565b600060405180830381855afa9150503d806000811461344a576040519150601f19603f3d011682016040523d82523d6000602084013e61344f565b606091505b5091509150818015613462575080516020145b80156134ac575080517f1626ba7e00000000000000000000000000000000000000000000000000000000906134a0908301602090810190840161435d565b6001600160e01b031916145b9695505050505050565b826001600160a01b03166134c98261190f565b6001600160a01b0316146135455760405162461bcd60e51b815260206004820152602560248201527f4552433732313a207472616e736665722066726f6d20696e636f72726563742060448201527f6f776e65720000000000000000000000000000000000000000000000000000006064820152608401610956565b6001600160a01b0382166135c05760405162461bcd60e51b8152602060048201526024808201527f4552433732313a207472616e7366657220746f20746865207a65726f2061646460448201527f72657373000000000000000000000000000000000000000000000000000000006064820152608401610956565b6135cb600082612b21565b6001600160a01b03831660009081526004602052604081208054600192906135f490849061437a565b90915550506001600160a01b038216600090815260046020526040812080546001929061362290849061427a565b909155505060008181526003602052604080822080546001600160a01b0319166001600160a01b0386811691821790925591518493918716917fddf252ad1be2c89b69c2b068fc378daa952ba7f163c4a11628f55a4df523b3ef91a4505050565b61368d8383613a78565b61369a6000848484613701565b6109f75760405162461bcd60e51b815260206004820152603260248201527f4552433732313a207472616e7366657220746f206e6f6e20455243373231526560448201527131b2b4bb32b91034b6b83632b6b2b73a32b960711b6064820152608401610956565b60006001600160a01b0384163b1561384e57604051630a85bd0160e11b81526001600160a01b0385169063150b7a0290613745903390899088908890600401614391565b602060405180830381600087803b15801561375f57600080fd5b505af192505050801561378f575060408051601f3d908101601f1916820190925261378c9181019061435d565b60015b613834573d8080156137bd576040519150601f19603f3d011682016040523d82523d6000602084013e6137c2565b606091505b50805161382c5760405162461bcd60e51b815260206004820152603260248201527f4552433732313a207472616e7366657220746f206e6f6e20455243373231526560448201527131b2b4bb32b91034b6b83632b6b2b73a32b960711b6064820152608401610956565b805181602001fd5b6001600160e01b031916630a85bd0160e11b149050612801565b506001949350505050565b60608161389957505060408051808201909152600181527f3000000000000000000000000000000000000000000000000000000000000000602082015290565b8160005b81156138c357806138ad816142a8565b91506138bc9050600a836143d9565b915061389d565b60008167ffffffffffffffff8111156138de576138de613d50565b6040519080825280601f01601f191660200182016040528015613908576020820181803683370190505b5090505b84156128015761391d60018361437a565b915061392a600a866143ed565b61393590603061427a565b60f81b81838151811061394a5761394a614292565b60200101907effffffffffffffffffffffffffffffffffffffffffffffffffffffffffffff1916908160001a905350613984600a866143d9565b945061390c565b6000807f7fffffffffffffffffffffffffffffff5d576e7357a4501ddfe92f46681b20a08311156139c25750600090506003613a6f565b8460ff16601b141580156139da57508460ff16601c14155b156139eb5750600090506004613a6f565b6040805160008082526020820180845289905260ff881692820192909252606081018690526080810185905260019060a0016020604051602081039080840390855afa158015613a3f573d6000803e3d6000fd5b5050604051601f1901519150506001600160a01b038116613a6857600060019250925050613a6f565b9150600090505b94509492505050565b6001600160a01b038216613ace5760405162461bcd60e51b815260206004820181905260248201527f4552433732313a206d696e7420746f20746865207a65726f20616464726573736044820152606401610956565b6000818152600360205260409020546001600160a01b031615613b335760405162461bcd60e51b815260206004820152601c60248201527f4552433732313a20746f6b656e20616c7265616479206d696e746564000000006044820152606401610956565b6001600160a01b0382166000908152600460205260408120805460019290613b5c90849061427a565b909155505060008181526003602052604080822080546001600160a01b0319166001600160a01b03861690811790915590518392907fddf252ad1be2c89b69c2b068fc378daa952ba7f163c4a11628f55a4df523b3ef908290a45050565b828054613bc6906141d4565b90600052602060002090601f016020900481019282613be85760008555613c2e565b82601f10613c0157805160ff1916838001178555613c2e565b82800160010185558215613c2e579182015b82811115613c2e578251825591602001919060010190613c13565b50613c3a929150613c3e565b5090565b5b80821115613c3a5760008155600101613c3f565b6001600160e01b031981168114612b1e57600080fd5b600060208284031215613c7b57600080fd5b81356132dc81613c53565b60005b83811015613ca1578181015183820152602001613c89565b83811115611a9f5750506000910152565b60008151808452613cca816020860160208601613c86565b601f01601f19169290920160200192915050565b6020815260006132dc6020830184613cb2565b600060208284031215613d0357600080fd5b5035919050565b80356001600160a01b0381168114613d2157600080fd5b919050565b60008060408385031215613d3957600080fd5b613d4283613d0a565b946020939093013593505050565b634e487b7160e01b600052604160045260246000fd5b600082601f830112613d7757600080fd5b813567ffffffffffffffff80821115613d9257613d92613d50565b604051601f8301601f19908116603f01168101908282118183101715613dba57613dba613d50565b81604052838152866020858801011115613dd357600080fd5b836020870160208301376000602085830101528094505050505092915050565b600080600080600060a08688031215613e0b57600080fd5b613e1486613d0a565b9450602086013593506040860135925060608601359150608086013567ffffffffffffffff811115613e4557600080fd5b613e5188828901613d66565b9150509295509295909350565b60008060008060808587031215613e7457600080fd5b843593506020850135925060408501359150606085013567ffffffffffffffff811115613ea057600080fd5b613eac87828801613d66565b91505092959194509250565b60008060408385031215613ecb57600080fd5b50508035926020909101359150565b600080600060608486031215613eef57600080fd5b613ef884613d0a565b9250613f0660208501613d0a565b9150604084013590509250925092565b8015158114612b1e57600080fd5b60008060408385031215613f3757600080fd5b613f4083613d0a565b91506020830135613f5081613f16565b809150509250929050565b60006101008251845260208301516001600160a01b0380821660208701528060408601511660408701526060850151606087015260808501511515608087015260a085015191508260a0870152613fb483870183613cb2565b925060c085015160c08701528060e08601511660e087015250508091505092915050565b6000602080830181845280855180835260408601915060408160051b870101925083870160005b8281101561402d57603f1988860301845261401b858351613f5b565b94509285019290850190600101613fff565b5092979650505050505050565b60006020828403121561404c57600080fd5b813567ffffffffffffffff81111561406357600080fd5b61280184828501613d66565b60006020828403121561408157600080fd5b6132dc82613d0a565b600080600080608085870312156140a057600080fd5b6140a985613d0a565b93506020850135925060408501359150606085013567ffffffffffffffff811115613ea057600080fd5b6020815260006132dc6020830184613f5b565b6000602082840312156140f857600080fd5b81356132dc81613f16565b6000806000806080858703121561411957600080fd5b61412285613d0a565b935061413060208601613d0a565b925060408501359150606085013567ffffffffffffffff811115613ea057600080fd5b6000806040838503121561416657600080fd5b61416f83613d0a565b9150602083013567ffffffffffffffff81111561418b57600080fd5b61419785828601613d66565b9150509250929050565b600080604083850312156141b457600080fd5b6141bd83613d0a565b91506141cb60208401613d0a565b90509250929050565b600181811c908216806141e857607f821691505b6020821081141561420957634e487b7160e01b600052602260045260246000fd5b50919050565b60006001600160a01b03808a1683528089166020840152876040840152861515606084015260e0608084015261424860e0840187613cb2565b60a08401959095529290921660c0909101525095945050505050565b634e487b7160e01b600052601160045260246000fd5b6000821982111561428d5761428d614264565b500190565b634e487b7160e01b600052603260045260246000fd5b60006000198214156142bc576142bc614264565b5060010190565b6000602082840312156142d557600080fd5b5051919050565b6000602082840312156142ee57600080fd5b81516132dc81613f16565b6000835161430b818460208801613c86565b83519083019061431f818360208801613c86565b01949350505050565b8281526040602082015260006128016040830184613cb2565b60008251614353818460208701613c86565b9190910192915050565b60006020828403121561436f57600080fd5b81516132dc81613c53565b60008282101561438c5761438c614264565b500390565b60006001600160a01b038087168352808616602084015250836040830152608060608301526134ac6080830184613cb2565b634e487b7160e01b600052601260045260246000fd5b6000826143e8576143e86143c3565b500490565b6000826143fc576143fc6143c3565b50069056fea26469706673582212208934b553d6dddcfcfd1c5ae29d5cae0dc246fae7e205a78f3dc12603e86478c764736f6c63430008090033",
    "linkReferences": {},
    "deployedLinkReferences": {}
}