{
    "_format": "hh-sol-artifact-1",
    "contractName": "NFTMarketplace",
    "sourceName": "contracts/NFTMarketplace.sol",
    "abi": [
        {
            "inputs": [
                {
                    "internalType": "address",
                    "name": "_operator",
                    "type": "address"
                },
                {
                    "internalType": "address",
                    "name": "_receivingToken",
                    "type": "address"
                }
            ],
            "stateMutability": "nonpayable",
            "type": "constructor"
        },
        {
            "anonymous": false,
            "inputs": [
                {
                    "indexed": true,
                    "internalType": "address",
                    "name": "owner",
                    "type": "address"
                },
                {
                    "indexed": true,
                    "internalType": "address",
                    "name": "approved",
                    "type": "address"
                },
                {
                    "indexed": true,
                    "internalType": "uint256",
                    "name": "tokenId",
                    "type": "uint256"
                }
            ],
            "name": "Approval",
            "type": "event"
        },
        {
            "anonymous": false,
            "inputs": [
                {
                    "indexed": true,
                    "internalType": "address",
                    "name": "owner",
                    "type": "address"
                },
                {
                    "indexed": true,
                    "internalType": "address",
                    "name": "operator",
                    "type": "address"
                },
                {
                    "indexed": false,
                    "internalType": "bool",
                    "name": "approved",
                    "type": "bool"
                }
            ],
            "name": "ApprovalForAll",
            "type": "event"
        },
        {
            "anonymous": false,
            "inputs": [
                {
                    "indexed": true,
                    "internalType": "uint256",
                    "name": "tokenId",
                    "type": "uint256"
                },
                {
                    "indexed": false,
                    "internalType": "address",
                    "name": "owner",
                    "type": "address"
                },
                {
                    "indexed": false,
                    "internalType": "address",
                    "name": "seller",
                    "type": "address"
                },
                {
                    "indexed": false,
                    "internalType": "uint256",
                    "name": "price",
                    "type": "uint256"
                },
                {
                    "indexed": false,
                    "internalType": "bool",
                    "name": "currentlyListed",
                    "type": "bool"
                },
                {
                    "indexed": false,
                    "internalType": "uint256",
                    "name": "reservedUntil",
                    "type": "uint256"
                },
                {
                    "indexed": false,
                    "internalType": "address",
                    "name": "lastReservedBy",
                    "type": "address"
                }
            ],
            "name": "TokenListedSuccess",
            "type": "event"
        },
        {
            "anonymous": false,
            "inputs": [
                {
                    "indexed": true,
                    "internalType": "address",
                    "name": "from",
                    "type": "address"
                },
                {
                    "indexed": true,
                    "internalType": "address",
                    "name": "to",
                    "type": "address"
                },
                {
                    "indexed": true,
                    "internalType": "uint256",
                    "name": "tokenId",
                    "type": "uint256"
                }
            ],
            "name": "Transfer",
            "type": "event"
        },
        {
            "inputs": [],
            "name": "DOMAIN_SEPARATOR",
            "outputs": [
                {
                    "internalType": "bytes32",
                    "name": "",
                    "type": "bytes32"
                }
            ],
            "stateMutability": "view",
            "type": "function"
        },
        {
            "inputs": [
                {
                    "internalType": "address",
                    "name": "to",
                    "type": "address"
                },
                {
                    "internalType": "uint256",
                    "name": "tokenId",
                    "type": "uint256"
                }
            ],
            "name": "approve",
            "outputs": [],
            "stateMutability": "nonpayable",
            "type": "function"
        },
        {
            "inputs": [
                {
                    "internalType": "address",
                    "name": "owner",
                    "type": "address"
                }
            ],
            "name": "balanceOf",
            "outputs": [
                {
                    "internalType": "uint256",
                    "name": "",
                    "type": "uint256"
                }
            ],
            "stateMutability": "view",
            "type": "function"
        },
        {
            "inputs": [
                {
                    "internalType": "string",
                    "name": "tokenURI",
                    "type": "string"
                }
            ],
            "name": "createToken",
            "outputs": [
                {
                    "internalType": "uint256",
                    "name": "",
                    "type": "uint256"
                }
            ],
            "stateMutability": "payable",
            "type": "function"
        },
        {
            "inputs": [
                {
                    "internalType": "address",
                    "name": "recipient",
                    "type": "address"
                },
                {
                    "internalType": "string",
                    "name": "tokenURI",
                    "type": "string"
                }
            ],
            "name": "crossCreateToken",
            "outputs": [],
            "stateMutability": "payable",
            "type": "function"
        },
        {
            "inputs": [
                {
                    "internalType": "address",
                    "name": "recipient",
                    "type": "address"
                },
                {
                    "internalType": "uint256",
                    "name": "tokenId",
                    "type": "uint256"
                }
            ],
            "name": "crossDelistToken",
            "outputs": [],
            "stateMutability": "nonpayable",
            "type": "function"
        },
        {
            "inputs": [
                {
                    "internalType": "address",
                    "name": "recipient",
                    "type": "address"
                },
                {
                    "internalType": "uint256",
                    "name": "tokenId",
                    "type": "uint256"
                }
            ],
            "name": "crossExecuteSale",
            "outputs": [],
            "stateMutability": "nonpayable",
            "type": "function"
        },
        {
            "inputs": [
                {
                    "internalType": "address",
                    "name": "recipient",
                    "type": "address"
                },
                {
                    "internalType": "uint256",
                    "name": "tokenId",
                    "type": "uint256"
                },
                {
                    "internalType": "uint256",
                    "name": "price",
                    "type": "uint256"
                },
                {
                    "internalType": "uint256",
                    "name": "deadline",
                    "type": "uint256"
                },
                {
                    "internalType": "bytes",
                    "name": "signature",
                    "type": "bytes"
                }
            ],
            "name": "crossSetListToken",
            "outputs": [],
            "stateMutability": "nonpayable",
            "type": "function"
        },
        {
            "inputs": [
                {
                    "internalType": "uint256",
                    "name": "tokenId",
                    "type": "uint256"
                }
            ],
            "name": "delistToken",
            "outputs": [],
            "stateMutability": "nonpayable",
            "type": "function"
        },
        {
            "inputs": [
                {
                    "internalType": "uint256",
                    "name": "tokenId",
                    "type": "uint256"
                }
            ],
            "name": "executeSale",
            "outputs": [],
            "stateMutability": "payable",
            "type": "function"
        },
        {
            "inputs": [],
            "name": "getAllNFTs",
            "outputs": [
                {
                    "components": [
                        {
                            "internalType": "uint256",
                            "name": "tokenId",
                            "type": "uint256"
                        },
                        {
                            "internalType": "address payable",
                            "name": "owner",
                            "type": "address"
                        },
                        {
                            "internalType": "address payable",
                            "name": "seller",
                            "type": "address"
                        },
                        {
                            "internalType": "uint256",
                            "name": "price",
                            "type": "uint256"
                        },
                        {
                            "internalType": "bool",
                            "name": "currentlyListed",
                            "type": "bool"
                        },
                        {
                            "internalType": "uint256",
                            "name": "reservedUntil",
                            "type": "uint256"
                        },
                        {
                            "internalType": "address",
                            "name": "lastReservedBy",
                            "type": "address"
                        }
                    ],
                    "internalType": "struct NFTMarketplace.ListedToken[]",
                    "name": "",
                    "type": "tuple[]"
                }
            ],
            "stateMutability": "view",
            "type": "function"
        },
        {
            "inputs": [
                {
                    "internalType": "uint256",
                    "name": "tokenId",
                    "type": "uint256"
                }
            ],
            "name": "getApproved",
            "outputs": [
                {
                    "internalType": "address",
                    "name": "",
                    "type": "address"
                }
            ],
            "stateMutability": "view",
            "type": "function"
        },
        {
            "inputs": [],
            "name": "getCurrentToken",
            "outputs": [
                {
                    "internalType": "uint256",
                    "name": "",
                    "type": "uint256"
                }
            ],
            "stateMutability": "view",
            "type": "function"
        },
        {
            "inputs": [],
            "name": "getFloorPrice",
            "outputs": [
                {
                    "internalType": "uint256",
                    "name": "",
                    "type": "uint256"
                }
            ],
            "stateMutability": "view",
            "type": "function"
        },
        {
            "inputs": [],
            "name": "getLatestIdToListedToken",
            "outputs": [
                {
                    "components": [
                        {
                            "internalType": "uint256",
                            "name": "tokenId",
                            "type": "uint256"
                        },
                        {
                            "internalType": "address payable",
                            "name": "owner",
                            "type": "address"
                        },
                        {
                            "internalType": "address payable",
                            "name": "seller",
                            "type": "address"
                        },
                        {
                            "internalType": "uint256",
                            "name": "price",
                            "type": "uint256"
                        },
                        {
                            "internalType": "bool",
                            "name": "currentlyListed",
                            "type": "bool"
                        },
                        {
                            "internalType": "uint256",
                            "name": "reservedUntil",
                            "type": "uint256"
                        },
                        {
                            "internalType": "address",
                            "name": "lastReservedBy",
                            "type": "address"
                        }
                    ],
                    "internalType": "struct NFTMarketplace.ListedToken",
                    "name": "",
                    "type": "tuple"
                }
            ],
            "stateMutability": "view",
            "type": "function"
        },
        {
            "inputs": [],
            "name": "getListPrice",
            "outputs": [
                {
                    "internalType": "uint256",
                    "name": "",
                    "type": "uint256"
                }
            ],
            "stateMutability": "view",
            "type": "function"
        },
        {
            "inputs": [
                {
                    "internalType": "uint256",
                    "name": "tokenId",
                    "type": "uint256"
                }
            ],
            "name": "getListedTokenForId",
            "outputs": [
                {
                    "components": [
                        {
                            "internalType": "uint256",
                            "name": "tokenId",
                            "type": "uint256"
                        },
                        {
                            "internalType": "address payable",
                            "name": "owner",
                            "type": "address"
                        },
                        {
                            "internalType": "address payable",
                            "name": "seller",
                            "type": "address"
                        },
                        {
                            "internalType": "uint256",
                            "name": "price",
                            "type": "uint256"
                        },
                        {
                            "internalType": "bool",
                            "name": "currentlyListed",
                            "type": "bool"
                        },
                        {
                            "internalType": "uint256",
                            "name": "reservedUntil",
                            "type": "uint256"
                        },
                        {
                            "internalType": "address",
                            "name": "lastReservedBy",
                            "type": "address"
                        }
                    ],
                    "internalType": "struct NFTMarketplace.ListedToken",
                    "name": "",
                    "type": "tuple"
                }
            ],
            "stateMutability": "view",
            "type": "function"
        },
        {
            "inputs": [],
            "name": "getMyNFTs",
            "outputs": [
                {
                    "components": [
                        {
                            "internalType": "uint256",
                            "name": "tokenId",
                            "type": "uint256"
                        },
                        {
                            "internalType": "address payable",
                            "name": "owner",
                            "type": "address"
                        },
                        {
                            "internalType": "address payable",
                            "name": "seller",
                            "type": "address"
                        },
                        {
                            "internalType": "uint256",
                            "name": "price",
                            "type": "uint256"
                        },
                        {
                            "internalType": "bool",
                            "name": "currentlyListed",
                            "type": "bool"
                        },
                        {
                            "internalType": "uint256",
                            "name": "reservedUntil",
                            "type": "uint256"
                        },
                        {
                            "internalType": "address",
                            "name": "lastReservedBy",
                            "type": "address"
                        }
                    ],
                    "internalType": "struct NFTMarketplace.ListedToken[]",
                    "name": "",
                    "type": "tuple[]"
                }
            ],
            "stateMutability": "view",
            "type": "function"
        },
        {
            "inputs": [],
            "name": "getOperator",
            "outputs": [
                {
                    "internalType": "address",
                    "name": "",
                    "type": "address"
                }
            ],
            "stateMutability": "view",
            "type": "function"
        },
        {
            "inputs": [],
            "name": "getOwner",
            "outputs": [
                {
                    "internalType": "address",
                    "name": "",
                    "type": "address"
                }
            ],
            "stateMutability": "view",
            "type": "function"
        },
        {
            "inputs": [],
            "name": "getReceivingToken",
            "outputs": [
                {
                    "internalType": "address",
                    "name": "",
                    "type": "address"
                }
            ],
            "stateMutability": "view",
            "type": "function"
        },
        {
            "inputs": [
                {
                    "internalType": "address",
                    "name": "owner",
                    "type": "address"
                },
                {
                    "internalType": "address",
                    "name": "operator",
                    "type": "address"
                }
            ],
            "name": "isApprovedForAll",
            "outputs": [
                {
                    "internalType": "bool",
                    "name": "",
                    "type": "bool"
                }
            ],
            "stateMutability": "view",
            "type": "function"
        },
        {
            "inputs": [],
            "name": "name",
            "outputs": [
                {
                    "internalType": "string",
                    "name": "",
                    "type": "string"
                }
            ],
            "stateMutability": "view",
            "type": "function"
        },
        {
            "inputs": [
                {
                    "internalType": "uint256",
                    "name": "tokenId",
                    "type": "uint256"
                }
            ],
            "name": "nonces",
            "outputs": [
                {
                    "internalType": "uint256",
                    "name": "",
                    "type": "uint256"
                }
            ],
            "stateMutability": "view",
            "type": "function"
        },
        {
            "inputs": [
                {
                    "internalType": "uint256",
                    "name": "tokenId",
                    "type": "uint256"
                }
            ],
            "name": "ownerOf",
            "outputs": [
                {
                    "internalType": "address",
                    "name": "",
                    "type": "address"
                }
            ],
            "stateMutability": "view",
            "type": "function"
        },
        {
            "inputs": [
                {
                    "internalType": "address",
                    "name": "spender",
                    "type": "address"
                },
                {
                    "internalType": "uint256",
                    "name": "tokenId",
                    "type": "uint256"
                },
                {
                    "internalType": "uint256",
                    "name": "deadline",
                    "type": "uint256"
                },
                {
                    "internalType": "bytes",
                    "name": "signature",
                    "type": "bytes"
                }
            ],
            "name": "permit",
            "outputs": [],
            "stateMutability": "nonpayable",
            "type": "function"
        },
        {
            "inputs": [
                {
                    "internalType": "address",
                    "name": "from",
                    "type": "address"
                },
                {
                    "internalType": "address",
                    "name": "to",
                    "type": "address"
                },
                {
                    "internalType": "uint256",
                    "name": "tokenId",
                    "type": "uint256"
                }
            ],
            "name": "safeTransferFrom",
            "outputs": [],
            "stateMutability": "nonpayable",
            "type": "function"
        },
        {
            "inputs": [
                {
                    "internalType": "address",
                    "name": "from",
                    "type": "address"
                },
                {
                    "internalType": "address",
                    "name": "to",
                    "type": "address"
                },
                {
                    "internalType": "uint256",
                    "name": "tokenId",
                    "type": "uint256"
                },
                {
                    "internalType": "bytes",
                    "name": "data",
                    "type": "bytes"
                }
            ],
            "name": "safeTransferFrom",
            "outputs": [],
            "stateMutability": "nonpayable",
            "type": "function"
        },
        {
            "inputs": [
                {
                    "internalType": "address",
                    "name": "operator",
                    "type": "address"
                },
                {
                    "internalType": "bool",
                    "name": "approved",
                    "type": "bool"
                }
            ],
            "name": "setApprovalForAll",
            "outputs": [],
            "stateMutability": "nonpayable",
            "type": "function"
        },
        {
            "inputs": [
                {
                    "internalType": "uint256",
                    "name": "tokenId",
                    "type": "uint256"
                },
                {
                    "internalType": "uint256",
                    "name": "price",
                    "type": "uint256"
                }
            ],
            "name": "setListToken",
            "outputs": [],
            "stateMutability": "nonpayable",
            "type": "function"
        },
        {
            "inputs": [
                {
                    "internalType": "bytes4",
                    "name": "interfaceId",
                    "type": "bytes4"
                }
            ],
            "name": "supportsInterface",
            "outputs": [
                {
                    "internalType": "bool",
                    "name": "",
                    "type": "bool"
                }
            ],
            "stateMutability": "view",
            "type": "function"
        },
        {
            "inputs": [],
            "name": "symbol",
            "outputs": [
                {
                    "internalType": "string",
                    "name": "",
                    "type": "string"
                }
            ],
            "stateMutability": "view",
            "type": "function"
        },
        {
            "inputs": [
                {
                    "internalType": "uint256",
                    "name": "tokenId",
                    "type": "uint256"
                }
            ],
            "name": "tokenURI",
            "outputs": [
                {
                    "internalType": "string",
                    "name": "",
                    "type": "string"
                }
            ],
            "stateMutability": "view",
            "type": "function"
        },
        {
            "inputs": [
                {
                    "internalType": "address",
                    "name": "from",
                    "type": "address"
                },
                {
                    "internalType": "address",
                    "name": "to",
                    "type": "address"
                },
                {
                    "internalType": "uint256",
                    "name": "tokenId",
                    "type": "uint256"
                }
            ],
            "name": "transferFrom",
            "outputs": [],
            "stateMutability": "nonpayable",
            "type": "function"
        },
        {
            "inputs": [
                {
                    "internalType": "uint256",
                    "name": "_floorPrice",
                    "type": "uint256"
                }
            ],
            "name": "updateFloorPrice",
            "outputs": [],
            "stateMutability": "nonpayable",
            "type": "function"
        },
        {
            "inputs": [
                {
                    "internalType": "uint256",
                    "name": "_listPrice",
                    "type": "uint256"
                }
            ],
            "name": "updateListPrice",
            "outputs": [],
            "stateMutability": "nonpayable",
            "type": "function"
        },
        {
            "inputs": [
                {
                    "internalType": "address",
                    "name": "_operator",
                    "type": "address"
                }
            ],
            "name": "updateOperator",
            "outputs": [],
            "stateMutability": "nonpayable",
            "type": "function"
        },
        {
            "inputs": [
                {
                    "internalType": "address",
                    "name": "_receivingToken",
                    "type": "address"
                }
            ],
            "name": "updateReceivingToken",
            "outputs": [],
            "stateMutability": "nonpayable",
            "type": "function"
        }
    ],
    "bytecode": "0x6101606040527f49ecf333e5b8c95c40fdafc95c1ad136e8914a8fb55e9dc8bb01eaa83a2df9ad6101405261c350600d55620186a0600e553480156200004457600080fd5b5060405162003dca38038062003dca833981016040819052620000679162000296565b6040518060400160405280600e81526020016d4e46544d61726b6574706c61636560901b815250604051806040016040528060048152602001634e46544d60e01b81525081604051806040016040528060018152602001603160f81b815250838360016000819055508160019080519060200190620000e8929190620001d3565b508051620000fe906002906020840190620001d3565b5050825160209384012082519284019290922060e08390526101008190524660a0818152604080517f8b73c3c69bb8fe3d512ecc4cf759cc79239f7b179b0ffacaa9a75d522b39400f818901819052818301979097526060810194909452608080850193909352308483018190528151808603909301835260c094850190915281519190960120905292909252610120525050600c8054336001600160a01b031991821617909155600f805482166001600160a01b03958616179055601180549091169290931691909117909155506200030b565b828054620001e190620002ce565b90600052602060002090601f01602090048101928262000205576000855562000250565b82601f106200022057805160ff191683800117855562000250565b8280016001018555821562000250579182015b828111156200025057825182559160200191906001019062000233565b506200025e92915062000262565b5090565b5b808211156200025e576000815560010162000263565b80516001600160a01b03811681146200029157600080fd5b919050565b60008060408385031215620002aa57600080fd5b620002b58362000279565b9150620002c56020840162000279565b90509250929050565b600181811c90821680620002e357607f821691505b602082108114156200030557634e487b7160e01b600052602260045260246000fd5b50919050565b60805160a05160c05160e051610100516101205161014051613a646200036660003960006126ce0152600061250801526000612557015260006125320152600061248b015260006124b5015260006124df0152613a646000f3fe6080604052600436106102855760003560e01c8063745a41bc11610153578063bed659bc116100cb578063e0391b091161007f578063e985e9c511610064578063e985e9c514610771578063eb42dad9146107ba578063ef2d1746146107da57600080fd5b8063e0391b091461073e578063e7f43c681461075357600080fd5b8063c87b56dd116100b0578063c87b56dd146106f6578063d1a88ae514610716578063d5b2d7121461072b57600080fd5b8063bed659bc146106b6578063c322579c146106d657600080fd5b806395d89b4111610122578063a22cb46511610107578063a22cb46514610656578063ac7475ed14610676578063b88d4fde1461069657600080fd5b806395d89b411461062e5780639b1225c41461064357600080fd5b8063745a41bc146104fb578063893d20e81461051b5780638e264590146105395780638e9c072c1461060e57600080fd5b80632d04fa8b11610201578063629cb2e4116101b557806368f1945f1161019a57806368f1945f146104a65780636eb7f72e146104bb57806370a08231146104db57600080fd5b8063629cb2e4146104645780636352211e1461048657600080fd5b80633644e515116101e65780633644e5151461041c57806342842e0e1461043157806345576f941461045157600080fd5b80632d04fa8b146103de5780632efcc8f1146103fc57600080fd5b80630e03aad0116102585780631a1f11151161023d5780631a1f11151461038957806323b872dd146103a95780632a33d6b2146103c957600080fd5b80630e03aad01461033b578063141a468c1461035b57600080fd5b806301ffc9a71461028a57806306fdde03146102bf578063081812fc146102e1578063095ea7b314610319575b600080fd5b34801561029657600080fd5b506102aa6102a536600461333c565b6107ef565b60405190151581526020015b60405180910390f35b3480156102cb57600080fd5b506102d4610833565b6040516102b691906133b1565b3480156102ed57600080fd5b506103016102fc3660046133c4565b6108c5565b6040516001600160a01b0390911681526020016102b6565b34801561032557600080fd5b506103396103343660046133f9565b6108ec565b005b34801561034757600080fd5b506103396103563660046134c6565b610a41565b34801561036757600080fd5b5061037b6103763660046133c4565b610c74565b6040519081526020016102b6565b34801561039557600080fd5b506103396103a4366004613531565b610c88565b3480156103b557600080fd5b506103396103c4366004613553565b610e57565b3480156103d557600080fd5b50600e5461037b565b3480156103ea57600080fd5b506011546001600160a01b0316610301565b34801561040857600080fd5b506103396104173660046133f9565b610ede565b34801561042857600080fd5b5061037b610fe5565b34801561043d57600080fd5b5061033961044c366004613553565b610ff4565b61037b61045f36600461358f565b61100f565b34801561047057600080fd5b50610479611101565b6040516102b691906135c4565b34801561049257600080fd5b506103016104a13660046133c4565b61136d565b3480156104b257600080fd5b50600d5461037b565b3480156104c757600080fd5b506103396104d63660046133c4565b6113d2565b3480156104e757600080fd5b5061037b6104f6366004613664565b611457565b34801561050757600080fd5b5061033961051636600461367f565b6114f1565b34801561052757600080fd5b50600c546001600160a01b0316610301565b34801561054557600080fd5b506106016105543660046133c4565b6040805160e081018252600080825260208201819052918101829052606081018290526080810182905260a0810182905260c081019190915250600090815260106020908152604091829020825160e0810184528154815260018201546001600160a01b0390811693820193909352600282015483169381019390935260038101546060840152600481015460ff1615156080840152600581015460a0840152600601541660c082015290565b6040516102b691906136e0565b34801561061a57600080fd5b506103396106293660046133f9565b611503565b34801561063a57600080fd5b506102d46115de565b6103396106513660046133c4565b6115ed565b34801561066257600080fd5b5061033961067136600461374e565b611a78565b34801561068257600080fd5b50610339610691366004613664565b611a87565b3480156106a257600080fd5b506103396106b1366004613785565b611b03565b3480156106c257600080fd5b506103396106d13660046133c4565b611b8b565b3480156106e257600080fd5b506103396106f13660046133c4565b611c25565b34801561070257600080fd5b506102d46107113660046133c4565b611caa565b34801561072257600080fd5b50610601611dbb565b6103396107393660046137d5565b611e75565b34801561074a57600080fd5b50610479611fce565b34801561075f57600080fd5b50600f546001600160a01b0316610301565b34801561077d57600080fd5b506102aa61078c366004613823565b6001600160a01b03918216600090815260066020908152604080832093909416825291909152205460ff1690565b3480156107c657600080fd5b506103396107d5366004613664565b61213c565b3480156107e657600080fd5b5061037b6121de565b60006001600160e01b031982167f5604e22500000000000000000000000000000000000000000000000000000000148061082d575061082d826121e9565b92915050565b60606001805461084290613856565b80601f016020809104026020016040519081016040528092919081815260200182805461086e90613856565b80156108bb5780601f10610890576101008083540402835291602001916108bb565b820191906000526020600020905b81548152906001019060200180831161089e57829003601f168201915b5050505050905090565b60006108d082612284565b506000908152600560205260409020546001600160a01b031690565b60006108f78261136d565b9050806001600160a01b0316836001600160a01b031614156109865760405162461bcd60e51b815260206004820152602160248201527f4552433732313a20617070726f76616c20746f2063757272656e74206f776e6560448201527f720000000000000000000000000000000000000000000000000000000000000060648201526084015b60405180910390fd5b336001600160a01b03821614806109c057506001600160a01b038116600090815260066020908152604080832033845290915290205460ff165b610a325760405162461bcd60e51b815260206004820152603e60248201527f4552433732313a20617070726f76652063616c6c6572206973206e6f7420746f60448201527f6b656e206f776e6572206e6f7220617070726f76656420666f7220616c6c0000606482015260840161097d565b610a3c83836122eb565b505050565b600f546001600160a01b03163314610aaa5760405162461bcd60e51b815260206004820152602660248201527f4f6e6c79206f70657261746f722063616e2061636365737320746869732066756044820152653731ba34b7b760d11b606482015260840161097d565b60008311610b055760405162461bcd60e51b815260206004820152602260248201527f4d616b652073757265207468652070726963652069736e2774206e6567617469604482015261766560f01b606482015260840161097d565b600d54831015610b675760405162461bcd60e51b815260206004820152602760248201527f596f75206e65656420746f20696e636c756465206c697374696e6720707269636044820152660ca40d2dc40e8f60cb1b606482015260840161097d565b6000848152601060205260409020600201546001600160a01b03868116911614610bde5760405162461bcd60e51b815260206004820152602260248201527f4f6e6c79206e667420686f6c6465722063616e20746f67676c65206c697374696044820152616e6760f01b606482015260840161097d565b610beb8530868585612359565b604080513081526001600160a01b038716602082015290810184905260016060820152426080820152600060a082015284907f378784ddcaa3147ea35876077abf6706d3c0ee198a49af621c36d249859384109060c00160405180910390a250506000918252601060205260409091206003810191909155600401805460ff1916600117905550565b60008181526007602052604081205461082d565b60008111610ce35760405162461bcd60e51b815260206004820152602260248201527f4d616b652073757265207468652070726963652069736e2774206e6567617469604482015261766560f01b606482015260840161097d565b600d54811015610d455760405162461bcd60e51b815260206004820152602760248201527f596f75206e65656420746f20696e636c756465206c697374696e6720707269636044820152660ca40d2dc40e8f60cb1b606482015260840161097d565b60008281526010602052604090206002015433906001600160a01b03168114610dbb5760405162461bcd60e51b815260206004820152602260248201527f4f6e6c79206e667420686f6c6465722063616e20746f67676c65206c697374696044820152616e6760f01b606482015260840161097d565b610dc530846108ec565b610dd08130856123e0565b604080513081526001600160a01b038316602082015290810183905260016060820152426080820152600060a082015283907f378784ddcaa3147ea35876077abf6706d3c0ee198a49af621c36d249859384109060c00160405180910390a2506000918252601060205260409091206003810191909155600401805460ff19166001179055565b610e613382612400565b610ed35760405162461bcd60e51b815260206004820152602e60248201527f4552433732313a2063616c6c6572206973206e6f7420746f6b656e206f776e6560448201527f72206e6f7220617070726f766564000000000000000000000000000000000000606482015260840161097d565b610a3c8383836123e0565b600f546001600160a01b03163314610f475760405162461bcd60e51b815260206004820152602660248201527f4f6e6c79206f70657261746f722063616e2061636365737320746869732066756044820152653731ba34b7b760d11b606482015260840161097d565b6000818152601060205260409020600201546001600160a01b03838116911614610fbe5760405162461bcd60e51b815260206004820152602260248201527f4f6e6c79206e667420686f6c6465722063616e20746f67676c65206c697374696044820152616e6760f01b606482015260840161097d565b610fc93083836123e0565b6000908152601060205260409020600401805460ff1916905550565b6000610fef61247e565b905090565b610a3c83838360405180602001604052806000815250611b03565b600061101f600a80546001019055565b600061102a600a5490565b905061103633826125a5565b61104081846125bf565b600e546040805160e08101825283815230602080830191825233838501908152606084019586526000608085018181524260a0870190815260c087018381528a84526010909552969091209451855592516001850180546001600160a01b03199081166001600160a01b03938416179091559151600286018054841691831691909117905595516003850155915160048401805460ff191691151591909117905592516005830155915160069091018054909216921691909117905561082d565b6060600061110e600a5490565b905060008060005b838110156111a657336010600061112e8460016138a7565b81526020810191909152604001600020600101546001600160a01b03161480611181575033601060006111628460016138a7565b81526020810191909152604001600020600201546001600160a01b0316145b15611194576111916001846138a7565b92505b8061119e816138bf565b915050611116565b5060008267ffffffffffffffff8111156111c2576111c2613423565b60405190808252806020026020018201604052801561122957816020015b6040805160e08101825260008082526020808301829052928201819052606082018190526080820181905260a0820181905260c082015282526000199092019101816111e05790505b50905060005b848110156113645733601060006112478460016138a7565b81526020810191909152604001600020600101546001600160a01b0316148061129a5750336010600061127b8460016138a7565b81526020810191909152604001600020600201546001600160a01b0316145b156113525760006112ac8260016138a7565b600081815260106020908152604091829020825160e0810184528154815260018201546001600160a01b0390811693820193909352600282015483169381019390935260038101546060840152600481015460ff1615156080840152600581015460a0840152600681015490911660c0830152855192935091859087908110611337576113376138da565b602090810291909101015261134d6001866138a7565b945050505b8061135c816138bf565b91505061122f565b50949350505050565b6000818152600360205260408120546001600160a01b03168061082d5760405162461bcd60e51b815260206004820152601860248201527f4552433732313a20696e76616c696420746f6b656e2049440000000000000000604482015260640161097d565b600c546001600160a01b031633146114525760405162461bcd60e51b815260206004820152602160248201527f4f6e6c79206f776e65722063616e2075706461746520666c6f6f72207072696360448201527f6500000000000000000000000000000000000000000000000000000000000000606482015260840161097d565b600e55565b60006001600160a01b0382166114d55760405162461bcd60e51b815260206004820152602960248201527f4552433732313a2061646472657373207a65726f206973206e6f74206120766160448201527f6c6964206f776e65720000000000000000000000000000000000000000000000606482015260840161097d565b506001600160a01b031660009081526004602052604090205490565b6114fd84848484612668565b50505050565b600f546001600160a01b0316331461156c5760405162461bcd60e51b815260206004820152602660248201527f4f6e6c79206f70657261746f722063616e2061636365737320746869732066756044820152653731ba34b7b760d11b606482015260840161097d565b600081815260106020526040902060048101805460ff1916905560020180546001600160a01b0319166001600160a01b038416179055600b805460010190556115b63083836123e0565b600090815260106020526040902042600582015560060180546001600160a01b031916905550565b60606002805461084290613856565b60008181526010602052604090206003810154600282015460049092015490916001600160a01b03169060ff16151560011461166b5760405162461bcd60e51b815260206004820152601260248201527f4e4654206973206e6f74206f6e2073616c650000000000000000000000000000604482015260640161097d565b6011546040517fdd62ed3e0000000000000000000000000000000000000000000000000000000081523360048201819052306024830152916001600160a01b031690600090829063dd62ed3e9060440160206040518083038186803b1580156116d357600080fd5b505afa1580156116e7573d6000803e3d6000fd5b505050506040513d601f19601f8201168201806040525081019061170b91906138f0565b90506000811161175d5760405162461bcd60e51b815260206004820152601660248201527f496e73756666696369656e7420616c6c6f77616e636500000000000000000000604482015260640161097d565b6040517f70a0823100000000000000000000000000000000000000000000000000000000815233600482015285906001600160a01b038416906370a082319060240160206040518083038186803b1580156117b757600080fd5b505afa1580156117cb573d6000803e3d6000fd5b505050506040513d601f19601f820116820180604052508101906117ef91906138f0565b101561183d5760405162461bcd60e51b815260206004820152601460248201527f496e73756666696369656e74207061796d656e74000000000000000000000000604482015260640161097d565b6000868152601060205260409020600501544211156118e8576000868152601060205260409020600601546001600160a01b038481169116146118e85760405162461bcd60e51b815260206004820152602660248201527f4e46542063757272656e746c7920726573657276656420627920736f6d656f6e60448201527f6520656c73650000000000000000000000000000000000000000000000000000606482015260840161097d565b600086815260106020526040902060048101805460ff1916905560020180546001600160a01b0319166001600160a01b038516179055600b805460010190556040516323b872dd60e01b81523360048201526001600160a01b038581166024830152604482018790528316906323b872dd90606401602060405180830381600087803b15801561197757600080fd5b505af115801561198b573d6000803e3d6000fd5b505050506040513d601f19601f820116820180604052508101906119af9190613909565b50600c54600d546040516323b872dd60e01b81523360048201526001600160a01b0392831660248201526044810191909152908316906323b872dd90606401602060405180830381600087803b158015611a0857600080fd5b505af1158015611a1c573d6000803e3d6000fd5b505050506040513d601f19601f82011682018060405250810190611a409190613909565b50611a4c3084886123e0565b5050506000928352505060106020526040902042600582015560060180546001600160a01b0319169055565b611a833383836127f5565b5050565b600c546001600160a01b03163314611ae15760405162461bcd60e51b815260206004820152601e60248201527f4f6e6c79206f776e65722063616e20757064617465206f70657261746f720000604482015260640161097d565b600f80546001600160a01b0319166001600160a01b0392909216919091179055565b611b0d3383612400565b611b7f5760405162461bcd60e51b815260206004820152602e60248201527f4552433732313a2063616c6c6572206973206e6f7420746f6b656e206f776e6560448201527f72206e6f7220617070726f766564000000000000000000000000000000000000606482015260840161097d565b6114fd848484846128c4565b6000818152601060205260409020600201546001600160a01b03163314611bff5760405162461bcd60e51b815260206004820152602260248201527f4f6e6c79206e667420686f6c6465722063616e20746f67676c65206c697374696044820152616e6760f01b606482015260840161097d565b611c0a3033836123e0565b6000908152601060205260409020600401805460ff19169055565b600c546001600160a01b03163314611ca55760405162461bcd60e51b815260206004820152602360248201527f4f6e6c79206f776e65722063616e20757064617465206c697374696e6720707260448201527f6963650000000000000000000000000000000000000000000000000000000000606482015260840161097d565b600d55565b6060611cb582612284565b60008281526008602052604081208054611cce90613856565b80601f0160208091040260200160405190810160405280929190818152602001828054611cfa90613856565b8015611d475780601f10611d1c57610100808354040283529160200191611d47565b820191906000526020600020905b815481529060010190602001808311611d2a57829003601f168201915b505050505090506000611d6560408051602081019091526000815290565b9050805160001415611d78575092915050565b815115611daa578082604051602001611d92929190613926565b60405160208183030381529060405292505050919050565b611db384612942565b949350505050565b6040805160e081018252600080825260208201819052918101829052606081018290526080810182905260a0810182905260c08101919091526000611dff600a5490565b600090815260106020908152604091829020825160e0810184528154815260018201546001600160a01b0390811693820193909352600282015483169381019390935260038101546060840152600481015460ff1615156080840152600581015460a0840152600601541660c082015292915050565b600f546001600160a01b03163314611ede5760405162461bcd60e51b815260206004820152602660248201527f4f6e6c79206f70657261746f722063616e2061636365737320746869732066756044820152653731ba34b7b760d11b606482015260840161097d565b611eec600a80546001019055565b6000611ef7600a5490565b9050611f0383826125a5565b611f0d81836125bf565b600e546040805160e0810182528381523060208083019182526001600160a01b03978816838501908152606084019586526000608085018181524260a0870190815260c087018381529983526010909452959020935184559151600184018054918a166001600160a01b03199283161790559151600284018054918a1691841691909117905593516003830155915160048201805491151560ff19909216919091179055915160058301559151600690910180549190941691161790915550565b60606000611fdb600a5490565b905060008167ffffffffffffffff811115611ff857611ff8613423565b60405190808252806020026020018201604052801561205f57816020015b6040805160e08101825260008082526020808301829052928201819052606082018190526080820181905260a0820181905260c082015282526000199092019101816120165790505b5090506000805b8381101561213357600061207b8260016138a7565b600081815260106020908152604091829020825160e0810184528154815260018201546001600160a01b0390811693820193909352600282015483169381019390935260038101546060840152600481015460ff1615156080840152600581015460a0840152600681015490911660c0830152865192935091869086908110612106576121066138da565b602090810291909101015261211c6001856138a7565b93505050808061212b906138bf565b915050612066565b50909392505050565b600c546001600160a01b031633146121bc5760405162461bcd60e51b815260206004820152602560248201527f4f6e6c79206f776e65722063616e2075706461746520726563656976696e672060448201527f746f6b656e000000000000000000000000000000000000000000000000000000606482015260840161097d565b601180546001600160a01b0319166001600160a01b0392909216919091179055565b6000610fef600a5490565b60006001600160e01b031982167f80ac58cd00000000000000000000000000000000000000000000000000000000148061224c57506001600160e01b031982167f5b5e139f00000000000000000000000000000000000000000000000000000000145b8061082d57507f01ffc9a7000000000000000000000000000000000000000000000000000000006001600160e01b031983161461082d565b6000818152600360205260409020546001600160a01b03166122e85760405162461bcd60e51b815260206004820152601860248201527f4552433732313a20696e76616c696420746f6b656e2049440000000000000000604482015260640161097d565b50565b600081815260056020526040902080546001600160a01b0319166001600160a01b03841690811790915581906123208261136d565b6001600160a01b03167f8c5be1e5ebec7d5bd14f71427d1e84f3dd0314c0f7b2291e5b200ac8c7c3b92560405160405180910390a45050565b600f546001600160a01b031633146123c25760405162461bcd60e51b815260206004820152602660248201527f4f6e6c79206f70657261746f722063616e2061636365737320746869732066756044820152653731ba34b7b760d11b606482015260840161097d565b6123ce33848484612668565b6123d98585856123e0565b5050505050565b600081815260076020526040902080546001019055610a3c8383836129b6565b60008061240c8361136d565b9050806001600160a01b0316846001600160a01b0316148061245357506001600160a01b0380821660009081526006602090815260408083209388168352929052205460ff165b80611db35750836001600160a01b031661246c846108c5565b6001600160a01b031614949350505050565b6000306001600160a01b037f0000000000000000000000000000000000000000000000000000000000000000161480156124d757507f000000000000000000000000000000000000000000000000000000000000000046145b1561250157507f000000000000000000000000000000000000000000000000000000000000000090565b50604080517f00000000000000000000000000000000000000000000000000000000000000006020808301919091527f0000000000000000000000000000000000000000000000000000000000000000828401527f000000000000000000000000000000000000000000000000000000000000000060608301524660808301523060a0808401919091528351808403909101815260c0909201909252805191012090565b611a83828260405180602001604052806000815250612b83565b6000828152600360205260409020546001600160a01b03166126495760405162461bcd60e51b815260206004820152602e60248201527f45524337323155524953746f726167653a2055524920736574206f66206e6f6e60448201527f6578697374656e7420746f6b656e000000000000000000000000000000000000606482015260840161097d565b60008281526008602090815260409091208251610a3c9284019061328d565b814211156126b85760405162461bcd60e51b815260206004820152601e60248201527f4552433732315065726d69743a206578706972656420646561646c696e650000604482015260640161097d565b60008381526007602090815260408083205481517f0000000000000000000000000000000000000000000000000000000000000000818501526001600160a01b0389168184015260608101889052608081019190915260a08082018790528251808303909101815260c090910190915280519101209061273782612c01565b905060006127458285612c6a565b50905060006001600160a01b0382161580159061276757506127678288612400565b90508080612783575061278361277c8861136d565b8487612cb0565b80612795575061279561277c886108c5565b6127e15760405162461bcd60e51b815260206004820152601f60248201527f4552433732315065726d69743a20696e76616c6964207369676e617475726500604482015260640161097d565b6127eb88886122eb565b5050505050505050565b816001600160a01b0316836001600160a01b031614156128575760405162461bcd60e51b815260206004820152601960248201527f4552433732313a20617070726f766520746f2063616c6c657200000000000000604482015260640161097d565b6001600160a01b03838116600081815260066020908152604080832094871680845294825291829020805460ff191686151590811790915591519182527f17307eab39ab6107e8899845ad3d59bd9653f200f220920489ca2b5937696c31910160405180910390a3505050565b6128cf8484846123e0565b6128db84848484612dd4565b6114fd5760405162461bcd60e51b815260206004820152603260248201527f4552433732313a207472616e7366657220746f206e6f6e20455243373231526560448201527131b2b4bb32b91034b6b83632b6b2b73a32b960711b606482015260840161097d565b606061294d82612284565b600061296460408051602081019091526000815290565b9050600081511161298457604051806020016040528060008152506129af565b8061298e84612f2c565b60405160200161299f929190613926565b6040516020818303038152906040525b9392505050565b826001600160a01b03166129c98261136d565b6001600160a01b031614612a455760405162461bcd60e51b815260206004820152602560248201527f4552433732313a207472616e736665722066726f6d20696e636f72726563742060448201527f6f776e6572000000000000000000000000000000000000000000000000000000606482015260840161097d565b6001600160a01b038216612ac05760405162461bcd60e51b8152602060048201526024808201527f4552433732313a207472616e7366657220746f20746865207a65726f2061646460448201527f7265737300000000000000000000000000000000000000000000000000000000606482015260840161097d565b612acb6000826122eb565b6001600160a01b0383166000908152600460205260408120805460019290612af4908490613955565b90915550506001600160a01b0382166000908152600460205260408120805460019290612b229084906138a7565b909155505060008181526003602052604080822080546001600160a01b0319166001600160a01b0386811691821790925591518493918716917fddf252ad1be2c89b69c2b068fc378daa952ba7f163c4a11628f55a4df523b3ef91a4505050565b612b8d838361305e565b612b9a6000848484612dd4565b610a3c5760405162461bcd60e51b815260206004820152603260248201527f4552433732313a207472616e7366657220746f206e6f6e20455243373231526560448201527131b2b4bb32b91034b6b83632b6b2b73a32b960711b606482015260840161097d565b600061082d612c0e61247e565b836040517f19010000000000000000000000000000000000000000000000000000000000006020820152602281018390526042810182905260009060620160405160208183030381529060405280519060200120905092915050565b600080825160411415612ca15760208301516040840151606085015160001a612c95878285856131a0565b94509450505050612ca9565b506000905060025b9250929050565b6000806000856001600160a01b0316631626ba7e60e01b8686604051602401612cda92919061396c565b60408051601f198184030181529181526020820180517bffffffffffffffffffffffffffffffffffffffffffffffffffffffff166001600160e01b0319909416939093179092529051612d2d9190613985565b600060405180830381855afa9150503d8060008114612d68576040519150601f19603f3d011682016040523d82523d6000602084013e612d6d565b606091505b5091509150818015612d80575080516020145b8015612dca575080517f1626ba7e0000000000000000000000000000000000000000000000000000000090612dbe90830160209081019084016139a1565b6001600160e01b031916145b9695505050505050565b60006001600160a01b0384163b15612f2157604051630a85bd0160e11b81526001600160a01b0385169063150b7a0290612e189033908990889088906004016139be565b602060405180830381600087803b158015612e3257600080fd5b505af1925050508015612e62575060408051601f3d908101601f19168201909252612e5f918101906139a1565b60015b612f07573d808015612e90576040519150601f19603f3d011682016040523d82523d6000602084013e612e95565b606091505b508051612eff5760405162461bcd60e51b815260206004820152603260248201527f4552433732313a207472616e7366657220746f206e6f6e20455243373231526560448201527131b2b4bb32b91034b6b83632b6b2b73a32b960711b606482015260840161097d565b805181602001fd5b6001600160e01b031916630a85bd0160e11b149050611db3565b506001949350505050565b606081612f6c57505060408051808201909152600181527f3000000000000000000000000000000000000000000000000000000000000000602082015290565b8160005b8115612f965780612f80816138bf565b9150612f8f9050600a83613a06565b9150612f70565b60008167ffffffffffffffff811115612fb157612fb1613423565b6040519080825280601f01601f191660200182016040528015612fdb576020820181803683370190505b5090505b8415611db357612ff0600183613955565b9150612ffd600a86613a1a565b6130089060306138a7565b60f81b81838151811061301d5761301d6138da565b60200101907effffffffffffffffffffffffffffffffffffffffffffffffffffffffffffff1916908160001a905350613057600a86613a06565b9450612fdf565b6001600160a01b0382166130b45760405162461bcd60e51b815260206004820181905260248201527f4552433732313a206d696e7420746f20746865207a65726f2061646472657373604482015260640161097d565b6000818152600360205260409020546001600160a01b0316156131195760405162461bcd60e51b815260206004820152601c60248201527f4552433732313a20746f6b656e20616c7265616479206d696e74656400000000604482015260640161097d565b6001600160a01b03821660009081526004602052604081208054600192906131429084906138a7565b909155505060008181526003602052604080822080546001600160a01b0319166001600160a01b03861690811790915590518392907fddf252ad1be2c89b69c2b068fc378daa952ba7f163c4a11628f55a4df523b3ef908290a45050565b6000807f7fffffffffffffffffffffffffffffff5d576e7357a4501ddfe92f46681b20a08311156131d75750600090506003613284565b8460ff16601b141580156131ef57508460ff16601c14155b156132005750600090506004613284565b6040805160008082526020820180845289905260ff881692820192909252606081018690526080810185905260019060a0016020604051602081039080840390855afa158015613254573d6000803e3d6000fd5b5050604051601f1901519150506001600160a01b03811661327d57600060019250925050613284565b9150600090505b94509492505050565b82805461329990613856565b90600052602060002090601f0160209004810192826132bb5760008555613301565b82601f106132d457805160ff1916838001178555613301565b82800160010185558215613301579182015b828111156133015782518255916020019190600101906132e6565b5061330d929150613311565b5090565b5b8082111561330d5760008155600101613312565b6001600160e01b0319811681146122e857600080fd5b60006020828403121561334e57600080fd5b81356129af81613326565b60005b8381101561337457818101518382015260200161335c565b838111156114fd5750506000910152565b6000815180845261339d816020860160208601613359565b601f01601f19169290920160200192915050565b6020815260006129af6020830184613385565b6000602082840312156133d657600080fd5b5035919050565b80356001600160a01b03811681146133f457600080fd5b919050565b6000806040838503121561340c57600080fd5b613415836133dd565b946020939093013593505050565b634e487b7160e01b600052604160045260246000fd5b600082601f83011261344a57600080fd5b813567ffffffffffffffff8082111561346557613465613423565b604051601f8301601f19908116603f0116810190828211818310171561348d5761348d613423565b816040528381528660208588010111156134a657600080fd5b836020870160208301376000602085830101528094505050505092915050565b600080600080600060a086880312156134de57600080fd5b6134e7866133dd565b9450602086013593506040860135925060608601359150608086013567ffffffffffffffff81111561351857600080fd5b61352488828901613439565b9150509295509295909350565b6000806040838503121561354457600080fd5b50508035926020909101359150565b60008060006060848603121561356857600080fd5b613571846133dd565b925061357f602085016133dd565b9150604084013590509250925092565b6000602082840312156135a157600080fd5b813567ffffffffffffffff8111156135b857600080fd5b611db384828501613439565b6020808252825182820181905260009190848201906040850190845b81811015613658576136458385518051825260208101516001600160a01b0380821660208501528060408401511660408501526060830151606085015260808301511515608085015260a083015160a08501528060c08401511660c085015250505050565b9284019260e092909201916001016135e0565b50909695505050505050565b60006020828403121561367657600080fd5b6129af826133dd565b6000806000806080858703121561369557600080fd5b61369e856133dd565b93506020850135925060408501359150606085013567ffffffffffffffff8111156136c857600080fd5b6136d487828801613439565b91505092959194509250565b60e0810161082d82848051825260208101516001600160a01b0380821660208501528060408401511660408501526060830151606085015260808301511515608085015260a083015160a08501528060c08401511660c085015250505050565b80151581146122e857600080fd5b6000806040838503121561376157600080fd5b61376a836133dd565b9150602083013561377a81613740565b809150509250929050565b6000806000806080858703121561379b57600080fd5b6137a4856133dd565b93506137b2602086016133dd565b925060408501359150606085013567ffffffffffffffff8111156136c857600080fd5b600080604083850312156137e857600080fd5b6137f1836133dd565b9150602083013567ffffffffffffffff81111561380d57600080fd5b61381985828601613439565b9150509250929050565b6000806040838503121561383657600080fd5b61383f836133dd565b915061384d602084016133dd565b90509250929050565b600181811c9082168061386a57607f821691505b6020821081141561388b57634e487b7160e01b600052602260045260246000fd5b50919050565b634e487b7160e01b600052601160045260246000fd5b600082198211156138ba576138ba613891565b500190565b60006000198214156138d3576138d3613891565b5060010190565b634e487b7160e01b600052603260045260246000fd5b60006020828403121561390257600080fd5b5051919050565b60006020828403121561391b57600080fd5b81516129af81613740565b60008351613938818460208801613359565b83519083019061394c818360208801613359565b01949350505050565b60008282101561396757613967613891565b500390565b828152604060208201526000611db36040830184613385565b60008251613997818460208701613359565b9190910192915050565b6000602082840312156139b357600080fd5b81516129af81613326565b60006001600160a01b03808716835280861660208401525083604083015260806060830152612dca6080830184613385565b634e487b7160e01b600052601260045260246000fd5b600082613a1557613a156139f0565b500490565b600082613a2957613a296139f0565b50069056fea264697066735822122079bb0b1fc2e7c794170a1c0c2c6394c7978e207a5f318bbab8b0a908cfcf4e4964736f6c63430008090033",
    "linkReferences": {},
    "deployedLinkReferences": {}
}