{
    "_format": "hh-sol-artifact-1",
    "contractName": "NFTMarketplace",
    "sourceName": "contracts/NFTMarketplace.sol",
    "abi": [
        {
            "inputs": [
                {
                    "internalType": "address",
                    "name": "_operator",
                    "type": "address"
                },
                {
                    "internalType": "address",
                    "name": "_receivingToken",
                    "type": "address"
                }
            ],
            "stateMutability": "nonpayable",
            "type": "constructor"
        },
        {
            "anonymous": false,
            "inputs": [
                {
                    "indexed": true,
                    "internalType": "address",
                    "name": "owner",
                    "type": "address"
                },
                {
                    "indexed": true,
                    "internalType": "address",
                    "name": "approved",
                    "type": "address"
                },
                {
                    "indexed": true,
                    "internalType": "uint256",
                    "name": "tokenId",
                    "type": "uint256"
                }
            ],
            "name": "Approval",
            "type": "event"
        },
        {
            "anonymous": false,
            "inputs": [
                {
                    "indexed": true,
                    "internalType": "address",
                    "name": "owner",
                    "type": "address"
                },
                {
                    "indexed": true,
                    "internalType": "address",
                    "name": "operator",
                    "type": "address"
                },
                {
                    "indexed": false,
                    "internalType": "bool",
                    "name": "approved",
                    "type": "bool"
                }
            ],
            "name": "ApprovalForAll",
            "type": "event"
        },
        {
            "anonymous": false,
            "inputs": [
                {
                    "indexed": true,
                    "internalType": "uint256",
                    "name": "tokenId",
                    "type": "uint256"
                },
                {
                    "indexed": false,
                    "internalType": "address",
                    "name": "owner",
                    "type": "address"
                },
                {
                    "indexed": false,
                    "internalType": "address",
                    "name": "seller",
                    "type": "address"
                },
                {
                    "indexed": false,
                    "internalType": "uint256",
                    "name": "price",
                    "type": "uint256"
                },
                {
                    "indexed": false,
                    "internalType": "bool",
                    "name": "currentlyListed",
                    "type": "bool"
                },
                {
                    "indexed": false,
                    "internalType": "string",
                    "name": "tokenURI",
                    "type": "string"
                },
                {
                    "indexed": false,
                    "internalType": "uint256",
                    "name": "reservedUntil",
                    "type": "uint256"
                },
                {
                    "indexed": false,
                    "internalType": "address",
                    "name": "lastReservedBy",
                    "type": "address"
                }
            ],
            "name": "TokenListedSuccess",
            "type": "event"
        },
        {
            "anonymous": false,
            "inputs": [
                {
                    "indexed": true,
                    "internalType": "address",
                    "name": "from",
                    "type": "address"
                },
                {
                    "indexed": true,
                    "internalType": "address",
                    "name": "to",
                    "type": "address"
                },
                {
                    "indexed": true,
                    "internalType": "uint256",
                    "name": "tokenId",
                    "type": "uint256"
                }
            ],
            "name": "Transfer",
            "type": "event"
        },
        {
            "inputs": [],
            "name": "DOMAIN_SEPARATOR",
            "outputs": [
                {
                    "internalType": "bytes32",
                    "name": "",
                    "type": "bytes32"
                }
            ],
            "stateMutability": "view",
            "type": "function"
        },
        {
            "inputs": [
                {
                    "internalType": "address",
                    "name": "to",
                    "type": "address"
                },
                {
                    "internalType": "uint256",
                    "name": "tokenId",
                    "type": "uint256"
                }
            ],
            "name": "approve",
            "outputs": [],
            "stateMutability": "nonpayable",
            "type": "function"
        },
        {
            "inputs": [
                {
                    "internalType": "address",
                    "name": "owner",
                    "type": "address"
                }
            ],
            "name": "balanceOf",
            "outputs": [
                {
                    "internalType": "uint256",
                    "name": "",
                    "type": "uint256"
                }
            ],
            "stateMutability": "view",
            "type": "function"
        },
        {
            "inputs": [
                {
                    "internalType": "string",
                    "name": "tokenURI",
                    "type": "string"
                }
            ],
            "name": "createToken",
            "outputs": [
                {
                    "internalType": "uint256",
                    "name": "",
                    "type": "uint256"
                }
            ],
            "stateMutability": "payable",
            "type": "function"
        },
        {
            "inputs": [
                {
                    "internalType": "address",
                    "name": "recipient",
                    "type": "address"
                },
                {
                    "internalType": "string",
                    "name": "tokenURI",
                    "type": "string"
                }
            ],
            "name": "crossCreateToken",
            "outputs": [],
            "stateMutability": "payable",
            "type": "function"
        },
        {
            "inputs": [
                {
                    "internalType": "address",
                    "name": "recipient",
                    "type": "address"
                },
                {
                    "internalType": "uint256",
                    "name": "tokenId",
                    "type": "uint256"
                }
            ],
            "name": "crossDelistToken",
            "outputs": [],
            "stateMutability": "nonpayable",
            "type": "function"
        },
        {
            "inputs": [
                {
                    "internalType": "address",
                    "name": "recipient",
                    "type": "address"
                },
                {
                    "internalType": "uint256",
                    "name": "tokenId",
                    "type": "uint256"
                }
            ],
            "name": "crossExecuteSale",
            "outputs": [],
            "stateMutability": "nonpayable",
            "type": "function"
        },
        {
            "inputs": [
                {
                    "internalType": "address",
                    "name": "recipient",
                    "type": "address"
                },
                {
                    "internalType": "uint256",
                    "name": "tokenId",
                    "type": "uint256"
                },
                {
                    "internalType": "uint256",
                    "name": "price",
                    "type": "uint256"
                },
                {
                    "internalType": "uint256",
                    "name": "deadline",
                    "type": "uint256"
                },
                {
                    "internalType": "bytes",
                    "name": "signature",
                    "type": "bytes"
                }
            ],
            "name": "crossSetListToken",
            "outputs": [],
            "stateMutability": "nonpayable",
            "type": "function"
        },
        {
            "inputs": [
                {
                    "internalType": "uint256",
                    "name": "tokenId",
                    "type": "uint256"
                }
            ],
            "name": "delistToken",
            "outputs": [],
            "stateMutability": "nonpayable",
            "type": "function"
        },
        {
            "inputs": [
                {
                    "internalType": "uint256",
                    "name": "tokenId",
                    "type": "uint256"
                }
            ],
            "name": "executeSale",
            "outputs": [],
            "stateMutability": "payable",
            "type": "function"
        },
        {
            "inputs": [
                {
                    "internalType": "bool",
                    "name": "listedOnly",
                    "type": "bool"
                }
            ],
            "name": "getAllNFTs",
            "outputs": [
                {
                    "components": [
                        {
                            "internalType": "uint256",
                            "name": "tokenId",
                            "type": "uint256"
                        },
                        {
                            "internalType": "address payable",
                            "name": "owner",
                            "type": "address"
                        },
                        {
                            "internalType": "address payable",
                            "name": "seller",
                            "type": "address"
                        },
                        {
                            "internalType": "uint256",
                            "name": "price",
                            "type": "uint256"
                        },
                        {
                            "internalType": "bool",
                            "name": "currentlyListed",
                            "type": "bool"
                        },
                        {
                            "internalType": "string",
                            "name": "tokenURI",
                            "type": "string"
                        },
                        {
                            "internalType": "uint256",
                            "name": "reservedUntil",
                            "type": "uint256"
                        },
                        {
                            "internalType": "address",
                            "name": "lastReservedBy",
                            "type": "address"
                        }
                    ],
                    "internalType": "struct NFTMarketplace.ListedToken[]",
                    "name": "",
                    "type": "tuple[]"
                }
            ],
            "stateMutability": "view",
            "type": "function"
        },
        {
            "inputs": [
                {
                    "internalType": "uint256",
                    "name": "tokenId",
                    "type": "uint256"
                }
            ],
            "name": "getApproved",
            "outputs": [
                {
                    "internalType": "address",
                    "name": "",
                    "type": "address"
                }
            ],
            "stateMutability": "view",
            "type": "function"
        },
        {
            "inputs": [],
            "name": "getCurrentToken",
            "outputs": [
                {
                    "internalType": "uint256",
                    "name": "",
                    "type": "uint256"
                }
            ],
            "stateMutability": "view",
            "type": "function"
        },
        {
            "inputs": [],
            "name": "getFloorPrice",
            "outputs": [
                {
                    "internalType": "uint256",
                    "name": "",
                    "type": "uint256"
                }
            ],
            "stateMutability": "view",
            "type": "function"
        },
        {
            "inputs": [
                {
                    "internalType": "address",
                    "name": "holder",
                    "type": "address"
                },
                {
                    "internalType": "bool",
                    "name": "listedOnly",
                    "type": "bool"
                }
            ],
            "name": "getHolderNFTs",
            "outputs": [
                {
                    "components": [
                        {
                            "internalType": "uint256",
                            "name": "tokenId",
                            "type": "uint256"
                        },
                        {
                            "internalType": "address payable",
                            "name": "owner",
                            "type": "address"
                        },
                        {
                            "internalType": "address payable",
                            "name": "seller",
                            "type": "address"
                        },
                        {
                            "internalType": "uint256",
                            "name": "price",
                            "type": "uint256"
                        },
                        {
                            "internalType": "bool",
                            "name": "currentlyListed",
                            "type": "bool"
                        },
                        {
                            "internalType": "string",
                            "name": "tokenURI",
                            "type": "string"
                        },
                        {
                            "internalType": "uint256",
                            "name": "reservedUntil",
                            "type": "uint256"
                        },
                        {
                            "internalType": "address",
                            "name": "lastReservedBy",
                            "type": "address"
                        }
                    ],
                    "internalType": "struct NFTMarketplace.ListedToken[]",
                    "name": "",
                    "type": "tuple[]"
                }
            ],
            "stateMutability": "view",
            "type": "function"
        },
        {
            "inputs": [],
            "name": "getLatestIdToListedToken",
            "outputs": [
                {
                    "components": [
                        {
                            "internalType": "uint256",
                            "name": "tokenId",
                            "type": "uint256"
                        },
                        {
                            "internalType": "address payable",
                            "name": "owner",
                            "type": "address"
                        },
                        {
                            "internalType": "address payable",
                            "name": "seller",
                            "type": "address"
                        },
                        {
                            "internalType": "uint256",
                            "name": "price",
                            "type": "uint256"
                        },
                        {
                            "internalType": "bool",
                            "name": "currentlyListed",
                            "type": "bool"
                        },
                        {
                            "internalType": "string",
                            "name": "tokenURI",
                            "type": "string"
                        },
                        {
                            "internalType": "uint256",
                            "name": "reservedUntil",
                            "type": "uint256"
                        },
                        {
                            "internalType": "address",
                            "name": "lastReservedBy",
                            "type": "address"
                        }
                    ],
                    "internalType": "struct NFTMarketplace.ListedToken",
                    "name": "",
                    "type": "tuple"
                }
            ],
            "stateMutability": "view",
            "type": "function"
        },
        {
            "inputs": [],
            "name": "getListPrice",
            "outputs": [
                {
                    "internalType": "uint256",
                    "name": "",
                    "type": "uint256"
                }
            ],
            "stateMutability": "view",
            "type": "function"
        },
        {
            "inputs": [
                {
                    "internalType": "uint256",
                    "name": "tokenId",
                    "type": "uint256"
                }
            ],
            "name": "getListedTokenForId",
            "outputs": [
                {
                    "components": [
                        {
                            "internalType": "uint256",
                            "name": "tokenId",
                            "type": "uint256"
                        },
                        {
                            "internalType": "address payable",
                            "name": "owner",
                            "type": "address"
                        },
                        {
                            "internalType": "address payable",
                            "name": "seller",
                            "type": "address"
                        },
                        {
                            "internalType": "uint256",
                            "name": "price",
                            "type": "uint256"
                        },
                        {
                            "internalType": "bool",
                            "name": "currentlyListed",
                            "type": "bool"
                        },
                        {
                            "internalType": "string",
                            "name": "tokenURI",
                            "type": "string"
                        },
                        {
                            "internalType": "uint256",
                            "name": "reservedUntil",
                            "type": "uint256"
                        },
                        {
                            "internalType": "address",
                            "name": "lastReservedBy",
                            "type": "address"
                        }
                    ],
                    "internalType": "struct NFTMarketplace.ListedToken",
                    "name": "",
                    "type": "tuple"
                }
            ],
            "stateMutability": "view",
            "type": "function"
        },
        {
            "inputs": [],
            "name": "getMyNFTs",
            "outputs": [
                {
                    "components": [
                        {
                            "internalType": "uint256",
                            "name": "tokenId",
                            "type": "uint256"
                        },
                        {
                            "internalType": "address payable",
                            "name": "owner",
                            "type": "address"
                        },
                        {
                            "internalType": "address payable",
                            "name": "seller",
                            "type": "address"
                        },
                        {
                            "internalType": "uint256",
                            "name": "price",
                            "type": "uint256"
                        },
                        {
                            "internalType": "bool",
                            "name": "currentlyListed",
                            "type": "bool"
                        },
                        {
                            "internalType": "string",
                            "name": "tokenURI",
                            "type": "string"
                        },
                        {
                            "internalType": "uint256",
                            "name": "reservedUntil",
                            "type": "uint256"
                        },
                        {
                            "internalType": "address",
                            "name": "lastReservedBy",
                            "type": "address"
                        }
                    ],
                    "internalType": "struct NFTMarketplace.ListedToken[]",
                    "name": "",
                    "type": "tuple[]"
                }
            ],
            "stateMutability": "view",
            "type": "function"
        },
        {
            "inputs": [],
            "name": "getOperator",
            "outputs": [
                {
                    "internalType": "address",
                    "name": "",
                    "type": "address"
                }
            ],
            "stateMutability": "view",
            "type": "function"
        },
        {
            "inputs": [],
            "name": "getOwner",
            "outputs": [
                {
                    "internalType": "address",
                    "name": "",
                    "type": "address"
                }
            ],
            "stateMutability": "view",
            "type": "function"
        },
        {
            "inputs": [],
            "name": "getReceivingToken",
            "outputs": [
                {
                    "internalType": "address",
                    "name": "",
                    "type": "address"
                }
            ],
            "stateMutability": "view",
            "type": "function"
        },
        {
            "inputs": [
                {
                    "internalType": "address",
                    "name": "owner",
                    "type": "address"
                },
                {
                    "internalType": "address",
                    "name": "operator",
                    "type": "address"
                }
            ],
            "name": "isApprovedForAll",
            "outputs": [
                {
                    "internalType": "bool",
                    "name": "",
                    "type": "bool"
                }
            ],
            "stateMutability": "view",
            "type": "function"
        },
        {
            "inputs": [],
            "name": "name",
            "outputs": [
                {
                    "internalType": "string",
                    "name": "",
                    "type": "string"
                }
            ],
            "stateMutability": "view",
            "type": "function"
        },
        {
            "inputs": [
                {
                    "internalType": "uint256",
                    "name": "tokenId",
                    "type": "uint256"
                }
            ],
            "name": "nonces",
            "outputs": [
                {
                    "internalType": "uint256",
                    "name": "",
                    "type": "uint256"
                }
            ],
            "stateMutability": "view",
            "type": "function"
        },
        {
            "inputs": [
                {
                    "internalType": "uint256",
                    "name": "tokenId",
                    "type": "uint256"
                }
            ],
            "name": "ownerOf",
            "outputs": [
                {
                    "internalType": "address",
                    "name": "",
                    "type": "address"
                }
            ],
            "stateMutability": "view",
            "type": "function"
        },
        {
            "inputs": [
                {
                    "internalType": "address",
                    "name": "spender",
                    "type": "address"
                },
                {
                    "internalType": "uint256",
                    "name": "tokenId",
                    "type": "uint256"
                },
                {
                    "internalType": "uint256",
                    "name": "deadline",
                    "type": "uint256"
                },
                {
                    "internalType": "bytes",
                    "name": "signature",
                    "type": "bytes"
                }
            ],
            "name": "permit",
            "outputs": [],
            "stateMutability": "nonpayable",
            "type": "function"
        },
        {
            "inputs": [
                {
                    "internalType": "address",
                    "name": "from",
                    "type": "address"
                },
                {
                    "internalType": "address",
                    "name": "to",
                    "type": "address"
                },
                {
                    "internalType": "uint256",
                    "name": "tokenId",
                    "type": "uint256"
                }
            ],
            "name": "safeTransferFrom",
            "outputs": [],
            "stateMutability": "nonpayable",
            "type": "function"
        },
        {
            "inputs": [
                {
                    "internalType": "address",
                    "name": "from",
                    "type": "address"
                },
                {
                    "internalType": "address",
                    "name": "to",
                    "type": "address"
                },
                {
                    "internalType": "uint256",
                    "name": "tokenId",
                    "type": "uint256"
                },
                {
                    "internalType": "bytes",
                    "name": "data",
                    "type": "bytes"
                }
            ],
            "name": "safeTransferFrom",
            "outputs": [],
            "stateMutability": "nonpayable",
            "type": "function"
        },
        {
            "inputs": [
                {
                    "internalType": "address",
                    "name": "operator",
                    "type": "address"
                },
                {
                    "internalType": "bool",
                    "name": "approved",
                    "type": "bool"
                }
            ],
            "name": "setApprovalForAll",
            "outputs": [],
            "stateMutability": "nonpayable",
            "type": "function"
        },
        {
            "inputs": [
                {
                    "internalType": "uint256",
                    "name": "tokenId",
                    "type": "uint256"
                },
                {
                    "internalType": "uint256",
                    "name": "price",
                    "type": "uint256"
                }
            ],
            "name": "setListToken",
            "outputs": [],
            "stateMutability": "nonpayable",
            "type": "function"
        },
        {
            "inputs": [
                {
                    "internalType": "bytes4",
                    "name": "interfaceId",
                    "type": "bytes4"
                }
            ],
            "name": "supportsInterface",
            "outputs": [
                {
                    "internalType": "bool",
                    "name": "",
                    "type": "bool"
                }
            ],
            "stateMutability": "view",
            "type": "function"
        },
        {
            "inputs": [],
            "name": "symbol",
            "outputs": [
                {
                    "internalType": "string",
                    "name": "",
                    "type": "string"
                }
            ],
            "stateMutability": "view",
            "type": "function"
        },
        {
            "inputs": [
                {
                    "internalType": "uint256",
                    "name": "tokenId",
                    "type": "uint256"
                }
            ],
            "name": "tokenURI",
            "outputs": [
                {
                    "internalType": "string",
                    "name": "",
                    "type": "string"
                }
            ],
            "stateMutability": "view",
            "type": "function"
        },
        {
            "inputs": [
                {
                    "internalType": "address",
                    "name": "from",
                    "type": "address"
                },
                {
                    "internalType": "address",
                    "name": "to",
                    "type": "address"
                },
                {
                    "internalType": "uint256",
                    "name": "tokenId",
                    "type": "uint256"
                }
            ],
            "name": "transferFrom",
            "outputs": [],
            "stateMutability": "nonpayable",
            "type": "function"
        },
        {
            "inputs": [
                {
                    "internalType": "uint256",
                    "name": "_floorPrice",
                    "type": "uint256"
                }
            ],
            "name": "updateFloorPrice",
            "outputs": [],
            "stateMutability": "nonpayable",
            "type": "function"
        },
        {
            "inputs": [
                {
                    "internalType": "uint256",
                    "name": "_listPrice",
                    "type": "uint256"
                }
            ],
            "name": "updateListPrice",
            "outputs": [],
            "stateMutability": "nonpayable",
            "type": "function"
        },
        {
            "inputs": [
                {
                    "internalType": "address",
                    "name": "_operator",
                    "type": "address"
                }
            ],
            "name": "updateOperator",
            "outputs": [],
            "stateMutability": "nonpayable",
            "type": "function"
        },
        {
            "inputs": [
                {
                    "internalType": "address",
                    "name": "_receivingToken",
                    "type": "address"
                }
            ],
            "name": "updateReceivingToken",
            "outputs": [],
            "stateMutability": "nonpayable",
            "type": "function"
        }
    ],
    "bytecode": "0x6101606040527f49ecf333e5b8c95c40fdafc95c1ad136e8914a8fb55e9dc8bb01eaa83a2df9ad6101405261c350600d55620186a0600e553480156200004457600080fd5b506040516200455838038062004558833981016040819052620000679162000296565b6040518060400160405280600e81526020016d4e46544d61726b6574706c61636560901b815250604051806040016040528060048152602001634e46544d60e01b81525081604051806040016040528060018152602001603160f81b815250838360016000819055508160019080519060200190620000e8929190620001d3565b508051620000fe906002906020840190620001d3565b5050825160209384012082519284019290922060e08390526101008190524660a0818152604080517f8b73c3c69bb8fe3d512ecc4cf759cc79239f7b179b0ffacaa9a75d522b39400f818901819052818301979097526060810194909452608080850193909352308483018190528151808603909301835260c094850190915281519190960120905292909252610120525050600c8054336001600160a01b031991821617909155600f805482166001600160a01b03958616179055601180549091169290931691909117909155506200030b565b828054620001e190620002ce565b90600052602060002090601f01602090048101928262000205576000855562000250565b82601f106200022057805160ff191683800117855562000250565b8280016001018555821562000250579182015b828111156200025057825182559160200191906001019062000233565b506200025e92915062000262565b5090565b5b808211156200025e576000815560010162000263565b80516001600160a01b03811681146200029157600080fd5b919050565b60008060408385031215620002aa57600080fd5b620002b58362000279565b9150620002c56020840162000279565b90509250929050565b600181811c90821680620002e357607f821691505b602082108114156200030557634e487b7160e01b600052602260045260246000fd5b50919050565b60805160a05160c05160e0516101005161012051610140516141f2620003666000396000612df801526000612b3b01526000612b8a01526000612b6501526000612abe01526000612ae801526000612b1201526141f26000f3fe6080604052600436106102a05760003560e01c806370a082311161016e578063b88d4fde116100cb578063d5b2d7121161007f578063e985e9c511610064578063e985e9c51461070f578063eb42dad914610758578063ef2d17461461077857600080fd5b8063d5b2d712146106de578063e7f43c68146106f157600080fd5b8063c322579c116100b0578063c322579c14610689578063c87b56dd146106a9578063d1a88ae5146106c957600080fd5b8063b88d4fde14610649578063bed659bc1461066957600080fd5b806395d89b4111610122578063a22cb46511610107578063a22cb465146105e9578063a83835c714610609578063ac7475ed1461062957600080fd5b806395d89b41146105c15780639b1225c4146105d657600080fd5b8063893d20e811610153578063893d20e8146105565780638e264590146105745780638e9c072c146105a157600080fd5b806370a0823114610516578063745a41bc1461053657600080fd5b80632d04fa8b1161021c57806345576f94116101d05780636352211e116101b55780636352211e146104c157806368f1945f146104e15780636eb7f72e146104f657600080fd5b806345576f9414610499578063629cb2e4146104ac57600080fd5b80633644e515116102015780633644e51514610437578063375ea4b71461044c57806342842e0e1461047957600080fd5b80632d04fa8b146103f95780632efcc8f11461041757600080fd5b80630e03aad0116102735780631a1f1115116102585780631a1f1115146103a457806323b872dd146103c45780632a33d6b2146103e457600080fd5b80630e03aad014610356578063141a468c1461037657600080fd5b806301ffc9a7146102a557806306fdde03146102da578063081812fc146102fc578063095ea7b314610334575b600080fd5b3480156102b157600080fd5b506102c56102c0366004613a66565b61078d565b60405190151581526020015b60405180910390f35b3480156102e657600080fd5b506102ef6107d1565b6040516102d19190613adb565b34801561030857600080fd5b5061031c610317366004613aee565b610863565b6040516001600160a01b0390911681526020016102d1565b34801561034057600080fd5b5061035461034f366004613b23565b61088a565b005b34801561036257600080fd5b50610354610371366004613bf0565b6109c1565b34801561038257600080fd5b50610396610391366004613aee565b610be9565b6040519081526020016102d1565b3480156103b057600080fd5b506103546103bf366004613c5b565b610bfd565b3480156103d057600080fd5b506103546103df366004613c7d565b610dc1565b3480156103f057600080fd5b50600e54610396565b34801561040557600080fd5b506011546001600160a01b031661031c565b34801561042357600080fd5b50610354610432366004613b23565b610e48565b34801561044357600080fd5b50610396610f4f565b34801561045857600080fd5b5061046c610467366004613cc7565b610f5e565b6040516102d19190613d7b565b34801561048557600080fd5b50610354610494366004613c7d565b61139a565b6103966104a7366004613ddd565b6113b5565b3480156104b857600080fd5b5061046c6113f4565b3480156104cd57600080fd5b5061031c6104dc366004613aee565b61170c565b3480156104ed57600080fd5b50600d54610396565b34801561050257600080fd5b50610354610511366004613aee565b611771565b34801561052257600080fd5b50610396610531366004613e12565b6117f6565b34801561054257600080fd5b50610354610551366004613e2d565b611890565b34801561056257600080fd5b50600c546001600160a01b031661031c565b34801561058057600080fd5b5061059461058f366004613aee565b6118a2565b6040516102d19190613e8e565b3480156105ad57600080fd5b506103546105bc366004613b23565b6119fe565b3480156105cd57600080fd5b506102ef611ad9565b6103546105e4366004613aee565b611ae8565b3480156105f557600080fd5b50610354610604366004613cc7565b611f73565b34801561061557600080fd5b5061046c610624366004613ea1565b611f82565b34801561063557600080fd5b50610354610644366004613e12565b6122d2565b34801561065557600080fd5b50610354610664366004613ebe565b61234e565b34801561067557600080fd5b50610354610684366004613aee565b6123d6565b34801561069557600080fd5b506103546106a4366004613aee565b612470565b3480156106b557600080fd5b506102ef6106c4366004613aee565b6124f5565b3480156106d557600080fd5b50610594612606565b6103546106ec366004613f0e565b6126c9565b3480156106fd57600080fd5b50600f546001600160a01b031661031c565b34801561071b57600080fd5b506102c561072a366004613f5c565b6001600160a01b03918216600090815260066020908152604080832093909416825291909152205460ff1690565b34801561076457600080fd5b50610354610773366004613e12565b61276f565b34801561078457600080fd5b50610396612811565b60006001600160e01b031982167f5604e2250000000000000000000000000000000000000000000000000000000014806107cb57506107cb8261281c565b92915050565b6060600180546107e090613f8f565b80601f016020809104026020016040519081016040528092919081815260200182805461080c90613f8f565b80156108595780601f1061082e57610100808354040283529160200191610859565b820191906000526020600020905b81548152906001019060200180831161083c57829003601f168201915b5050505050905090565b600061086e826128b7565b506000908152600560205260409020546001600160a01b031690565b60006108958261170c565b9050806001600160a01b0316836001600160a01b031614156109245760405162461bcd60e51b815260206004820152602160248201527f4552433732313a20617070726f76616c20746f2063757272656e74206f776e6560448201527f720000000000000000000000000000000000000000000000000000000000000060648201526084015b60405180910390fd5b336001600160a01b03821614806109405750610940813361072a565b6109b25760405162461bcd60e51b815260206004820152603e60248201527f4552433732313a20617070726f76652063616c6c6572206973206e6f7420746f60448201527f6b656e206f776e6572206e6f7220617070726f76656420666f7220616c6c0000606482015260840161091b565b6109bc838361291e565b505050565b600f546001600160a01b03163314610a2a5760405162461bcd60e51b815260206004820152602660248201527f4f6e6c79206f70657261746f722063616e2061636365737320746869732066756044820152653731ba34b7b760d11b606482015260840161091b565b60008311610a855760405162461bcd60e51b815260206004820152602260248201527f4d616b652073757265207468652070726963652069736e2774206e6567617469604482015261766560f01b606482015260840161091b565b600d54831015610ae75760405162461bcd60e51b815260206004820152602760248201527f596f75206e65656420746f20696e636c756465206c697374696e6720707269636044820152660ca40d2dc40e8f60cb1b606482015260840161091b565b6000848152601060205260409020600201546001600160a01b03868116911614610b5e5760405162461bcd60e51b815260206004820152602260248201527f4f6e6c79206e667420686f6c6465722063616e20746f67676c65206c697374696044820152616e6760f01b606482015260840161091b565b610b6b853086858561298c565b6000610b76856124f5565b9050847ff9b6347d225a41fcd6b66bf31037b1e809a28c2eb145e406ba89cc2d835ec8d4308887600186426000604051610bb69796959493929190613fca565b60405180910390a25050506000918252601060205260409091206003810191909155600401805460ff1916600117905550565b6000818152600760205260408120546107cb565b60008111610c585760405162461bcd60e51b815260206004820152602260248201527f4d616b652073757265207468652070726963652069736e2774206e6567617469604482015261766560f01b606482015260840161091b565b600d54811015610cba5760405162461bcd60e51b815260206004820152602760248201527f596f75206e65656420746f20696e636c756465206c697374696e6720707269636044820152660ca40d2dc40e8f60cb1b606482015260840161091b565b60008281526010602052604090206002015433906001600160a01b03168114610d305760405162461bcd60e51b815260206004820152602260248201527f4f6e6c79206e667420686f6c6465722063616e20746f67676c65206c697374696044820152616e6760f01b606482015260840161091b565b610d3a308461088a565b610d45813085612a13565b6000610d50846124f5565b9050837ff9b6347d225a41fcd6b66bf31037b1e809a28c2eb145e406ba89cc2d835ec8d4308486600186426000604051610d909796959493929190613fca565b60405180910390a250506000918252601060205260409091206003810191909155600401805460ff19166001179055565b610dcb3382612a33565b610e3d5760405162461bcd60e51b815260206004820152602e60248201527f4552433732313a2063616c6c6572206973206e6f7420746f6b656e206f776e6560448201527f72206e6f7220617070726f766564000000000000000000000000000000000000606482015260840161091b565b6109bc838383612a13565b600f546001600160a01b03163314610eb15760405162461bcd60e51b815260206004820152602660248201527f4f6e6c79206f70657261746f722063616e2061636365737320746869732066756044820152653731ba34b7b760d11b606482015260840161091b565b6000818152601060205260409020600201546001600160a01b03838116911614610f285760405162461bcd60e51b815260206004820152602260248201527f4f6e6c79206e667420686f6c6465722063616e20746f67676c65206c697374696044820152616e6760f01b606482015260840161091b565b610f33308383612a13565b6000908152601060205260409020600401805460ff1916905550565b6000610f59612ab1565b905090565b600c546060906001600160a01b03163314610fe15760405162461bcd60e51b815260206004820152602360248201527f4f6e6c79206f776e65722063616e20726574726965766520686f6c646572206460448201527f6174610000000000000000000000000000000000000000000000000000000000606482015260840161091b565b6000610fec600a5490565b905060008167ffffffffffffffff81111561100957611009613b4d565b60405190808252806020026020018201604052801561107757816020015b60408051610100810182526000808252602080830182905292820181905260608083018290526080830182905260a083015260c0820181905260e082015282526000199092019101816110275790505b5090506000805b8381101561138f576000611093826001614035565b60008181526010602052604090209091508780156110b55750600481015460ff165b80156110e9575060018101546001600160a01b038a8116911614806110e9575060028101546001600160a01b038a81169116145b156112125760408051610100810182528254815260018301546001600160a01b0390811660208301526002840154169181019190915260038201546060820152600482015460ff1615156080820152600582018054839160a084019161114e90613f8f565b80601f016020809104026020016040519081016040528092919081815260200182805461117a90613f8f565b80156111c75780601f1061119c576101008083540402835291602001916111c7565b820191906000526020600020905b8154815290600101906020018083116111aa57829003601f168201915b5050509183525050600682015460208201526007909101546001600160a01b031660409091015285518690869081106112025761120261404d565b602002602001018190525061136d565b87158015611248575060018101546001600160a01b038a811691161480611248575060028101546001600160a01b038a81169116145b1561136d5760408051610100810182528254815260018301546001600160a01b0390811660208301526002840154169181019190915260038201546060820152600482015460ff1615156080820152600582018054839160a08401916112ad90613f8f565b80601f01602080910402602001604051908101604052809291908181526020018280546112d990613f8f565b80156113265780601f106112fb57610100808354040283529160200191611326565b820191906000526020600020905b81548152906001019060200180831161130957829003601f168201915b5050509183525050600682015460208201526007909101546001600160a01b031660409091015285518690869081106113615761136161404d565b60200260200101819052505b611378600185614035565b93505050808061138790614063565b91505061107e565b509095945050505050565b6109bc8383836040518060200160405280600081525061234e565b60006113c5600a80546001019055565b60006113d0600a5490565b90506113dc3382612bd8565b6113e68184612bf2565b6107cb81600e543386612c9b565b60606000611401600a5490565b905060008060005b83811015611499573360106000611421846001614035565b81526020810191909152604001600020600101546001600160a01b0316148061147457503360106000611455846001614035565b81526020810191909152604001600020600201546001600160a01b0316145b1561148757611484600184614035565b92505b8061149181614063565b915050611409565b5060008267ffffffffffffffff8111156114b5576114b5613b4d565b60405190808252806020026020018201604052801561152357816020015b60408051610100810182526000808252602080830182905292820181905260608083018290526080830182905260a083015260c0820181905260e082015282526000199092019101816114d35790505b50905060005b84811015611703573360106000611541846001614035565b81526020810191909152604001600020600101546001600160a01b0316148061159457503360106000611575846001614035565b81526020810191909152604001600020600201546001600160a01b0316145b156116f15760006115a6826001614035565b6000818152601060209081526040918290208251610100810184528154815260018201546001600160a01b039081169382019390935260028201549092169282019290925260038201546060820152600482015460ff161515608082015260058201805493945091929091839160a08401919061162290613f8f565b80601f016020809104026020016040519081016040528092919081815260200182805461164e90613f8f565b801561169b5780601f106116705761010080835404028352916020019161169b565b820191906000526020600020905b81548152906001019060200180831161167e57829003601f168201915b5050509183525050600682015460208201526007909101546001600160a01b031660409091015284518590879081106116d6576116d661404d565b60209081029190910101526116ec600186614035565b945050505b806116fb81614063565b915050611529565b50949350505050565b6000818152600360205260408120546001600160a01b0316806107cb5760405162461bcd60e51b815260206004820152601860248201527f4552433732313a20696e76616c696420746f6b656e2049440000000000000000604482015260640161091b565b600c546001600160a01b031633146117f15760405162461bcd60e51b815260206004820152602160248201527f4f6e6c79206f776e65722063616e2075706461746520666c6f6f72207072696360448201527f6500000000000000000000000000000000000000000000000000000000000000606482015260840161091b565b600e55565b60006001600160a01b0382166118745760405162461bcd60e51b815260206004820152602960248201527f4552433732313a2061646472657373207a65726f206973206e6f74206120766160448201527f6c6964206f776e65720000000000000000000000000000000000000000000000606482015260840161091b565b506001600160a01b031660009081526004602052604090205490565b61189c84848484612d92565b50505050565b604080516101008101825260008082526020820181905291810182905260608082018390526080820183905260a082015260c0810182905260e08101919091526000828152601060209081526040918290208251610100810184528154815260018201546001600160a01b039081169382019390935260028201549092169282019290925260038201546060820152600482015460ff161515608082015260058201805491929160a08401919061195890613f8f565b80601f016020809104026020016040519081016040528092919081815260200182805461198490613f8f565b80156119d15780601f106119a6576101008083540402835291602001916119d1565b820191906000526020600020905b8154815290600101906020018083116119b457829003601f168201915b5050509183525050600682015460208201526007909101546001600160a01b031660409091015292915050565b600f546001600160a01b03163314611a675760405162461bcd60e51b815260206004820152602660248201527f4f6e6c79206f70657261746f722063616e2061636365737320746869732066756044820152653731ba34b7b760d11b606482015260840161091b565b600081815260106020526040902060048101805460ff1916905560020180546001600160a01b0319166001600160a01b038416179055600b80546001019055611ab1308383612a13565b600090815260106020526040902042600682015560070180546001600160a01b031916905550565b6060600280546107e090613f8f565b60008181526010602052604090206003810154600282015460049092015490916001600160a01b03169060ff161515600114611b665760405162461bcd60e51b815260206004820152601260248201527f4e4654206973206e6f74206f6e2073616c650000000000000000000000000000604482015260640161091b565b6011546040517fdd62ed3e0000000000000000000000000000000000000000000000000000000081523360048201819052306024830152916001600160a01b031690600090829063dd62ed3e9060440160206040518083038186803b158015611bce57600080fd5b505afa158015611be2573d6000803e3d6000fd5b505050506040513d601f19601f82011682018060405250810190611c06919061407e565b905060008111611c585760405162461bcd60e51b815260206004820152601660248201527f496e73756666696369656e7420616c6c6f77616e636500000000000000000000604482015260640161091b565b6040517f70a0823100000000000000000000000000000000000000000000000000000000815233600482015285906001600160a01b038416906370a082319060240160206040518083038186803b158015611cb257600080fd5b505afa158015611cc6573d6000803e3d6000fd5b505050506040513d601f19601f82011682018060405250810190611cea919061407e565b1015611d385760405162461bcd60e51b815260206004820152601460248201527f496e73756666696369656e74207061796d656e74000000000000000000000000604482015260640161091b565b600086815260106020526040902060060154421115611de3576000868152601060205260409020600701546001600160a01b03848116911614611de35760405162461bcd60e51b815260206004820152602660248201527f4e46542063757272656e746c7920726573657276656420627920736f6d656f6e60448201527f6520656c73650000000000000000000000000000000000000000000000000000606482015260840161091b565b600086815260106020526040902060048101805460ff1916905560020180546001600160a01b0319166001600160a01b038516179055600b805460010190556040516323b872dd60e01b81523360048201526001600160a01b038581166024830152604482018790528316906323b872dd90606401602060405180830381600087803b158015611e7257600080fd5b505af1158015611e86573d6000803e3d6000fd5b505050506040513d601f19601f82011682018060405250810190611eaa9190614097565b50600c54600d546040516323b872dd60e01b81523360048201526001600160a01b0392831660248201526044810191909152908316906323b872dd90606401602060405180830381600087803b158015611f0357600080fd5b505af1158015611f17573d6000803e3d6000fd5b505050506040513d601f19601f82011682018060405250810190611f3b9190614097565b50611f47308488612a13565b5050506000928352505060106020526040902042600682015560070180546001600160a01b0319169055565b611f7e338383612f1f565b5050565b60606000611f8f600a5490565b905060008167ffffffffffffffff811115611fac57611fac613b4d565b60405190808252806020026020018201604052801561201a57816020015b60408051610100810182526000808252602080830182905292820181905260608083018290526080830182905260a083015260c0820181905260e08201528252600019909201910181611fca5790505b5090506000805b838110156122c8576000612036826001614035565b60008181526010602052604090209091508780156120585750600481015460ff165b156121815760408051610100810182528254815260018301546001600160a01b0390811660208301526002840154169181019190915260038201546060820152600482015460ff1615156080820152600582018054839160a08401916120bd90613f8f565b80601f01602080910402602001604051908101604052809291908181526020018280546120e990613f8f565b80156121365780601f1061210b57610100808354040283529160200191612136565b820191906000526020600020905b81548152906001019060200180831161211957829003601f168201915b5050509183525050600682015460208201526007909101546001600160a01b031660409091015285518690869081106121715761217161404d565b60200260200101819052506122a6565b876122a65760408051610100810182528254815260018301546001600160a01b0390811660208301526002840154169181019190915260038201546060820152600482015460ff1615156080820152600582018054839160a08401916121e690613f8f565b80601f016020809104026020016040519081016040528092919081815260200182805461221290613f8f565b801561225f5780601f106122345761010080835404028352916020019161225f565b820191906000526020600020905b81548152906001019060200180831161224257829003601f168201915b5050509183525050600682015460208201526007909101546001600160a01b0316604090910152855186908690811061229a5761229a61404d565b60200260200101819052505b6122b1600185614035565b9350505080806122c090614063565b915050612021565b5090949350505050565b600c546001600160a01b0316331461232c5760405162461bcd60e51b815260206004820152601e60248201527f4f6e6c79206f776e65722063616e20757064617465206f70657261746f720000604482015260640161091b565b600f80546001600160a01b0319166001600160a01b0392909216919091179055565b6123583383612a33565b6123ca5760405162461bcd60e51b815260206004820152602e60248201527f4552433732313a2063616c6c6572206973206e6f7420746f6b656e206f776e6560448201527f72206e6f7220617070726f766564000000000000000000000000000000000000606482015260840161091b565b61189c84848484612fee565b6000818152601060205260409020600201546001600160a01b0316331461244a5760405162461bcd60e51b815260206004820152602260248201527f4f6e6c79206e667420686f6c6465722063616e20746f67676c65206c697374696044820152616e6760f01b606482015260840161091b565b612455303383612a13565b6000908152601060205260409020600401805460ff19169055565b600c546001600160a01b031633146124f05760405162461bcd60e51b815260206004820152602360248201527f4f6e6c79206f776e65722063616e20757064617465206c697374696e6720707260448201527f6963650000000000000000000000000000000000000000000000000000000000606482015260840161091b565b600d55565b6060612500826128b7565b6000828152600860205260408120805461251990613f8f565b80601f016020809104026020016040519081016040528092919081815260200182805461254590613f8f565b80156125925780601f1061256757610100808354040283529160200191612592565b820191906000526020600020905b81548152906001019060200180831161257557829003601f168201915b5050505050905060006125b060408051602081019091526000815290565b90508051600014156125c3575092915050565b8151156125f55780826040516020016125dd9291906140b4565b60405160208183030381529060405292505050919050565b6125fe8461306c565b949350505050565b604080516101008101825260008082526020820181905291810182905260608082018390526080820183905260a082015260c0810182905260e08101919091526000612651600a5490565b6000818152601060209081526040918290208251610100810184528154815260018201546001600160a01b039081169382019390935260028201549092169282019290925260038201546060820152600482015460ff1615156080820152600582018054939450909260a08401919061195890613f8f565b600f546001600160a01b031633146127325760405162461bcd60e51b815260206004820152602660248201527f4f6e6c79206f70657261746f722063616e2061636365737320746869732066756044820152653731ba34b7b760d11b606482015260840161091b565b612740600a80546001019055565b600061274b600a5490565b90506127578382612bd8565b6127618183612bf2565b6109bc81600e548585612c9b565b600c546001600160a01b031633146127ef5760405162461bcd60e51b815260206004820152602560248201527f4f6e6c79206f776e65722063616e2075706461746520726563656976696e672060448201527f746f6b656e000000000000000000000000000000000000000000000000000000606482015260840161091b565b601180546001600160a01b0319166001600160a01b0392909216919091179055565b6000610f59600a5490565b60006001600160e01b031982167f80ac58cd00000000000000000000000000000000000000000000000000000000148061287f57506001600160e01b031982167f5b5e139f00000000000000000000000000000000000000000000000000000000145b806107cb57507f01ffc9a7000000000000000000000000000000000000000000000000000000006001600160e01b03198316146107cb565b6000818152600360205260409020546001600160a01b031661291b5760405162461bcd60e51b815260206004820152601860248201527f4552433732313a20696e76616c696420746f6b656e2049440000000000000000604482015260640161091b565b50565b600081815260056020526040902080546001600160a01b0319166001600160a01b03841690811790915581906129538261170c565b6001600160a01b03167f8c5be1e5ebec7d5bd14f71427d1e84f3dd0314c0f7b2291e5b200ac8c7c3b92560405160405180910390a45050565b600f546001600160a01b031633146129f55760405162461bcd60e51b815260206004820152602660248201527f4f6e6c79206f70657261746f722063616e2061636365737320746869732066756044820152653731ba34b7b760d11b606482015260840161091b565b612a0133848484612d92565b612a0c858585612a13565b5050505050565b6000818152600760205260409020805460010190556109bc8383836130e0565b600080612a3f8361170c565b9050806001600160a01b0316846001600160a01b03161480612a8657506001600160a01b0380821660009081526006602090815260408083209388168352929052205460ff165b806125fe5750836001600160a01b0316612a9f84610863565b6001600160a01b031614949350505050565b6000306001600160a01b037f000000000000000000000000000000000000000000000000000000000000000016148015612b0a57507f000000000000000000000000000000000000000000000000000000000000000046145b15612b3457507f000000000000000000000000000000000000000000000000000000000000000090565b50604080517f00000000000000000000000000000000000000000000000000000000000000006020808301919091527f0000000000000000000000000000000000000000000000000000000000000000828401527f000000000000000000000000000000000000000000000000000000000000000060608301524660808301523060a0808401919091528351808403909101815260c0909201909252805191012090565b611f7e8282604051806020016040528060008152506132ad565b6000828152600360205260409020546001600160a01b0316612c7c5760405162461bcd60e51b815260206004820152602e60248201527f45524337323155524953746f726167653a2055524920736574206f66206e6f6e60448201527f6578697374656e7420746f6b656e000000000000000000000000000000000000606482015260840161091b565b600082815260086020908152604090912082516109bc928401906139b7565b60408051610100810182528581523060208083019182526001600160a01b038681168486019081526060850189815260006080870181815260a088018a81524260c08a015260e089018390528d835260108752989091208751815595516001870180546001600160a01b031990811692871692909217905592516002870180549094169416939093179091555160038401555160048301805460ff19169115159190911790559251805192939192612d5992600585019201906139b7565b5060c0820151600682015560e090910151600790910180546001600160a01b0319166001600160a01b0390921691909117905550505050565b81421115612de25760405162461bcd60e51b815260206004820152601e60248201527f4552433732315065726d69743a206578706972656420646561646c696e650000604482015260640161091b565b60008381526007602090815260408083205481517f0000000000000000000000000000000000000000000000000000000000000000818501526001600160a01b0389168184015260608101889052608081019190915260a08082018790528251808303909101815260c0909101909152805191012090612e618261332b565b90506000612e6f8285613394565b50905060006001600160a01b03821615801590612e915750612e918288612a33565b90508080612ead5750612ead612ea68861170c565b84876133da565b80612ebf5750612ebf612ea688610863565b612f0b5760405162461bcd60e51b815260206004820152601f60248201527f4552433732315065726d69743a20696e76616c6964207369676e617475726500604482015260640161091b565b612f15888861291e565b5050505050505050565b816001600160a01b0316836001600160a01b03161415612f815760405162461bcd60e51b815260206004820152601960248201527f4552433732313a20617070726f766520746f2063616c6c657200000000000000604482015260640161091b565b6001600160a01b03838116600081815260066020908152604080832094871680845294825291829020805460ff191686151590811790915591519182527f17307eab39ab6107e8899845ad3d59bd9653f200f220920489ca2b5937696c31910160405180910390a3505050565b612ff9848484612a13565b613005848484846134fe565b61189c5760405162461bcd60e51b815260206004820152603260248201527f4552433732313a207472616e7366657220746f206e6f6e20455243373231526560448201527131b2b4bb32b91034b6b83632b6b2b73a32b960711b606482015260840161091b565b6060613077826128b7565b600061308e60408051602081019091526000815290565b905060008151116130ae57604051806020016040528060008152506130d9565b806130b884613656565b6040516020016130c99291906140b4565b6040516020818303038152906040525b9392505050565b826001600160a01b03166130f38261170c565b6001600160a01b03161461316f5760405162461bcd60e51b815260206004820152602560248201527f4552433732313a207472616e736665722066726f6d20696e636f72726563742060448201527f6f776e6572000000000000000000000000000000000000000000000000000000606482015260840161091b565b6001600160a01b0382166131ea5760405162461bcd60e51b8152602060048201526024808201527f4552433732313a207472616e7366657220746f20746865207a65726f2061646460448201527f7265737300000000000000000000000000000000000000000000000000000000606482015260840161091b565b6131f560008261291e565b6001600160a01b038316600090815260046020526040812080546001929061321e9084906140e3565b90915550506001600160a01b038216600090815260046020526040812080546001929061324c908490614035565b909155505060008181526003602052604080822080546001600160a01b0319166001600160a01b0386811691821790925591518493918716917fddf252ad1be2c89b69c2b068fc378daa952ba7f163c4a11628f55a4df523b3ef91a4505050565b6132b78383613788565b6132c460008484846134fe565b6109bc5760405162461bcd60e51b815260206004820152603260248201527f4552433732313a207472616e7366657220746f206e6f6e20455243373231526560448201527131b2b4bb32b91034b6b83632b6b2b73a32b960711b606482015260840161091b565b60006107cb613338612ab1565b836040517f19010000000000000000000000000000000000000000000000000000000000006020820152602281018390526042810182905260009060620160405160208183030381529060405280519060200120905092915050565b6000808251604114156133cb5760208301516040840151606085015160001a6133bf878285856138ca565b945094505050506133d3565b506000905060025b9250929050565b6000806000856001600160a01b0316631626ba7e60e01b86866040516024016134049291906140fa565b60408051601f198184030181529181526020820180517bffffffffffffffffffffffffffffffffffffffffffffffffffffffff166001600160e01b03199094169390931790925290516134579190614113565b600060405180830381855afa9150503d8060008114613492576040519150601f19603f3d011682016040523d82523d6000602084013e613497565b606091505b50915091508180156134aa575080516020145b80156134f4575080517f1626ba7e00000000000000000000000000000000000000000000000000000000906134e8908301602090810190840161412f565b6001600160e01b031916145b9695505050505050565b60006001600160a01b0384163b1561364b57604051630a85bd0160e11b81526001600160a01b0385169063150b7a029061354290339089908890889060040161414c565b602060405180830381600087803b15801561355c57600080fd5b505af192505050801561358c575060408051601f3d908101601f191682019092526135899181019061412f565b60015b613631573d8080156135ba576040519150601f19603f3d011682016040523d82523d6000602084013e6135bf565b606091505b5080516136295760405162461bcd60e51b815260206004820152603260248201527f4552433732313a207472616e7366657220746f206e6f6e20455243373231526560448201527131b2b4bb32b91034b6b83632b6b2b73a32b960711b606482015260840161091b565b805181602001fd5b6001600160e01b031916630a85bd0160e11b1490506125fe565b506001949350505050565b60608161369657505060408051808201909152600181527f3000000000000000000000000000000000000000000000000000000000000000602082015290565b8160005b81156136c057806136aa81614063565b91506136b99050600a83614194565b915061369a565b60008167ffffffffffffffff8111156136db576136db613b4d565b6040519080825280601f01601f191660200182016040528015613705576020820181803683370190505b5090505b84156125fe5761371a6001836140e3565b9150613727600a866141a8565b613732906030614035565b60f81b8183815181106137475761374761404d565b60200101907effffffffffffffffffffffffffffffffffffffffffffffffffffffffffffff1916908160001a905350613781600a86614194565b9450613709565b6001600160a01b0382166137de5760405162461bcd60e51b815260206004820181905260248201527f4552433732313a206d696e7420746f20746865207a65726f2061646472657373604482015260640161091b565b6000818152600360205260409020546001600160a01b0316156138435760405162461bcd60e51b815260206004820152601c60248201527f4552433732313a20746f6b656e20616c7265616479206d696e74656400000000604482015260640161091b565b6001600160a01b038216600090815260046020526040812080546001929061386c908490614035565b909155505060008181526003602052604080822080546001600160a01b0319166001600160a01b03861690811790915590518392907fddf252ad1be2c89b69c2b068fc378daa952ba7f163c4a11628f55a4df523b3ef908290a45050565b6000807f7fffffffffffffffffffffffffffffff5d576e7357a4501ddfe92f46681b20a083111561390157506000905060036139ae565b8460ff16601b1415801561391957508460ff16601c14155b1561392a57506000905060046139ae565b6040805160008082526020820180845289905260ff881692820192909252606081018690526080810185905260019060a0016020604051602081039080840390855afa15801561397e573d6000803e3d6000fd5b5050604051601f1901519150506001600160a01b0381166139a7576000600192509250506139ae565b9150600090505b94509492505050565b8280546139c390613f8f565b90600052602060002090601f0160209004810192826139e55760008555613a2b565b82601f106139fe57805160ff1916838001178555613a2b565b82800160010185558215613a2b579182015b82811115613a2b578251825591602001919060010190613a10565b50613a37929150613a3b565b5090565b5b80821115613a375760008155600101613a3c565b6001600160e01b03198116811461291b57600080fd5b600060208284031215613a7857600080fd5b81356130d981613a50565b60005b83811015613a9e578181015183820152602001613a86565b8381111561189c5750506000910152565b60008151808452613ac7816020860160208601613a83565b601f01601f19169290920160200192915050565b6020815260006130d96020830184613aaf565b600060208284031215613b0057600080fd5b5035919050565b80356001600160a01b0381168114613b1e57600080fd5b919050565b60008060408385031215613b3657600080fd5b613b3f83613b07565b946020939093013593505050565b634e487b7160e01b600052604160045260246000fd5b600082601f830112613b7457600080fd5b813567ffffffffffffffff80821115613b8f57613b8f613b4d565b604051601f8301601f19908116603f01168101908282118183101715613bb757613bb7613b4d565b81604052838152866020858801011115613bd057600080fd5b836020870160208301376000602085830101528094505050505092915050565b600080600080600060a08688031215613c0857600080fd5b613c1186613b07565b9450602086013593506040860135925060608601359150608086013567ffffffffffffffff811115613c4257600080fd5b613c4e88828901613b63565b9150509295509295909350565b60008060408385031215613c6e57600080fd5b50508035926020909101359150565b600080600060608486031215613c9257600080fd5b613c9b84613b07565b9250613ca960208501613b07565b9150604084013590509250925092565b801515811461291b57600080fd5b60008060408385031215613cda57600080fd5b613ce383613b07565b91506020830135613cf381613cb9565b809150509250929050565b60006101008251845260208301516001600160a01b0380821660208701528060408601511660408701526060850151606087015260808501511515608087015260a085015191508260a0870152613d5783870183613aaf565b925060c085015160c08701528060e08601511660e087015250508091505092915050565b6000602080830181845280855180835260408601915060408160051b870101925083870160005b82811015613dd057603f19888603018452613dbe858351613cfe565b94509285019290850190600101613da2565b5092979650505050505050565b600060208284031215613def57600080fd5b813567ffffffffffffffff811115613e0657600080fd5b6125fe84828501613b63565b600060208284031215613e2457600080fd5b6130d982613b07565b60008060008060808587031215613e4357600080fd5b613e4c85613b07565b93506020850135925060408501359150606085013567ffffffffffffffff811115613e7657600080fd5b613e8287828801613b63565b91505092959194509250565b6020815260006130d96020830184613cfe565b600060208284031215613eb357600080fd5b81356130d981613cb9565b60008060008060808587031215613ed457600080fd5b613edd85613b07565b9350613eeb60208601613b07565b925060408501359150606085013567ffffffffffffffff811115613e7657600080fd5b60008060408385031215613f2157600080fd5b613f2a83613b07565b9150602083013567ffffffffffffffff811115613f4657600080fd5b613f5285828601613b63565b9150509250929050565b60008060408385031215613f6f57600080fd5b613f7883613b07565b9150613f8660208401613b07565b90509250929050565b600181811c90821680613fa357607f821691505b60208210811415613fc457634e487b7160e01b600052602260045260246000fd5b50919050565b60006001600160a01b03808a1683528089166020840152876040840152861515606084015260e0608084015261400360e0840187613aaf565b60a08401959095529290921660c0909101525095945050505050565b634e487b7160e01b600052601160045260246000fd5b600082198211156140485761404861401f565b500190565b634e487b7160e01b600052603260045260246000fd5b60006000198214156140775761407761401f565b5060010190565b60006020828403121561409057600080fd5b5051919050565b6000602082840312156140a957600080fd5b81516130d981613cb9565b600083516140c6818460208801613a83565b8351908301906140da818360208801613a83565b01949350505050565b6000828210156140f5576140f561401f565b500390565b8281526040602082015260006125fe6040830184613aaf565b60008251614125818460208701613a83565b9190910192915050565b60006020828403121561414157600080fd5b81516130d981613a50565b60006001600160a01b038087168352808616602084015250836040830152608060608301526134f46080830184613aaf565b634e487b7160e01b600052601260045260246000fd5b6000826141a3576141a361417e565b500490565b6000826141b7576141b761417e565b50069056fea2646970667358221220772473a55ea26397ca6a12df3b78e58e1e8f324b5047dfd61ef2a6f080fe36c564736f6c63430008090033",
    "linkReferences": {},
    "deployedLinkReferences": {}
}